:1000000000180020C100000009240000D5230000D2
:10001000D5230000D5230000D5230000D523000000
:10002000D5230000D5230000D523000009240000BB
:1000300009240000D523000009240000C523000086
:1000400009240000092400000924000009240000FC
:1000500009240000092400000924000009240000EC
:10006000A110000009240000092400000924000058
:10007000513E0000A94200009547000009240000FD
:1000800009240000092400000924000009240000BC
:1000900009240000092400000924000009240000AC
:1000A0000D28000009240000092400000924000094
:1000B000092400000924000009240000092400008C
:1000C00038B502F0A5F9454A454B1A60454A464BFA
:1000D0001A60464A464B1A60464B0822197811426C
:1000E00002D019780A431A70434B2A221A7000234F
:1000F000424A43499A188A4204D24249C9580433B1
:100100001160F5E7404B41491A1F181D00238A4230
:1001100002D21360031CF6E73D493E4A5958101CB1
:1001200099500433C02BF7D100239A083A49920022
:10013000521803211940C9001568FF248C40A543BB
:100140002C1C80258D40291C214301331160202B5C
:10015000EBD1324B8A221860314B1A70314B24227A
:100160005A70A0221A709A799107FCD59A79D5060F
:10017000FCD498790C212B4A01400829F9D103219C
:100180001171402151719A799106FCD59A795506E1
:10019000FCD52549254A1160224A20211170997900
:1001A0000C220A400C2AFAD1214A224B1A60224A18
:1001B000224B1A60224B00221A60224B07221A603F
:1001C000214A224B1A6062B602F0FAF904F0A8FC48
:1001D00002F024F903F07CF9FEE7C046300004F099
:1001E00034800440823F0000388004400100000F4A
:1001F0003C80044002D0074000E0074060FDFF1F44
:1002000074FEFF1F6464000078FEFF1FFC080020DE
:100210000000000000F9FF1F00E400E008ED00E02E
:100220000050064000400640000001104480044099
:10023000C0000505048004407FBB000014E000E01E
:1002400018E000E010E000E00000202020ED00E0D9
:10025000FFFFFFFFFFFFFFFFFFFFFFFFFFFFFFFFAE
:10026000FFFFFFFFFFFFFFFFFFFFFFFFFFFFFFFF9E
:10027000FFFFFFFFFFFFFFFFFFFFFFFFFFFFFFFF8E
:10028000FFFFFFFFFFFFFFFFFFFFFFFFFFFFFFFF7E
:10029000FFFFFFFFFFFFFFFFFFFFFFFFFFFFFFFF6E
:1002A000FFFFFFFFFFFFFFFFFFFFFFFFFFFFFFFF5E
:1002B000FFFFFFFFFFFFFFFFFFFFFFFFFFFFFFFF4E
:1002C000FFFFFFFFFFFFFFFFFFFFFFFFFFFFFFFF3E
:1002D000FFFFFFFFFFFFFFFFFFFFFFFFFFFFFFFF2E
:1002E000FFFFFFFFFFFFFFFFFFFFFFFFFFFFFFFF1E
:1002F000FFFFFFFFFFFFFFFFFFFFFFFFFFFFFFFF0E
:10030000FFFFFFFFFFFFFFFFFFFFFFFFFFFFFFFFFD
:10031000FFFFFFFFFFFFFFFFFFFFFFFFFFFFFFFFED
:10032000FFFFFFFFFFFFFFFFFFFFFFFFFFFFFFFFDD
:10033000FFFFFFFFFFFFFFFFFFFFFFFFFFFFFFFFCD
:10034000FFFFFFFFFFFFFFFFFFFFFFFFFFFFFFFFBD
:10035000FFFFFFFFFFFFFFFFFFFFFFFFFFFFFFFFAD
:10036000FFFFFFFFFFFFFFFFFFFFFFFFFFFFFFFF9D
:10037000FFFFFFFFFFFFFFFFFFFFFFFFFFFFFFFF8D
:10038000FFFFFFFFFFFFFFFFFFFFFFFFFFFFFFFF7D
:10039000FFFFFFFFFFFFFFFFFFFFFFFFFFFFFFFF6D
:1003A000FFFFFFFFFFFFFFFFFFFFFFFFFFFFFFFF5D
:1003B000FFFFFFFFFFFFFFFFFFFFFFFFFFFFFFFF4D
:1003C000FFFFFFFFFFFFFFFFFFFFFFFFFFFFFFFF3D
:1003D000FFFFFFFFFFFFFFFFFFFFFFFFFFFFFFFF2D
:1003E000FFFFFFFFFFFFFFFFFFFFFFFFFFFFFFFF1D
:1003F000FFFFFFFFFFFFFFFFFFFFFFFFFFFFFFFF0D
:10040000FFFFFFFFFFFFFFFFFFFFFFFFFEFFFFFFFD
:1004100010B5064C2378002B07D1054B002B02D0DA
:10042000044800E000BF0123237010BD74FEFF1FCD
:10043000000000006464000008B5084B002B03D0E6
:100440000748084900E000BF07480368002B03D0B5
:10045000064B002B00D0984708BDC04600000000A6
:100460006464000078FEFF1F74FEFF1F00000000A0
:1004700038B5051C081C0C1C04F090FC2B68021CF1
:100480005B68281C211C984738BDD2B208B5002AE9
:1004900003D103681B68984713E00A2A01D0012A98
:1004A00003D1002203F072F80BE0102A02D103F00E
:1004B000A6F806E0022A02D103F0B8F801E003F042
:1004C000CAF808BD38B5041CFFF7D2FF051C201C74
:1004D00003F038F8281838BD38B504211D4803F05A
:1004E000F7F81D4802F052F81C4C70212034201CF3
:1004F00001F098F8201C0B2101F060F8184C7121D4
:100500002034201C01F08EF8201C0B2101F056F83D
:10051000144C72212034201C01F084F8201C0F217F
:1005200001F04CF8104D0024281C00F0D4FEA1B2BC
:100530000022281C00F0A7FF281C00F01FFF013438
:10054000052002F023F80E2CF1D1084800F056FCEB
:1005500038BDC046FC000020B80B0000E4FEFF1FC1
:1005600090FEFF1F18FFFF1F50FFFF1FC4FEFF1F5D
:100570007FB50B4D061C2C1C2034201C01F070F89C
:10058000082300931023002101930123281C0293C8
:100590000A1C331C01F07BFC201C01F085F87FBD98
:1005A00018FFFF1F1FB50822084C009210220021DF
:1005B00001920122031C0292201C0A1C01F0BAFCC9
:1005C000201C203001F070F81FBDC04618FFFF1F2F
:1005D0007FB50C4D061C2C1C2034201C01F040F86B
:1005E00033B20222053636B201920122281C00964F
:1005F00002920021032201F0AAFB201C01F054F812
:100600007FBDC04618FFFF1F7FB51B4E0124351C60
:100610002035281C01F024F80A230093022300212E
:1006200004220193301C0623029401F090FB281C45
:1006300001F03AF8114E351C2035281C01F010F855
:10064000082104220523301C009401F0F7F9281C2E
:1006500001F02AF80A4E351C2035281C01F000F85C
:10066000301C082104220523009401F0E7F9281C1E
:1006700001F01AF87FBDC04618FFFF1FE4FEFF1F00
:1006800090FEFF1F10B5031C00201A78111C303992
:10069000CCB2092C02D80001401806E0111C4139E7
:1006A000052904D80001373A80180133EDE710BD61
:1006B00010B50C4800F0EAFF0B4800F0E7FF0B48CC
:1006C00000F0D6FF0A4800F019FB0A4CC623201C94
:1006D0000E21062200F0C0FE201C0749074A04F044
:1006E000FBF910BDE4FEFF1F90FEFF1F18FFFF1F68
:1006F000C4FEFF1F50FFFF1FB912000060FDFF1F67
:10070000F7B5154F051C3C1C2034201C0E1C00F0B6
:10071000A7FF08232DB236B200930123291C002223
:100720000193381C331C01F0DBF8201C00F0BCFFE7
:100730000A4F3C1C2034201C00F092FF0823009339
:100740000123381C311C019300222B1C01F0C8F836
:10075000201C00F0A9FFF7BDE4FEFF1F90FEFF1F65
:1007600008B50448FFF704FF03200421FFF7C8FF82
:1007700008BDC0461D59000008B50448FFF7F8FE43
:1007800002200521FFF7BCFF08BDC0462D5900001F
:1007900008B50620FFF71CFF07200121FFF7B0FF77
:1007A00008BDFFFF08B50448FFF7E2FE0120032162
:1007B000FFF7A6FF08BDC0463D59000008B5044834
:1007C000FFF7D6FE0420011CFFF79AFF08BDC046C4
:1007D000815A000073B51448FFF7CAFE134D012675
:1007E0002C1C2034201C00F03BFF07210323002297
:1007F000009301960B1C281C01F072F8201C00F0DD
:1008000053FF0B4D2C1C2034201C00F029FF072324
:10081000281C00930196191C042201F061F8201C89
:1008200000F042FF73BDC046915A0000E4FEFF1F76
:1008300090FEFF1FF0B5B94CA7B0201C00F042FBA2
:10084000B74EB84D32682968FA23521A9B009A4273
:1008500012D9201C00F070FA816802684368009188
:10086000C0680190A169B048029121780391AF4915
:1008700002F080FE36682E6002F094FB002800D162
:1008800024E2A94D0DA8291C782202F023FF0DA80F
:10089000A74902F0EEFF2C1C002806D0A549281C11
:1008A000FFF710FEFFF75CFFF9E10DA8A24902F087
:1008B000E0FF002806D0A149281CFFF703FEFFF740
:1008C0005BFFECE10DA89E4902F0D3FF002806D0A3
:1008D0009C49281CFFF7F6FDFFF75AFFDFE10DA842
:1008E000994902F0C6FF002806D09849281CFFF756
:1008F000E9FDFFF763FFD2E10DA8954902F0B9FFCA
:10090000002806D09349281CFFF7DCFDFFF762FFA3
:10091000C5E10DA8904902F0ACFF002806D08F4930
:10092000281CFFF7CFFDFFF76FFEB8E10DA88C493B
:1009300002F09FFF002806D08A49281CFFF7C2FD5D
:10094000FFF730FFABE10DA8874902F092FF021ECE
:100950001CD08649281CFFF7B5FD854C2034201C8F
:1009600000F07EFE201C00F09FFE824C2034201CF4
:1009700000F076FE201C00F097FE7F4C2034201CF7
:1009800000F06EFE201C00F08FFE88E1032319A802
:100990000DA902F0ABFF794919A802F06AFF051C06
:1009A00019A802F0DDFE19A80DA9002D20D0032200
:1009B000042302F09BFF002119A802F06FFF19A881
:1009C00002F0CEFE201C6E49FFF752FD03220423E5
:1009D00019A80DA902F08AFF19A9201C02F091FDA7
:1009E00019A802F0BDFE201C6649FFF76BFD56E119
:1009F0000022032302F07AFF19A8634902F039FFAD
:100A0000051C19A802F0ACFE002D3CD011A80DA9C0
:100A10000322572302F06AFF00240622624315A82E
:100A2000931D11A902F062FF3222002319A915A813
:100A300002F042FF19A8FFF725FE3B4E051C291CBA
:100A4000301C02F0DCFD301C02F07CFDFF2328127C
:100A50002A1418401A404D4E0134000412021D4061
:100A60000243611E89B22A43301C00F00CFD301C89
:100A700000F084FC052001F089FD15A802F070FE4D
:100A80000E2CCAD1FCE02A1C19A80DA9032302F0E0
:100A90002DFF19A83E4902F0ECFE051C19A802F032
:100AA0005FFE002D00D1EFE011A80DA90322042361
:100AB00002F01CFF11A8374902F0DBFE08260028CF
:100AC00000D01026B51C6D002B1C15A80DA9042202
:100AD00002F00CFF043D09A82F490F2204F05AF838
:100AE00005950025AF1C2A1C19A815A93B1C02F06E
:100AF000FDFE07A90A22002319A802F0DDFE07A8BF
:100B0000FFF7C0FD6D1009AB585519A802F028FE7B
:100B1000059B9F4242DA3D1CE4E7C046C4FEFF1F2E
:100B2000D4FFFF1F4CFFFF1FFC0000204C590000AA
:100B30008F59000087590000A15900009959000001
:100B4000B1590000A9590000BF590000B759000071
:100B5000CF590000C7590000DF590000D7590000E5
:100B6000F0590000E8590000F5590000FB59000059
:100B700018FFFF1FE4FEFF1F90FEFF1F095A000031
:100B80000D5A0000215A0000235A000050FFFF1F99
:100B9000275A00002B5A00000E59000011A84C499A
:100BA00002F067FE002820D04A480025203000F0DF
:100BB00057FD49484949FFF75BFC291C201C02F0FE
:100BC00015FD09AF4649201CFFF752FCE95D201CCA
:100BD00010220135FFF759FCB542EEDB201C4049DD
:100BE000FFF770FC381CFFF7DDFC11A83D4902F04F
:100BF00040FE002805D111A83B4902F03AFE00282A
:100C00003BD03A49201CFFF733FC11A9201C02F00D
:100C100078FC201C3249FFF72BFC0025291C201CE6
:100C200002F0E4FC09AF2E49201CFFF721FCE95D2E
:100C3000201C10220135FFF728FCB542EEDB201CFA
:100C40002749FFF73FFC11A8264902F012FE041EB7
:100C500029D0274D2C1C2034201C00F001FD082336
:100C600000930193002101230293281C0A1C3B1CC2
:100C700001F060F9201C00F017FD15A802F070FDCE
:100C800011A802F06DFD0AE01A49201CFFF71AFCBA
:100C9000201C0DA902F035FC201C02F053FC0DA80D
:100CA00002F05EFD12E0144E351C2035281C00F0C9
:100CB000D7FC08230093019301230293301C211CCD
:100CC000221C3B1C01F036F9281CD4E727B0F0BDEC
:100CD0002B5A000018FFFF1FFC0000202D5A0000B7
:100CE000215A0000F3590000C55900006A5A00005B
:100CF00090FEFF1F425A0000E4FEFF1FFF2310B5C5
:100D000003700023041C0375836103770420011C16
:100D100003F0EAFE60600420011C03F0E5FEA06021
:100D20000420011C03F0E0FE0121E060042003F038
:100D3000DBFE2061201C10BD70B5027D031C4068E5
:100D4000002A0DD09C68DD680023E158EE588A1B0C
:100D500004498A4200DA0A1CC2500433102BF4D131
:100D600070BDC0461802FFFF0B078021C90319435D
:100D7000074BA0221960013AFDD11A1C054B1B68D4
:100D80001907FBD41023013BFDD1106880B27047D6
:100D90000450044000500440F8B5037D041C002BAF
:100DA00029D000252269201C515DFFF7DDFFA268D4
:100DB000AB00D050E2680135D050042DF2D10A26A4
:100DC00000252369201C595DFFF7CEFFA268E36868
:100DD000AF00D051DF193A68074BFA21534389001D
:100DE000C01803F0F9FD01353860042DE9D1013E4A
:100DF000F6B2002EE4D1F8BDE70300000269022339
:100E000010B5137002690323537002690E239370A7
:100E100002690F23D3700169041C0023C85CDAB295
:100E2000FF2804D11349144802F0A4FB21E0013348
:100E3000042BF3D1114A0023916A14200B60516BEB
:100E4000FC320B601169D2690B6013600C4B2021DE
:100E50001A680A431A600B4B80211A688A431A6089
:100E6000094A1A6001F092FB01232375201CFFF749
:100E700093FF10BDA05A0000FC000020D0600000CD
:100E800038800440005004408049C3000B07802193
:100E9000C9031943024B1960A023013BFDD17047E0
:100EA00004500440054B1B681A0703D4044B186810
:100EB00080B201E0012040427047C046005004402B
:100EC0000450044038B5037D041C002B2AD003785D
:100ED000FF2B05D10021FFF7D9FF0023237021E06C
:100EE000114B1B681A071DD4FFF7DCFF2378A2689B
:100EF0009B0098502578E368AD005D192A680B4B7C
:100F0000FA2153438900C01803F066FDA3692860E5
:100F100021780133A3610131032319402170201C82
:100F2000FFF7B4FF38BDC04600500440E70300009F
:100F3000044BD878044BC0B21A68904200D01860B5
:100F40007047C0460060064064FDFF1F10B50C4BA3
:100F5000041C1B78002B04D10A4A181C1278002AA2
:100F60000CD0094A1378202B03D9012323710020C8
:100F700004E0581C1070054A0120D15410BDC04631
:100F8000CEFFFF1F91FFFF1FCFFFFF1F70FFFF1F4F
:100F90007047FFFF024B1878024B1B78C01A70474E
:100FA000CDFFFF1FCCFFFF1F064A074913780978C2
:100FB000994204D9591C1170044AD05C01E0012007
:100FC00040427047CCFFFF1FCDFFFF1F92FFFF1F66
:100FD000054B064A1B7812789A4202D9044AD05C23
:100FE00001E0012040427047CCFFFF1FCDFFFF1FF3
:100FF00092FFFF1FF8B50E4B071C1878141C002831
:1010000003D10C4B1B78002B10D00B4E21233578CD
:101010005B1B9C4202D901223A711C1C0748221C0E
:1010200040192D1903F0B6FD3570201CF8BDC046DF
:10103000CEFFFF1F91FFFF1FCFFFFF1F70FFFF1F9E
:10104000002303710373034BFA229200083382607A
:1010500003607047C05A00000C4B00221A700C4B02
:1010600040201968014319600A4B0B499A70992274
:1010700092000A6009490A601F225A7002229A717E
:1010800020225A7180229A707047C04691FFFF1F3C
:1010900034800440006006400CA0044008A00440D6
:1010A00038B53C4C1023E578EDB21D4203D1402207
:1010B0002A4004D127E0E3706B06F8D468E00423EB
:1010C0001D40354B17D000221A70344B344D1B682D
:1010D0002A70934200D098472A78324B002A02D1D6
:1010E000012129701A70D022A2701B78012223716D
:1010F0002D4B1A704AE001221A702C4B1D70C02330
:10110000A370237942E0A3796021DBB21940602902
:101110000CD120218B431F498B71254B1B68002B61
:1011200004D024490A70214A10789847A1781022E7
:10113000184B0A4016D0012215400FD11A49184801
:101140000A780078904205D9501C087015498A5CCD
:101150001A7100E01D71D023A37017E0C0229A70AD
:101160001B7913E014490A709A7920210A439A7175
:101170000E4A19791378C9B21F2B07D80648007890
:10118000002803D0581C10700C4AD1540223E3707D
:1011900038BDC0460060064068FFFF1FB4FFFF1F58
:1011A000CFFFFF1F70FFFF1FD0FFFF1FCDFFFF1FEF
:1011B0006CFFFF1FCCFFFF1FB8FFFF1F92FFFF1F39
:1011C000044B054A4900197001231370034A137038
:1011D0007047C04670FFFF1FCEFFFF1FCFFFFF1FEE
:1011E000F8B5284C1223E370A3780E1C9A0601D59B
:1011F000B42313E0244F3D68FFF79AFE20231840E4
:1012000009D03B685B1B0F2BF6D90023A37080230A
:10121000A370042034E01D4B1870B023A370FFF7B7
:1012200087FE8306FBD50025194B1B78AB421FD9DF
:10123000184B5B5D2371FFF77BFE820701D48306A9
:10124000F9D40223E3700F4FFFF772FEC20601D4F8
:10125000830603D48023BB7004200AE0C20704D5B0
:101260006B426B410320C01A05E00135EDB2DBE7AC
:101270000020002E01D08023A370074B00221A709B
:10128000F8BDC04600600640D4FFFF1F91FFFF1F5E
:10129000CFFFFF1F70FFFF1FCEFFFF1F08B501210B
:1012A000FFF79EFF08BDFFFF08B50248FFF7C8FE25
:1012B00008BDC046BCFFFF1F10B5041CC06803F08A
:1012C0005FFCE08803B2002B03DBC0B2002101F019
:1012D00005F9201C10BD10B5041CC08803B2002BFA
:1012E00007DBC0B2012101F0F9F8A079002101F07B
:1012F000D5F80123637010BD70B5041CC0680E1CC6
:1013000003F03EFC237CE57CED1A6B1E9D4103350A
:101310007543ADB2A580281C03F028FCE0600028CE
:1013200005D000212A1C03F057FC668001E0A08054
:10133000608070BD037C70B5C57C8C11ED1A6B426A
:101340005D410A1103238E101E401C401A400B40C1
:1013500046748374FF2600238E425B410370C3688A
:10136000EDB2C4740274002B07D0A21A5342534149
:10137000AB4202D04188FFF7BFFF70BDF8B5C3682C
:10138000041C002B00D147E001F0DCF86369C01AAF
:101390002C23FF339842F7D972B60623E15E0C2066
:1013A00048431E4BA2881918C058097A0430E368D4
:1013B0001D782D0607266D0008D201700427013F15
:1013C000FDD101710D27013FFDD108E001700D270E
:1013D000013FFDD101710427013FFDD1C046013E0F
:1013E000E9D16D0008D201700427013FFDD10171E0
:1013F0000A27013FFDD108E001700D27013FFDD113
:1014000001710127013FFDD1C0460133013ACFD11F
:1014100062B601F097F86061F8BDC046D060000088
:1014200038B54378041C0D1C002B07D0C08803B2CC
:10143000002B03DBC0B2002101F050F86378E58097
:10144000002B08D0ECB2201C012101F047F8201C31
:10145000002101F023F838BD70B5041C00200E1CDB
:101460006070191C2072E0606061201C151CFFF781
:1014700061FF311C201CFFF73FFF201C291CFFF7D8
:10148000CFFF201C70BD4388F7B58B4234D9037A57
:10149000150C140A002B05D1E4B20094D4B2EDB2BD
:1014A000A4460BE0FF263540344016405C435E43C3
:1014B0005D43240A360A2D0A0094B446077CC67C94
:1014C0000197019CC768B44203D1032359437F1895
:1014D0000AE089007F18120EBE19002B01D1D3B289
:1014E00001E053431B0A3370037C009EFD54437C90
:1014F0006246FE54837CFA54F7BD10B5047E022C7C
:1015000008D0032C0BD0002C0FD10724641A111C17
:1015100022B20AE00F24A41A0A1C21B205E00F240B
:10152000611A0724A21A09B212B294B2072C10D879
:101530008CB20F2C0DD8012452008C408018211C35
:10154000002B03D0038C1943018402E0038CA343D6
:10155000038410BDF0B596B2072E27D88DB2072DA3
:1015600024D8077E0724022F07D0032F0AD0012F8B
:101570000BD1A41B0A1C21B207E0611BA21B09B2FC
:1015800012B202E0641B111C22B207240731214071
:10159000012452008C408018211C002B03D0038CA6
:1015A0001943018402E0038CA3430384F0BD08B512
:1015B0000368C9B21B68984708BDFFFF70B50B4CA4
:1015C0000D1C017C201CFFF7FBFD261C2B1C0F2D86
:1015D00000D90F23202149420B43D9B2201CFFF729
:1015E000E6FF301CFFF75AFE70BDC046BCFFFF1F70
:1015F00038B50B4D0C1C017C281CFFF7E1FD0322C4
:101600000023A2425B415B421C40640081212143D4
:10161000281CFFF7CCFF281CFFF740FE38BDC04652
:10162000BCFFFF1F38B50D4D041C0174281CFFF7CB
:1016300013FD281C217CFFF7C3FD281C2121FFF787
:10164000B6FF281CFFF72AFE201C0021FFF7D0FF61
:10165000201C0F21FFF7B2FF38BDC046BCFFFF1FA3
:1016600000230022C2520233102BFAD17047FFFF31
:1016700010B508211022041C00F0C6F9024B201CF2
:101680000833236010BDC046E05A000010B50821A1
:101690000A1C041C00F0B8F9024B201C083323601C
:1016A00010BDC046305B000070B50D4D017C061CBE
:1016B000281CFFF785FD281C0021FFF747FC0024AC
:1016C000315D281CFFF773FF315B281C09120234BF
:1016D000FFF76DFF102CF3D1281CFFF7DFFD70BD65
:1016E000BCFFFF1FF0B587B01E1C0CAB071C151C00
:1016F00000201B5E0DAA12880C1C591B0492CA17ED
:1017000089185140321BD01712184240914208DD0F
:10171000321C01211E1C131C221C01912C1C151CA7
:1017200001E000220192B44205DD2A1C1D1C131C9D
:10173000221C341C161C321B92B202925A1BD11767
:10174000501848400590029802B2D10F8A185210E2
:1017500092B200929D4202DA012103911FE0154AE4
:1017600003921CE001983B6800281BD01969381CC3
:101770008C46221C291C049BE04700980599431ABB
:101780009BB29AB2009212B2002A06DA029903982A
:101790005B182D189BB22DB20093013424B2B442D1
:1017A000E0DD05E01A69381C9446211C2A1CE2E79A
:1017B00007B0F0BDFFFF0000704710B50468A468D3
:1017C000A04710BD37B506AC258804680095246B8A
:1017D000A04737BD37B506AC258804680095646B13
:1017E000A04737BD73B506AC0025665F07AC2588FA
:1017F000046800960195A46BA04773BD7047F0B5CF
:1018000085B01F1C0AAB1B88161C03930368013F9D
:10181000DB68041C0D1CBF199847039A23683FB26C
:10182000019200971F6A201C291C321C2B1CB847F0
:101830002368201C5B6A984705B0F0BDF0B585B001
:101840001F1C0AAB1B88041C039303680E1CDB6877
:10185000151C9847039922687B1E019100959B19DE
:10186000176A201C311C2A1C1BB2B8472368201C95
:101870005B6A984705B0F0BDF0B587B003930CAB39
:101880000E1C171C0022995E0DAB1B88049105935A
:101890000368041CDB689847351C039BF218236817
:1018A00095420BDA0599201C00919A69291C9446EF
:1018B000049B3A1C0135E0472DB2EEE75B6A201C21
:1018C000984707B0F0BD37B50A24035F0C25445F85
:1018D0000268019100940021946B0A1CA04737BD57
:1018E000F0B585B002930AAB0E1C00215F5E0BAB16
:1018F0001B88151C0393029B041C02689E420BD19B
:10190000BD4202DD2B1C3D1C1F1C03997B1C5B1B75
:1019100000911BB2176B0EE0BD4211D1029B9E429B
:1019200002DD331C029E0293029B03990133009156
:101930009B1B576B1BB2201C311C2A1CB8470FE0A5
:10194000D3689847039A2368019200971F6A201C66
:10195000029B311C2A1CB8472368201C5B6A9847ED
:1019600005B0F0BDF0B585B01F1C0AAB151C0E1CF0
:101970000022995E0BAB1B88039102930368041C41
:10198000DB689847029923680091DA69201C944625
:10199000311C2A1C3B1CE04702992368039A0091E2
:1019A000D969013A52198C46201C311C3B1C12B2D9
:1019B000E047029A236800929969201C8C462A1CF1
:1019C000311C039BE047029A2368013F0092BE1935
:1019D00031B29F69201C2A1C039BB8472368201C36
:1019E0005B6A984705B0F0BD704703231940017644
:1019F000C3880289012904D0032902D0438182814E
:101A000001E042818381704710B50B4C02818281D5
:101A1000012200230834C1804181514203710460D6
:101A20000376C3810382C2758275818241824276C8
:101A30008376C36110BDC046805B0000F0B58BB0FB
:101A4000069310AB0F1C1B88069901938DB20123DE
:101A50005B1B9BB204936B005B429BB209930368D0
:101A6000041CDB68161C98472368B2B219690292FD
:101A7000AA188C4612B2391C201C019BE04723682F
:101A80000299201C4A1B196912B28C46019B391C11
:101A9000E047BFB22368E919039709B21F69201C08
:101AA000321C019BB847039A2368551B1F6929B252
:101AB000019B201C321CB847002308930899069A02
:101AC0000BB293427FDA04990BB2002B0CDB069B1E
:101AD000013B1AB2099B06920233049A9BB299B257
:101AE0009B189BB209910493089B04999BB20593A0
:101AF0005B000333CB189BB20493039F069B059AAC
:101B000002999BB201375D18D719079323683FB23A
:101B10002DB21E69391C2A1C201C019BB047039E54
:101B2000059A2368013E1969B61A36B28C462A1CFA
:101B3000311C201C019BE047029A079B201CD51AF0
:101B400023682DB219692A1C8C46019B391CE04779
:101B50002368311C1F692A1C201C019BB847029D69
:101B6000079A039B05990135D7184D1923683FB291
:101B70002DB21E69391C2A1C201C019BB047039AF8
:101B8000079B201CD61A236836B219692A1C8C467A
:101B9000019B311CE047029D059A2368013D1969AC
:101BA000AD1A2DB28C46201C391C2A1C019BE04723
:101BB00023682A1C1F69201C311C019BB847089A06
:101BC000013208927AE72368201C5B6A98470BB0C1
:101BD000F0BDF0B58BB0029310AB1B78041C0893DA
:101BE00011AB1B88029807920393012283B2D21A89
:101BF0005B0092B25B4204929BB200220691099371
:101C000005920598029A03B2934200DB9DE0049886
:101C100003B2002B0CDB029B013B1AB2099B029220
:101C20000233049A9BB298B29B189BB2099004931A
:101C3000059B04989BB201935B000333C318089A79
:101C40009BB2049352071CD5069B07989EB285B29F
:101C5000029A23680198711C97B2411818697A1981
:101C600009B212B28446039B201CE0470198236806
:101C70006A1C8218BE191D6931B212B2201C039B66
:101C8000A847089A92071CD5069B07989EB285B272
:101C9000029A23680198711C97B241181869EA1BCF
:101CA00009B212B28446039B201CE04701982368C6
:101CB0006A1E121ABE191D6931B212B2201C039B92
:101CC000A847089A12071CD5069B0298079A9FB24C
:101CD00086B22368019895B26A1C82181869B91BEC
:101CE00009B212B28446039B201CE047019A236884
:101CF000791E891A75191F6909B22AB2201C039B23
:101D0000B847089BDB071CD50698079B029A87B249
:101D10009EB20198236895B2721E121A1869791B37
:101D200009B212B28446039B201CE047019A236843
:101D3000791E891A751B1F6909B22AB2201C039BE0
:101D4000B847059B013305935BE70BB0F0BDF0B5D9
:101D50008DB01E1C12AB171C0B910022995E13ABA9
:101D6000049114AA128800215B5E04990392041C5A
:101D70000A1CB14200DD321C12B2D10F8A18521077
:101D8000151C9A4200DD1D1C23682AB20692201CF5
:101D9000DB6898470B9BA9B29BB26D00CA186D42D5
:101DA0000591ADB211B2B6B2039A089309962368B1
:101DB000AE19009236B20A950791DD69201C3A1CD3
:101DC000331CA847049BBFB29DB27B1EEB189BB28D
:101DD0000493049923680AB20399201C0091D969DD
:101DE000331C8C460799E047059A0A9B0399D7193B
:101DF0005D1923683FB200912DB29E69201C0B999A
:101E00003A1C2B1CB047089E099A013E9619039A6A
:101E1000236800929A69B6B2944631B2201C3A1CEB
:101E20002B1CE04701230093039B201C019307997F
:101E30003A1C069BFFF7CDFE0599039A761A36B237
:101E4000022300930192201C311C3A1C069BFFF7D1
:101E5000C0FE049B0599039A5D1A2DB204230093DA
:101E60000192201C311C2A1C069BFFF7B2FE08239E
:101E70000093039B201C019307992A1C069BFFF7E4
:101E8000A8FE2368201C5B6A98470DB0F0BDF0B532
:101E90008BB0079310AB041C05910021585E11AB69
:101EA0000290069200201A5E12AB1B8808920993DA
:101EB0002368201CDB689847029B00250733DA174C
:101EC000520FD318DB1003932F1C2E1C069A089870
:101ED000BB189BB204933BB2834225DA00210191E7
:101EE000019A029891B20BB2834219DA4A0702D0E2
:101EF0007600F6B203E00798DB104219D65C73B2A5
:101F0000002B0ADA2368059A0498891802B2186926
:101F100009B28446099B201CE04701990131DEE7A4
:101F2000039901376D18D1E72368201C5B6A984735
:101F30000BB0F0BDF0B58BB0079310AB041C05914E
:101F40000021585E11AB0290069200201A5E12AB7F
:101F50001B88089209932368201CDB689847029B22
:101F600000250733DA17520FD318DB1003932F1C09
:101F70002E1C069A0898BB189BB204933BB283426E
:101F800025DA00210191019A029891B20BB28342A5
:101F900019DA4A0702D07600F6B203E00798DB10A0
:101FA0004219D65C73B2002B0ADA2368059A0498AA
:101FB000891802B2186909B28446099B201CE047BF
:101FC00001990131DEE7039901376D18D1E72368E4
:101FD000201C5B6A98470BB0F0BDFFFFF0B595B0D1
:101FE0001E1C1AAB1B88041C09931BAB1F881CAB5F
:101FF0001D781DAB1B780C910393C3690592002BD0
:1020000000D0C3E00A21435E0C9A934200DC4CE10D
:102010000C21435E059A934200DC46E106236B43A4
:102020000C99CB18002B00DC3FE1039A0599D300F3
:10203000CB18002B00DC38E1837E002B03D1AF2EC0
:1020400001D90136F6B22368201CDB6898470523C6
:102050005E4300220E9608930A920A99944A4BB264
:102060000E995218D25C9BB206936B4307920C9A5E
:10207000002196B2F3189BB20D9308230B930491A1
:10208000079AD20721D5049B20685AB2012D0DD1A1
:10209000039901290AD1069B9919059B09B2D21807
:1020A000036912B29C46201C099B23E0039B0D99F7
:1020B0005A4309B20F9105992BB25218039912B2E3
:1020C00009B200910999019123E0099A974225D01C
:1020D000049B20685AB2012D0ED1039901290BD11E
:1020E000069B9919059B09B2D218036912B29C4646
:1020F000201C3B1CE04711E0039B0D995A4309B299
:102100000F9105992BB25218039912B209B200919E
:1021100001974169201C8C460F99E047049B079A60
:102120000133DBB204930B9B5208013BDBB20792F5
:102130000B93002BA4D10A9B0133DBB20A93089BBB
:10214000013BDBB20893002B87D1099B9F4200D152
:10215000A7E02268012D0BD10399012908D105368A
:102160000097956931B2201C059A0823A84798E08A
:10217000052169432BB2039D7618E8000090019772
:10218000556931B2201C059AA8478AE01A7A596825
:10219000B61AF6B2F6008E1932881B68F1781093E1
:1021A0000692B3787279B6790B9311910D920E96CF
:1021B000012D02D8039B012B08D90D990E9A4BB221
:1021C0009BB20A9353B29BB2089302E00023089398
:1021D0000A9323680026DB68201C9847079604961C
:1021E000119AF3B293425CD2059B08999BB2039A71
:1021F0000F93731853430F990027CB189BB2139377
:10220000079B0B9A974245D25A1CD2B21292590799
:1022100007D1069B0699109A0133525C9BB2049237
:10222000069304994BB2002B2CDA2068012D14D1AF
:10223000039A012A11D10D9B0C9A59B20E9B891851
:102240005AB20F9B79189A180369B2189C4609B2C2
:1022500012B2201C099BE04714E00A9A0C9B11B2B1
:10226000C9196943C918139B09B21AB22BB2029358
:10227000039B1BB20093099B01934369201C9C465E
:10228000029BE047049901374B00DBB20493FFB295
:10229000129BB6E7079901368B18DBB20793B6B2EB
:1022A0009EE72368201C5B6A984715B0F0BDC046C6
:1022B000D05B0000F0B5C26987B0041C0B1C002A7B
:1022C0002AD10A2903D1C37DC281DB002BE00D296D
:1022D00074D0417EA57DC07D00290DD00E26A15F62
:1022E00006266E438E190A27E15F8E4204DD218A9D
:1022F000E281C200521822820E22A15E1026A25F45
:10230000668A03900096A68A02950196201CFFF724
:1023100065FEA27D06234DE00A2908D10023C38172
:10232000927AC37D5343228A9B18238246E00D296B
:1023300044D0157AA94241D3517A99423ED35D1BCC
:10234000EDB25768ED007D19A87804900499E878FB
:1023500000292DD000282BD06E79677EB446E07D11
:10236000A67D002F17D00E21675E059767467FB2C6
:10237000BC46049F391C61447143059F7F18BC46CD
:102380000A21675EBC4506DD0021E181927A218A3F
:102390004243521822820E22A15E1027E25F678A12
:1023A00003900097A78A02960197201CFFF716FE5C
:1023B0002A79A37D5343E2899B18E381012007B06A
:1023C000F0BDFFFF024B1A6801321A607047C04629
:1023D000D4FFFF1F10B50B4C23685A0301D500F042
:1023E00015FA23685A0501D501F032FD23681A0554
:1023F00001D501F059FF2368DA04ECD502F0CAF9DF
:10240000E9E7C0463480044008B5FFF7E3FFFFFF6B
:10241000014B00221A607047008104407047FFFFA3
:10242000024A136818181060181C704768FDFF1FD7
:102430000020704701204042704701204042704711
:10244000FEE7FFFFEFF31380002821D1EFF31082A6
:10245000002A1FD1EFF30583002B0FD0101C0F2B88
:102460000ED91A1C103A92080B490320920003401F
:10247000521883401068D840C0B201E0802040006C
:10248000EFF31182002A05D0824203D2101C01E032
:10249000012040427047C04600E400E010B51A2811
:1024A00018D80C2358430C4A835810181C7D027A04
:1024B000224205D0002901D01A710BE01A7209E0FE
:1024C00043681A68002902D003210A4301E002216F
:1024D0008A431A6010BDC046D060000010B51A28AB
:1024E0002CD80C235843164A141863688258247A4F
:1024F000012905D1117D0C431475A22252001CE064
:10250000107DA0431075002902D08A1E012A12D81E
:10251000802252001A60022903D11A6803210A435B
:102520000BE003290AD11A6802210A431A601A68CB
:1025300001218A4301E00422FF321A6010BDC04627
:10254000D060000072B60C4B0C491A680C4B1B682B
:10255000096862B6480104D5322191428941494255
:102560005B18FA20800043430648821A064842431B
:10257000920D98187047C04618E000E004ED00E0A6
:10258000D4FFFF1F7FBB00005555010038B5041C68
:10259000FFF7D8FF051C002C0FD0FFF7D3FF074B28
:1025A000401B984206D9013C002C06D0FA239B0020
:1025B000ED18F2E701F0BCF9EFE738BDE7030000E2
:1025C0001C4B8022D20510B51A60802212061A60B8
:1025D000194B002018601949194B1A4A1960282311
:1025E0001360194A194C1360194A1360194A136091
:1025F000194A1360194A136009222260184C20609E
:10260000184C2160184C2360184C2360184C226031
:10261000184C20601848016018490B6018490B607D
:10262000184B1A6001F0A8F9FA20FFF7AFFF00F08D
:10263000D5FB10BD00E100E004800340FFBF0000B7
:10264000088003400C800340148003400080034056
:102650001C800340248003402C80034034800340CE
:1026600004900340089003400C90034014900340F2
:102670000090034004A0034008A003400CA00340C6
:1026800014A0034000A00340F0B50B4F02223B789A
:102690000A4E1A43D2000A4DB41860602878882484
:1026A000002800D0C82409040C43B4500122504033
:1026B000534028703B70F0BD4000002000F8FF1F21
:1026C000B8000020431E10B5032B0FD872B6084A7D
:1026D00099008858002807D044685B008C50054A50
:1026E00001889C5A611A995262B600E0002010BD20
:1026F00030000020E0080020431E0020032B09D8F2
:1027000072B6054A9B009B58002B02D001305B68D3
:10271000FAE762B67047C0468400002038B572B64A
:102720000123164A9A18013A127811071CD5144A47
:102730005C01A5589900002D05D113190830586087
:10274000104BA3500AE001242143C9008C58002CEF
:102750000AD15318083058600B4B8B500B4B1A782A
:10276000013A1A7062B608E00133052BD9D162B67E
:10277000064B00221A7000F0A5FB38BD486300002C
:1027800000F8FF1F88004000C8004000AE00002095
:10279000421E10B5032A30D8022380001843174B7D
:1027A000C0001B1872B6164CA05C032809D802F0B2
:1027B000B1F8140216050833022011E00833042092
:1027C0000EE01048920014580F4B002C01D111500C
:1027D00001E09858416099500EE0032000E0052088
:1027E000A0540A1C08325A608822180700D5C82253
:1027F000098809040A431A6062B610BD00F8FF1F79
:10280000ECFFFF1F8400002094000020F7B5B549BD
:102810000C780E1CE4B262071DD5B34B1B78002B5D
:1028200016D0B24A1378DBB2002B05D0013BDBB2E5
:102830001370002B00D100BEAD4A1378DBB2002B21
:1028400006D0013BDBB21370002B01D100F060FC1D
:10285000A44D04232B700825221C2A4000D154E2E9
:10286000A44BA54C1B78DBB21E099A08002E00D0A1
:10287000DDE1D50065192F686A68B806000F0138D8
:102880000C2800D9D0E102F04FF893019301CF0159
:10289000CF01CF01CF01CF01CF01AC01CF01CF01DB
:1028A000CF010D0095491368954F526895482960EE
:1028B000954D964900263B607A609BB201222E60BE
:1028C0002661A66102708B4218D8D021C9008B42C4
:1028D00000D3E5E0812191408B4200D1C2E006D8CF
:1028E000802B00D1A9E0822B00D1ABE0F5E0884A33
:1028F000934200D1C5E0A022D20017E085498B4267
:1029000000D152E10DD8882109018B4200D18EE01F
:1029100090221201934200D0DFE0BA78724B1A7015
:1029200009E07D4A934200D1CFE07C4A00269342E1
:1029300000D115E1D1E0A319196A090603D5586A37
:10294000083800F0BFFA0836802EF4D100252E1C7E
:10295000734AA858002805D04368019300F0B2FAE2
:102960000198F7E76E496F4B6F4A4851E850A858F5
:10297000002805D04368019300F0A4FA0198F7E716
:102980006A4B6B4AE8507300D0526749694B485113
:10299000F05C0238032807D801F0BCFF02040204EF
:1029A000002200E001229A5501360435042ECFD1D1
:1029B000614A002313700125161C604BEA18604B16
:1029C0009200EB18013B1B781370190720D500F01B
:1029D0005BFA6B01002805D0E21808305060594AB4
:1029E000E25003E0E05033780133337000F04CFAEA
:1029F0000122AB001343DB00002805D0E2180830A9
:102A000050603E4AE25003E0E050337801333370C7
:102A1000AB0002221A43D2000021A150032213432B
:102A200093400135E150052DC7D10E1C98E02E4B87
:102A3000454C1B78161C237093E0434C267066703F
:102A400002268EE0BB88042B47D83F4C3F4D9B00AD
:102A5000267066705B191B780226334200D180E035
:102A600022707EE0BA887F231340042B35DC7E88F9
:102A7000002E32D135499B005B181A7802218A4317
:102A800029E0BA887F231340042B26DC7E88002EA1
:102A900023D12E4A9B009B181A7802210A431AE080
:102AA0007A88B9882A4B5C68002C16D01888904226
:102AB00009D15888884206D1120A032A01D1267802
:102AC0004FE01E894DE00C33EDE7224B1A68224B94
:102AD0001A60BA78214B1A7042E01C4B0F221A7010
:102AE00063E0C04680200740B7000020410000207E
:102AF000B90000209020074000F8FF1FC8004000E8
:102B0000A4000020B8000020D8FFFF1F81060000AD
:102B100002030000212000002122000021230000E8
:102B200030000020DCFFFF1F840000209400002004
:102B3000E0080020ECFFFF1FAE00002030C80110AD
:102B40004863000088004000AF000020C02007401C
:102B50004C630000D4FFFF1FF0080020C8000020D5
:102B6000341CFB889E4200D91E1C371E402F00D902
:102B70004027201C391CFFF787FDE419F61B03D101
:102B8000351C402F04D010E04025B54200D9351C3B
:102B9000201C291CFFF778FD6419761B01D1402DFC
:102BA00003D1754D754B2C601E800122744B3AE0A9
:102BB000744B1988744B994210D10023D05C73492F
:102BC000C8540133072BF9D10B68862B02D1704B07
:102BD0000F221A700020011CFFF756FD6D4B2B6071
:102BE00022E0654F3D68002D13D064490E88341EE5
:102BF000402C00D94024281C211CFFF745FD361B22
:102C00005E4AB6B21680002E01D1402C00D12E199A
:102C10003E605C4BA0221988D200914204D1002270
:102C20005A709A785C4B1A700122554B61E0D200C1
:102C3000A4186068013E0838F6B22B4036D000F088
:102C400041F95649B0004258554B002A1BD05568EF
:102C50004550111C985D0831616003280BD801F0C4
:102C600059FE02040608032104E0022102E00521C6
:102C700000E0042199558823270700D5C82312882E
:102C8000120413433CE0985D032808D801F042FE8B
:102C900039390204002200E001229A5531E02C402B
:102CA000624262410324A41A9C552AE06288028091
:102CB000002A20D03B4D43804360B3005F593A491E
:102CC000002F01D1585101E0CD586860C850374BF2
:102CD0007600F15A5218F25200F0D6F8002804D0CB
:102CE0000830606021070AD507E0314B20601A7870
:102CF00001321A7005E02C4201D0264B00E02D4B2A
:102D000023602D4A0823137081E5012004421ED060
:102D10001B4902230B70294B264C1A70284B294D56
:102D20001C609C60284C1A61DC609A615D60274BD6
:102D30000D241C70264CFF232370174C3370227017
:102D4000244A1370244B9F221A70087013E063B258
:102D5000002B04DA1D4B0D221A70802333700223DE
:102D60001C4204D01A4A1178C9B211703370102372
:102D70001C4200D03370F7BDD8FFFF1FAC0000200D
:102D800094200740A400002021200000E808002033
:102D900041000020C8004000982007408400002027
:102DA000ECFFFF1F30000020DCFFFF1FE0080020C9
:102DB000AE00002088004000802007404000002036
:102DC00000F8FF1FF0FFFF1F44000020C020074055
:102DD000882007408C2007408420074010B501F070
:102DE0005FFD00221A4B0021D15098180832416033
:102DF000882AF7D1174A80201468C0022043106047
:102E0000180A154AC0B21070180C144AC0B21070DB
:102E1000134A1B0E1370134AFF231370124A1348F0
:102E20001370134A13700122027012480170124984
:102E30000A70124A116899430B1C70210B431360EE
:102E40000F4B802252041A600E4B10221A7010BDD4
:102E500000F8FF1F348004409C200740B02007404A
:102E6000B420074080200740882007409420074076
:102E700010200740002107408420074018E400E0AC
:102E800000E100E00821074038B572B60B4C256818
:102E9000281C01F003FE0B2802D962B600200CE0CA
:102EA00080231B06C3409D43256062B648235843D8
:102EB000034B181800230360436038BD6CFDFF1FEF
:102EC00000FAFF1F10B5041C0E484821201A01F01B
:102ED00035FD0B2815D80C4B1B78002B07D00B4B5E
:102EE0001B78002B03D0201CFFF718FC09E072B6FA
:102EF0008022074B1206C240101C1A68104318604B
:102F000062B610BD00FAFF1FAE000020B70000201F
:102F10006CFDFF1F38B5114C2368002B0CD02068C6
:102F20004288531C8218157A0288934212D3FFF705
:102F3000C9FF002323600EE0094B1B78002B02D150
:102F40000120404208E00320FFF7BCFB206000287E
:102F5000E5D1F5E74380281C38BDC046C4000020F9
:102F6000B700002010B50D4C2368002B03D0236858
:102F7000002B0ED103E00A4B1B78002B02D101205D
:102F8000404209E00320FFF79DFB20600028EED1BE
:102F9000F5E75A889B18187A10BDC046C400002077
:102FA000B7000020054B9888054B1B68002B03D009
:102FB0001A885B88D31AC0187047C046E008002002
:102FC000C4000020F7B5304D0123071C0C1C2B70EA
:102FD000002C56D02D4E3068002827D12C4A019263
:102FE0002C4B1B78DBB2002B03D12B70012040420D
:102FF00049E00420FFF780FB072808D801232B7045
:10300000FFF742FF214B186000280FD1287001986C
:10301000214B01380190002802D01A78002A02D0F2
:1030200001221A70E2E700F083FCD9E71A4B002274
:1030300031681A704B884020C01A0094844200D92D
:103040000090181C009A08309B1808184B800190BB
:10305000A41A00230098834204D0F85C019AD0544B
:103060000133F7E7FF184B883F2B06D940230B802D
:103070000420FFF78DFB00233360084B05221A70F4
:10308000A6E72C70201CFEBDBA000020BC0000206A
:1030900009750000B7000020C0000020B900002022
:1030A00007B56B46D8710733181C0121FFF78AFF5B
:1030B0000EBDFFFFF8B5124B1B78002B1ED0114F31
:1030C000114B3C6801261E70104D002C09D00026C3
:1030D0002E70638804202380211CFFF759FB3E607B
:1030E00009E0FFF7D1FE011E04D004202C70FFF789
:1030F0004FFB00E02E70044A00231370F8BDC04659
:10310000B7000020BC000020BA000020B900002059
:1031100038B50E4B1D78EDB2002D15D10C4C216841
:10312000002906D04B8804200B80FFF731FB256077
:103130000AE0FFF7A9FE011E03D00420FFF728FBD9
:1031400002E0044B01221A7038BDC046BA000020CC
:10315000BC000020B900002008B50368C9B21B6894
:10316000984708BD08B50368C9B21B68984708BDF1
:1031700008B50368C9B21B68984708BD08B503685D
:10318000C9B21B68984708BD08B5044B4808C01869
:1031900001F0D4FB00F060FC08BDC046C0C62D00A5
:1031A00010B5064B4808C018141C01F0C7FB00F00E
:1031B00053FC201C00F0A4FC10BDC046C0C62D006E
:1031C00008B500F0C5FC08BD08B5081C00F0FAFC05
:1031D00008BD08B5081C00F017FD431E9841C0B299
:1031E00008BD08B5081C00F035FD431E9841C0B26B
:1031F00008BD08B500F0B8FD08BD08B500F0F6FD43
:1032000008BD08B500F0C0FD08BD08B500F08EFD92
:1032100008BD08B500F006FE08BD08B500F092FD37
:1032200008BD08B5081C00F017FD012008BD08B551
:10323000081C00F011FD012008BD10B5081C141C6D
:10324000111C00F067FD201C10BD38B5081C0D1CBA
:1032500001F0A4FD041C211C281C00F05BFD201CB7
:1032600038BD7047044B00221A711A73FA21034AC1
:10327000890099601A607047CC000020206200002D
:1032800008B50368C9B21B68984708BD08B503684C
:10329000C9B21B68984708BD08B50368C9B21B6866
:1032A000984708BD08B50368C9B21B68984708BDB0
:1032B00008B5044B4808C01801F040FB00F040FE80
:1032C00008BDC04660E3160010B5064B4808C0189C
:1032D000141C01F033FB00F033FE201C00F094FEC0
:1032E00010BDC046C0C62D0008B500F0B5FE08BD33
:1032F00008B5081C00F0EAFE08BD08B5081C00F07F
:1033000007FF431E9841C0B208BD08B5081C00F075
:1033100025FF431E9841C0B208BD08B500F050FF1C
:1033200008BD08B500F08EFF08BD08B500F058FFD5
:1033300008BD08B500F026FF08BD08B500F09EFFE7
:1033400008BD08B500F02AFF08BD08B5081C00F04C
:1033500012FF012008BD08B5081C00F00CFF012079
:1033600008BD10B5081C141C111C00F0F9FE201C2F
:1033700010BD38B5081C0D1C01F010FD041C211CEB
:10338000281C00F0EDFE201C38BD7047044B0022C5
:103390001A711A73FA21034A890099601A607047FA
:1033A000DC0000207862000008B50368C9B21B6821
:1033B000984708BD08B50368C9B21B68984708BD9F
:1033C00008B50368C9B21B68984708BD08B503680B
:1033D000C9B21B68984708BD08B5044B4808C01817
:1033E00001F0ACFA00F0F0FF08BDC04660E3160043
:1033F00010B5064B4808C018141C01F09FFA00F0E5
:10340000E3FF201C01F028F810BDC04660E3160061
:1034100008B501F049F808BD08B5081C01F07EF8B0
:1034200008BD08B5081C01F09BF8431E9841C0B2C6
:1034300008BD08B5081C01F0B9F8431E9841C0B298
:1034400008BD08B501F032F908BD08B501F070F902
:1034500008BD08B501F03AF908BD08B501F008F952
:1034600008BD08B501F080F908BD08B501F00CF9F8
:1034700008BD08B5081C01F09BF8012008BD08B57F
:10348000081C01F095F8012008BD10B5081C141C9B
:10349000111C01F0E1F8201C10BD38B5081C0D1CF2
:1034A00001F07CFC041C211C281C01F0D5F8201C18
:1034B00038BD7047044B00221A711A73FA21034A6F
:1034C000890099601A607047EC000020D06200000B
:1034D00008B5FDF701F8FDF7ADF900F029FAFAE7B4
:1034E000F8B5061C0C1C8F180025BC4207D03368A9
:1034F00021781B68301C984701342D18F5E7281CEB
:10350000F8BDF0B500258DB08C68061C0F1C019528
:10351000002C14D02122381C03A92B1C00F0CCF95C
:10352000221E202A00D920223368301C5B6803A9A0
:10353000AD18A41A9847019B1B180193E8E701985E
:103540000DB0F0BD37B50224051C221C01A80549A9
:1035500001F020FB2B68281C5B6801A9221C9847FE
:103560003EBDC0462063000008B503685B6898470D
:10357000002008BD0EB403B503AA08CA191C0192A5
:1035800001F05CFC02B008BC03B01847F0B585B090
:103590006B460E338EB2144C0D0C013666436C43F1
:1035A000A5B2370CAE19F619250C2C19360CA51935
:1035B0006D080A266E43891B30311C1C1970013BB3
:1035C000002D01D0291CE5E7211C002A03D01C1C7A
:1035D0002D224B1E1A70036804A9E24352185B683F
:1035E000211C984705B0F0BD33330000002208B518
:1035F000914201DA49422D22FFF7C8FF08BD37B5D5
:103600006A460B1C07320F241C40251C111C373541
:10361000092C00D8073D15701B09013A002BF2D187
:10362000036802AC621A5B6898473EBD10B588B06B
:103630006A460B1C1F3201241C403034111C1470CC
:103640005B08013A002BF6D1036808AC621A5B688C
:10365000984708B010BDF0B587B0061C0D1C171CAC
:1036600005AC281C391C01F069F9031C7B43ED1AD9
:10367000EDB2211C092D01D8303500E03735EDB20F
:103680002570013C002801D0051CEAE7336806A834
:10369000421A033A5B68301C984707B0F0BDFFFF41
:1036A0000A4B70B51D68041C1E1C2368201CDB68B7
:1036B0009847002808DA00F03BF93368A2685B1BE2
:1036C0009342F2D30120404270BDC046D4FFFF1F99
:1036D0008160704770B5041C0D1C0021161C00F0A1
:1036E00083F8A368B3420ED2281CFFF7D9FF002845
:1036F00002DA01232B7306E0002804D0C1B2201C9B
:1037000000F0ABF8F0E7201C70BD08B5FFF74AFCED
:1037100008BD08B5FFF7FEFB08BD08B5FFF722FCA2
:1037200008BD08B5FFF7C6FC08BD08B5081CFFF7C3
:10373000B7FC08BD08B5081C111CFFF743FC08BD09
:103740007047FFFF044B00221A711A73FA21034AD3
:10375000890099601A607047FC0000203063000007
:1037600010B5041C006801F00BFA201C10BD38B520
:10377000041C0D1C0068013101F0E0FA002801D0A2
:1037800021C4012038BD436810B5041C8B4208D207
:10379000FFF7EDFF002805D0A368002B01D12268B8
:1037A0001370012010BDF8B5041C0F1C151E05D1A7
:1037B0000368002B00D01A7000230DE0111CFFF7E6
:1037C000E2FF061C2068002E08D1002802D001F07C
:1037D000D7F9266000236360A36003E0A560391C6D
:1037E00001F0D4FA201CF8BD38B50023041C0D1CD0
:1037F0000360436083600373994207D0081C01F0A3
:10380000CDFA291C021C201CFFF7CDFF201C38BD5F
:1038100038B5051C0C1E08D0081C01F0BFFA211C8D
:10382000021C281CFFF7BFFF00E0A960281C38BD60
:1038300070B5041C0E1C8568002A0CD05519291C73
:10384000FFF7A1FF002806D02268A368311CD0181A
:1038500001F09CFAA560201C70BD13B5002201ABDD
:10386000041C19705A70191C0122FFF7E1FF201C7B
:1038700016BD08B58368002B05D1002901D0087852
:1038800008E0012009E00068002901D1007801E08A
:1038900001F072FA43425841C0B208BD83689942B0
:1038A00003D203685818002B02D10248002303708A
:1038B0007047C0460C01002038B50D1C002A14D0FA
:1038C000002912D081688B4202D300232B700CE0B8
:1038D000541EC91A8C4200D90C1C0168221CC9183C
:1038E000281C01F062FA00232B5538BDF8B5041CE2
:1038F0000E1C9A4202D9111C1A1C0B1C0021A1603B
:10390000216061602173B1688A420FD81D1E8D420B
:1039100000D90D1C3168201C4B1900211F7819702B
:1039200033689918FFF774FF33685F55201CF8BDA2
:1039300010B5104C2378002B1BD101232370FFF707
:1039400031FB002801D0FFF7FBFE00F00DFA002844
:1039500001D0FFF786FC00F033FC002801D0FFF710
:1039600014FD00F0A3FE002801D0FFF7A2FD002304
:10397000237010BD0D0100201B4B1C4A19781C4BF5
:10398000082901D1002102E00A2903D13821116060
:10399000132206E00C2901D1342100E03C21116002
:1039A00012221A60134B1A78134B002A01D00022FE
:1039B00000E001221A60114B1A78114B012A01D83C
:1039C00080220CE0042A01D8842208E0082A01D8C9
:1039D000852204E0102A01D8862200E087221A609E
:1039E000084B01221A70704770FDFF1F08B003409A
:1039F0000CB003400F01002020B0034071FDFF1FF9
:103A000024B003400E010020F8B5061C0D1C171C45
:103A10000024301C391C00F0D5FF092901D83031B1
:103A200000E03731C9B22955301C391C00F086FF3F
:103A3000061E01D00134ECE72B1958702B1C5A1BC1
:103A4000A24206DA1A78295D19702A550133013C21
:103A5000F5E7281CF8BDFFFF1C4B80221968D20037
:103A60000A431A601A4B00221A801A4B1A491A800C
:103A70001A4B1A701A4B1A701A4B1A701A4B19609B
:103A80001A4BD12189001960194BC104C90EC0B26B
:103A9000197058709A702C22DA70164A1278002A1F
:103AA00007D09978A0220A439A709A7920218A43F4
:103AB0009A71114BFF22196891430A1C40210A4355
:103AC0001A600E4B802252011A6070473480044005
:103AD0005A03002016010020130300006403002095
:103AE0005C0300201401002040A0044044A00440D6
:103AF00000A006405D0300200CE400E000E100E0CF
:103B000010B5124B132299789143032202400A43C5
:103B1000410701D510210A439A700F220B49024038
:103B2000042A03D18A79402422438A715A791021C8
:103B30008A43084200D00A435A719A7910218A4375
:103B4000840600D50A439A7110BDC04600A0064005
:103B500008B5124B1B685A051ED5114B1B78DBB2FA
:103B6000002B02D0FFF7E4FEF7E70E4A802149015F
:103B700011600D4A0D49D3700422FF320A600C49CE
:103B80000A600C4A13800C4A13800C4B1B68002BF4
:103B900002D00B4A12781A7108BDC0463480044026
:103BA0001401002080E100E000A0064040A0044095
:103BB00044A004405A0300201601002010010020F8
:103BC000D801002038B5041C0B4B1D78EDB2002D38
:103BD000FAD1201C0121FEF781FC291C201CFEF7D4
:103BE0005DFC0C225443054B054AE1581C19116039
:103BF000044B227A1A7038BD14010020D0600000F6
:103C0000600300205903002038B50E4B1A680023CA
:103C1000510514D50C4C1A2810D80C2343430B4AD9
:103C20000B4D9958D3181B7A216001212B70FEF798
:103C300055FC23682A781A72012300E02360181CBF
:103C400038BDC0463480044010010020D060000020
:103C5000D801002000207047F8B5254B071C1B68D1
:103C60005A0544D5234B1B68002B02D0224A1278F8
:103C70001A71224B1B78002B04D0214B20219A79FA
:103C80000A439A711F4E00233478BF220134A242A6
:103C90005B415B421C401C4D2B78A3421CD1FEF7BC
:103CA000D1FB402813DC164A13795BB2002BF2DA01
:103CB0002B7800210133BF209842494149420B40F3
:103CC0001249C95CDBB2C9B2D1712B70E3E7FF289E
:103CD000E1DDFFF72DFEDEE70C4BFFB21F550C4B6D
:103CE00001221A70064BE4B2AC223470DA70F8BDCF
:103CF0003480044060030020590300205D0300204D
:103D000000A00640640300205C030020180100208E
:103D10001401002038B5041C4518AC4204D02078AA
:103D2000FFF79AFF0134F8E738BDFFFF08B5044BF1
:103D30001B78002B02D0FFF7FBFDF8E708BDC0465B
:103D400014010020064B074A1B781078DBB2C0B282
:103D5000834201D3BF3000E00138C01A7047C0462B
:103D6000640300205C030020054B1888054B80B2DB
:103D70001B889BB2984201D28130FF30C01A704735
:103D80005A03002016010020134B14491A880B888F
:103D900092B29BB210B59A421BD080240133FF34FB
:103DA00000209C424041404203400D489CB2C05C10
:103DB0000C800C49C0B2096800290CD09A4201D28B
:103DC0008132FF32D31A1A2B05DC074B1B780B729A
:103DD00001E00120404210BD5A03002016010020DE
:103DE000D901002010010020D80100200A4B1A88B8
:103DF0000A4B1B889BB29A420BD0802101330022D0
:103E0000FF319942524152421340054AD05CC0B240
:103E100001E00120404270475A03002016010020B3
:103E2000D9010020064B1A88064B92B21A80064B25
:103E30001B68002B02D0054A12781A727047C046E0
:103E4000160100205A03002010010020D801002094
:103E500030B52F4B1A79910613D52E49DC790A8893
:103E6000802501320020FF3595424041404202400A
:103E70002948E4B20088824203D02848845492B290
:103E80000A80D978224CC9B24AB2002A1ADA2279B9
:103E900052B2002A16DA224A224815780278D2B2A3
:103EA000954202D16C22E2700CE001320024BF2561
:103EB00095426441644222401B4CA45CD2B2E4B2FD
:103EC000DC710270987C0422104206D017480478F6
:103ED0000134E4B204700E4882744022114216D0BC
:103EE0001979114213D0124A00211170114A126837
:103EF0008A4202D0104909781172104A1278002AB9
:103F000003D09A7920218A439A712C22DA7030BD2D
:103F100000A006405A03002016010020D90100200D
:103F2000640300205C03002018010020F408002036
:103F30001401002060030020590300205D030020CD
:103F4000214B8022196812010A4310B51A601F4ADA
:103F5000002313801E4A13801E4A13701E4A1370DA
:103F60001E4A13701E4A13701E4B19781A1C1E4BE2
:103F7000002901D01D4904E01D491E4C0C60D121CF
:103F8000890019601C4BC104C90E1970C0B2002110
:103F9000587099702C21D9701278002A07D099781E
:103FA000A0220A439A709A7920218A439A71134B6E
:103FB000134A19680A408021C9010A431A60114B4B
:103FC000802292011A6010BD34800440AC050020AC
:103FD00066030020BC050020B40500206803002013
:103FE000B50500206903002010B00440470300001D
:103FF0000CB004401303000000B006400CE400E0E5
:10400000FF00FFFF00E100E010B5124B132299788A
:104010009143032202400A43410701D510210A437C
:104020009A700F220B490240042A03D18A79402456
:1040300022438A715A7910218A43084200D00A43E8
:104040005A719A7910218A43840600D50A439A71DD
:1040500010BDC04600B0064008B5124B1B681A05DB
:104060001ED5114B1B78DBB2002B02D0FFF760FC92
:10407000F7E70E4A8021890111600D4A0D49D3707E
:104080000422FF320A600C490A600C4A13800C4A71
:1040900013800C4B1B68002B02D00B4A12781A714C
:1040A00008BDC046348004406803002080E100E081
:1040B00000B006400CB0044010B00440AC05002035
:1040C00066030020B00500202A04002038B5041C37
:1040D0000B4B1D78EDB2002DFAD1201C0121FEF70B
:1040E000FDF9291C201CFEF7D9F90C225443054B7D
:1040F000054AE1581C191160044B227A1A7038BD28
:1041000068030020D0600000B8050020AB05002047
:1041100038B50E4B1A680023110514D50C4C1A281B
:1041200010D80C2343430B4A0B4D9958D3181B7AD4
:10413000216001212B70FEF7D1F923682A781A72C9
:10414000012300E02360181C38BDC04634800440C1
:10415000B0050020D06000002A0400200020704735
:1041600038B5041C4518AC4204D0207800F003F8A0
:104170000134F8E738BD07B50121019001A8FFF728
:10418000EFFF07BD08B5044B1B78002B02D0FFF7EB
:10419000CFFBF8E708BDC04668030020064B074A7E
:1041A0001B781078DBB2C0B2834201D3BF3000E08D
:1041B0000138C01A7047C046BC050020B405002075
:1041C000054B1888054B80B21B889BB2984201D2E0
:1041D0008130FF30C01A7047AC0500206603002014
:1041E000134B14491A880B8892B29BB210B59A42AD
:1041F0001BD080240133FF3400209C4240414042C8
:1042000003400D489CB2C05C0C800C49C0B20968E8
:1042100000290CD09A4201D28132FF32D31A1A2BD4
:1042200005DC074B1B780B7201E00120404210BDFA
:10423000AC050020660300202B040020B005002000
:104240002A0400200A4B1A880A4B1B889BB29A4208
:104250000BD0802101330022FF319942524152425A
:104260001340054AD05CC0B201E0012040427047D3
:10427000AC050020660300202B040020064B1A88A2
:10428000064B92B21A80064B1B68002B02D0054ADF
:1042900012781A727047C04666030020AC050020F1
:1042A000B00500202A04002030B53A4B1A79910657
:1042B00013D53949DC790A88802501320020FF3581
:1042C00095424041404202403448E4B20088824274
:1042D00003D03348845492B20A80D8782D49C0B2B2
:1042E00042B2002A20DA0A7952B2002A1CDA2D4A98
:1042F0002D4C15782278D2B2954208D12B4A1278EB
:10430000002A01D02C2200E06C22CA700CE001329D
:104310000021BF259542494149420A402449895C10
:10432000D2B2C9B2D9712270997C0422114206D04E
:1043300020490C780134E4B20C7016498A7440228A
:10434000104226D018791349104222D0174A127809
:10435000D2B2002A01D02C2306E012480478124879
:104360000078844202D0AC23CB7012E012490A706C
:10437000124A1268002A02D0114909781172114AB2
:104380001278002A03D09A7920218A439A712C222C
:10439000DA7030BD00B00640AC0500206603002096
:1043A0002B040020BC050020B4050020B50500202A
:1043B0006A030020F508002068030020B8050020EB
:1043C000AB05002069030020164B802219685201BA
:1043D0000A431A60144A00231380144A14491380B4
:1043E000144A1380144A1380144A1370144A11603B
:1043F000144AD12189001160134AC104C90EC0B208
:104400001170507093702C23D370104B104A1968A0
:104410000A408021C9030A431A600E4B8022D20150
:104420001A60704734800440CA080020C605002086
:1044300013030000D4080020CC080020C40500208D
:1044400008C004400CC0044000C006400CE400E07A
:10445000FFFF00FF00E100E010B5124B1322997836
:104460009143032202400A43410701D510210A4328
:104470009A700F220B490240042A03D18A79402402
:1044800022438A715A7910218A43084200D00A4394
:104490005A719A7910218A43840600D50A439A7189
:1044A00010BDC04600C0064008B5124B1B68DA04B8
:1044B0001ED5114B1B78DBB2002B02D0FFF738FA68
:1044C000F7E70E4A8021C90111600D4A0D49D370EA
:1044D0000422FF320A600C490A600C4A13800C4A1D
:1044E00013800C4B1B68002B02D00B4A12781A71F8
:1044F00008BDC04634800440C405002080E100E0CF
:1045000000C0064008C004400CC00440CA08002097
:10451000C6050020C00500204807002038B5041C4F
:104520000B4B1D78EDB2002DFAD1201C0121FDF7B7
:10453000D5FF291C201CFDF7B1FF0C225443054B6D
:10454000054AE1581C191160044B227A1A7038BDD3
:10455000C4050020D0600000D0080020C908002059
:1045600038B50E4B1A680023D10414D50C4C1A2808
:1045700010D80C2343430B4A0B4D9958D3181B7A80
:10458000216001212B70FDF7A9FF23682A781A7298
:10459000012300E02360181C38BDC046348004406D
:1045A000C0050020D06000004807002000207047B0
:1045B000F8B5214B071C1B68DA043CD51F4B1B6860
:1045C000002B02D01E4A12781A711E4B80261C88BE
:1045D000FF3601340023A6425B415B421C401A4D6A
:1045E0002B88A3421BD1FDF72DFF402812DC174A70
:1045F00013795BB2002BF2DA2B88002101339E4243
:10460000494149420B401249C95C9BB2C9B2D171C0
:104610002B80E4E7FF28E2DDFFF78AF9DFE70C4BA8
:10462000FFB21F550B4B01221A70064BA4B21C801F
:10463000064BAC22DA70F8BD34800440D00800206C
:10464000C9080020D4080020CC08002000C0064083
:10465000C8050020C405002038B5041C4518AC422C
:1046600004D02078FFF7A4FF0134F8E738BDFFFF3E
:1046700008B5044B1B78002B02D0FFF759F9F8E777
:1046800008BDC046C4050020064B074A1B88108899
:104690009BB280B2834202D38030FF3000E0013809
:1046A000C01A7047D4080020CC080020054B188899
:1046B000054B80B21B889BB2984201D28130FF30FB
:1046C000C01A7047CA080020C6050020134B1449C1
:1046D0001A880B8892B29BB210B59A421BD08024E4
:1046E0000133FF3400209C424041404203400D48CA
:1046F0009CB2C05C0C800C49C0B2096800290CD087
:104700009A4201D28132FF32D31A1A2B05DC074BB1
:104710001B780B7201E00120404210BDCA08002046
:10472000C605002049070020C005002048070020DA
:104730000A4B1A880A4B1B889BB29A420BD08021E5
:1047400001330022FF319942524152421340054A3F
:10475000D05CC0B201E0012040427047CA0800208E
:10476000C605002049070020064B1A88064B92B266
:104770001A80064B1B68002B02D0054A12781A7269
:104780007047C046C6050020CA080020C0050020AA
:104790004807002030B5354A1379990626D53449A3
:1047A000D4790B88802501330020FF359D4240419C
:1047B000404203402F48E4B20088834203D02E4891
:1047C000C45498B208802D49086800280ED02C499E
:1047D000098889B28B4201D35B1A02E05B1A8133EC
:1047E000FF33272B02DD274B1B780371D1781F4C39
:1047F000C9B24BB2002B1BDA23795BB2002B17DA5C
:10480000214B1F481D8803889BB29D4202D16C2317
:10481000E3700DE0802501330024FF359D426441A3
:1048200064422340194CE45C9BB2E4B2D47103802F
:10483000907C0423184206D0154804780134E4B271
:1048400004700A488374402319420ED0117919422A
:104850000BD0104B002119700F4B1B688B4202D0FC
:104860000E49097819722C23D37030BD00C0064060
:10487000CA080020C605002049070020C005002006
:10488000CC08002048070020D4080020C8050020DC
:10489000F6080020C4050020D0080020C908002028
:1048A0001FB572B6154B70221A70154A412111704E
:1048B000144A0F21117080221A701A7852B2002AFD
:1048C000FBDA114B186862B6104B984201D80A23E4
:1048D000584301AC211C0A22FFF796F80023E15C43
:1048E0000B4A002905D058001018013341800A2BCB
:1048F000F5D101335B0013701FBDC04600000240BC
:104900000700024006000240080002407F9698001F
:10491000FAFDFF1F02B4714649084900095C4900CD
:104920008E4402BC7047C04603B47146490840003B
:104930004900095A49008E4403BC7047002934D00D
:104940000123002210B488422CD301242407A14261
:1049500004D2814202D209011B01F8E7E400A1421E
:1049600004D2814202D249005B00F8E7884201D3B9
:10497000401A1A434C08A04202D3001B5C08224391
:104980008C08A04202D3001B9C082243CC08A04202
:1049900002D3001BDC082243002803D01B0901D0EE
:1049A0000909E3E7101C10BC7047002801D0002063
:1049B000C04307B4024802A14018029003BDC0469C
:1049C000D90000000029F0D003B5FFF7B9FF0EBCF5
:1049D0004243891A1847C046002941D010B4041C2C
:1049E0004C40A44601230022002900D5494200285A
:1049F00000D5404288422CD301242407A14204D28E
:104A0000814202D209011B01F8E7E400A14204D26D
:104A1000814202D249005B00F8E7884201D3401A84
:104A20001A434C08A04202D3001B5C0822438C08A6
:104A3000A04202D3001B9C082243CC08A04202D310
:104A4000001BDC082243002803D01B0901D0090900
:104A5000E3E7101C6446002C00D5404210BC7047B0
:104A6000002806D003DB0020C043400801E080207E
:104A7000000607B4024802A14018029003BDC046D8
:104A8000190000000029EBD003B5FFF7A7FF0EBC0B
:104A90004243891A1847C0467047C0461C2101236B
:104AA0001B04984201D3000C10391B0A984201D311
:104AB000000A08391B09984201D30009043902A2EF
:104AC000105C40187047C046040302020101010156
:104AD000000000000000000008B5031C081C191CA1
:104AE00000F00EF808BDFFFF08B50A1C0349031CBF
:104AF0000868191C00F078F808BDC04670FEFF1F5A
:104B000038B5051C05480C1C131C002804D00220D5
:104B1000291C221C00E000BF38BDC0460000000078
:104B200070B50E4B0E4D0024ED1AAD101E1CAC429C
:104B300004D0A300F35898470134F8E701F07EFC55
:104B4000084B094D0024ED1AAD101E1CAC4204D0D8
:104B5000A300F35898470134F8E770BD486400009B
:104B600048640000486400006464000008B5034B1A
:104B7000011C186800F08EF808BDC04670FEFF1FCB
:104B800008B5034B011C186800F03CF808BDC0468E
:104B900070FEFF1F10B50023934203D0CC5CC454B9
:104BA0000133F9E710BD70B5814201D300230CE059
:104BB0008C18A042FAD28518131C013B0BD351422A
:104BC0006618F65C6918CE54F7E7934203D0CC5CC4
:104BD000C4540133F9E770BD031C8218934202D01C
:104BE00019700133FAE7704738B5151C4D43291C7D
:104BF00000F050F8041E03D000212A1CFFF7ECFF40
:104C0000201C38BD30B5002940D004390B68002B7A
:104C100000DAC9181E4A1368141C002B02D14B601D
:104C2000116033E099420FD208680A189A4205D100
:104C300013685268C01808604A6000E04B60216049
:104C400024E08A4203D8131C5A68002AF9D11D684F
:104C50005C198C420BD10968691858181960904288
:104C600014D114685268091919605A600EE08C4218
:104C700002D90C23036009E008680C18944203D1A0
:104C800014685268001908604A60596030BDC04617
:104C9000DC08002070B50323CD1C9D430835061C9D
:104CA0000C2D01D20C2501E0002D3FDB8D423DD3C0
:104CB000204B1C681A1C211C002913D00868431BB8
:104CC0000DD40B2B02D90B60CC181EE08C4202D104
:104CD000636813601AE0486860600C1C16E00C1CE6
:104CE0004968E9E7144C2068002803D1301C00F023
:104CF00031F82060301C291C00F02CF8431C15D022
:104D0000C41C03239C4384420AD12560201C0B3021
:104D10000722231D9043C31A0BD05A42E25008E0E9
:104D2000211A301C00F016F80130EED10C2333604C
:104D3000002070BDDC080020D808002008B50A1C3F
:104D40000349031C0868191C00F05EF908BDC04641
:104D500070FEFF1F38B5074C0023051C081C23609C
:104D6000FDF75EFB431C03D12368002B00D02B60B2
:104D700038BDC046F808002002780B7801300131B8
:104D8000002A01D09A42F7D0D01A7047031C0A7843
:104D900001311A700133002AF9D170470023C25C37
:104DA0000133002AFBD1581E704730B5031C002A7E
:104DB00007D00C7801335D1E013A2C700131002CB4
:104DC000F5D19A18934203D0002119700133F9E705
:104DD00030BDFFFFF0B5184C0E1CA5440393802393
:104DE0009B00041C171C0593002804D08369002B2A
:104DF00001D100F099F8039B06AD0093201C3B1CE9
:104E0000291C05AA00F072F9071E0ED0201C311CC7
:104E10003A1C059B00F020F80590AF4203D0201CFF
:104E2000391CFFF7EFFE059801E00120404287237F
:104E30009B009D44F0BDC046E4FDFFFF38B5131C48
:104E4000044A051C0C1C1068291C221CFFF7C2FF19
:104E500038BDC04670FEFF1F38B5084C051C002049
:104E60002060081C111C1A1CFEF77EFB431C03D19A
:104E70002368002B00D02B6038BDC046F808002006
:104E8000F8B5041C071C4834002C12D0A5686668CD
:104E9000013E0CD4AB89012B07D90E22AB5E013346
:104EA00003D0381C291C00F0EFF96835F0E72468BE
:104EB000EAE7F8BD002310B5041C0360436083607B
:104EC00081814366C281036143618361191C0822A9
:104ED0005C30FFF781FE054B24626362044BA362E2
:104EE000044BE362044B236310BDC04655500000E1
:104EF0007D500000B5500000E150000070B54B1E21
:104F000068255D430E1C291C7431FFF7C3FE041E87
:104F100008D00021016046602A1C0C30A060683275
:104F2000FFF75AFE201C70BD836913B5041C002BCB
:104F300027D18364C3640365124B134A1B688262E2
:104F4000984201D101238361201C00F01FF86060AA
:104F5000201C00F01BF8A060201C00F017F80421B2
:104F6000E06000226068FFF7A5FFA0680921012228
:104F7000FFF7A0FFE06812210222FFF79BFF012349
:104F8000A36113BDA4630000814E0000F8B51D4B62
:104F9000071C1E68B269002A02D1301CFFF7C4FF4B
:104FA0004836B4687368013B05D40C22A55E002D19
:104FB00010D06834F7E73368002B06D1381C042181
:104FC000FFF79CFF3060002801D03668E9E70C232A
:104FD0003B6016E001235B42E381201C0123A38197
:104FE00065662560A560656025616561A5615C30C9
:104FF000291C0822FFF7F0FD6563A563A564E5643D
:10500000201CF8BDA4630000F8B5061C0C1C151C80
:10501000002904D1111CFFF73DFE041C18E0002AF2
:1050200003D1FFF7EFFD2C1C12E000F06DF9A84250
:105030000ED2301C291CFFF72DFE071E07D0211CA5
:105040002A1CFFF7A7FD301C211CFFF7DBFD3C1CD1
:10505000201CF8BD38B50C1C0E25495F00F05EF928
:10506000002803DB626D1318636503E0A289024B1D
:105070001340A38138BDC046FFEFFFFFF8B51E1CEB
:105080008B89051C0C1C171CDA0505D50E23C95E7F
:105090000022022300F024F9A289054B281C1340AA
:1050A000A3810E22A15E331C3A1CFFF7D5FEF8BD8A
:1050B000FFEFFFFF38B50C1C0E25495F00F010F91B
:1050C000A389421C03D1054A1340A38104E0802236
:1050D00052011343A381606538BDC046FFEFFFFF57
:1050E00008B50E23C95E00F033F808BD70B5151C75
:1050F0009AB01468002906D0002C04D0C122D20036
:105100006E46B28105E0A2226946920000248A819F
:10511000211C00910491002C03DA8B2303600020F2
:1051200013E0012252426E46F28169461A1C1E9B10
:105130000294059400F066F90023984204DB00997C
:1051400028600B70049800E0181C1AB070BDFFFFB7
:1051500038B5074C0023051C081C2360FDF76AF9CD
:10516000431C03D12368002B00D02B6038BDC04600
:10517000F8080020F7B58B89051C0C1C19075ED4B4
:105180006268002A02DC276C002F1ADDE76A002F14
:1051900017D000222E682A60802252011A4001D0C6
:1051A000626D15E0281C216A0123B847021C411CCE
:1051B0000ED12B68002B0BD01D2B01D0162B02D14A
:1051C0002E6000205EE0A38940210B43A38159E0BB
:1051D000A3895F0706D56168636B521A002B01D063
:1051E000276CD21B281C216A0023E76AB847A289D2
:1051F000411C06D12B68002B03D01D2B01D0162B90
:1052000019D10023636023692360D70405D5411CAD
:1052100002D12A68002A00D16065616B2E600029E6
:10522000CFD0231C4433994202D0281CFFF7EAFC5C
:105230000020606326E040231A43A28122E0266911
:10524000002EBED027680022BF1B01972660990759
:1052500000D16269A260019F002FB2DD281C216A83
:10526000321C019BA76AB847002806DCA3894022AC
:1052700013430120A381404204E0019F36183F1AE6
:105280000197E8E7FEBDFFFF0A6938B5051C0C1C55
:10529000002A01D100201CE0002804D08369002BE3
:1052A00001D1FFF741FE0B4B9C4201D16C6808E035
:1052B000094B9C4201D1AC6803E0084B9C4200D1F1
:1052C000EC680C22A35E002BE4D0281C211CFFF705
:1052D00051FF38BDA8630000C8630000E863000008
:1052E00038B5084C051C00202060081C111C1A1C35
:1052F000FDF7A3F8431C03D12368002B00D02B60DB
:1053000038BDC046F808002004390B68181F002B70
:1053100002DAC8581B18181F7047FFFF38B5084C31
:10532000051C00202060081C111C1A1CFDF780F8C9
:10533000431C03D12368002B00D02B6038BDC0462E
:10534000F8080020F0B58D6885B0071C0C1C03928E
:105350000193AB4245D390228B89D20013423DD0BA
:1053600062690326564309692068F20F401A9619AC
:105370000290021C0198013212187610964200D257
:10538000161C381C5A050FD5311CFFF783FC051E6F
:1053900013D0029A2169FFF7FDFBA289184B134035
:1053A00080221343A38111E0321CFFF72DFE051E5E
:1053B0000CD1381C2169FFF725FC0C233B60A38925
:1053C000402213430120A381404217E0029B256144
:1053D000ED1825606661019DF61AA6600198A84245
:1053E00000D2019D2A1C20680399FFF7DCFBA2680C
:1053F0000020531BA36023685D19256005B0F0BD34
:105400007FFBFFFFF0B59FB0039005938B890E1CC7
:10541000171C19060FD53269002A0CD14021FFF75D
:1054200039FC30603061002803D103990C230B60F4
:10543000C9E04023736106AD00236B6120236B76C6
:105440003023AB763C1C2378002B03D1E21B029265
:1054500011D003E0252BF9D00134F4E70398311C77
:105460003A1C029BFFF76EFF013000D1A6E069698C
:10547000029A8B186B612378002B00D19EE00122E9
:1054800052426A606A4600235B3201342B60EB6053
:10549000AB601370AB654E4F2178381C052200F0CD
:1054A0002BFA002807D0C71B2B680120B8401843EF
:1054B00028600134EFE72B68D90603D56A4620211E
:1054C0005B3211701A0703D56A462B215B321170CB
:1054D00022782A2A01D0099B0EE0059A111D126834
:1054E0000591002A01DB099204E05242EA6002229F
:1054F00013432B60013409E02278303A092A04D89A
:105500000A214B4301349B18F6E7099323782E2B8D
:1055100018D163782A2B09D1059B02341A1D1B6808
:105520000592002B0DDA01235B420AE001340023CF
:105530002278303A092A04D80A214B4301349B18B7
:10554000F6E70793234F2178381C032200F0D4F9A3
:10555000002806D0C71B2B684020B840184328609D
:10556000013421781C480622671C297600F0C4F912
:10557000002812D0194B002B06D1059B07220733B8
:1055800093430833059314E005AB00930398291C5B
:10559000321C134B00E000BF07E005AB00930398FB
:1055A000291C321C0E4B00F091F804900499013133
:1055B00004D06A69049953186B6143E7B3895A06AA
:1055C00001D40B9801E0012040421FB0F0BDC0465D
:1055D000086400000E640000126400000000000077
:1055E00045530000F7B5151C01930A698B68061C2A
:1055F0000C1C934200DA131C221C2B6043321278DD
:10560000002A01D001332B602068800602D52B6868
:1056100002332B60216806270F401FD0231C433321
:105620001B785A1E9341226892061FD5E11840311B
:105630003020C870211C5A1C45310978A21840320C
:105640000233D17012E0221C301C0199193201235F
:10565000089FB847013011D0009F01370097E068DC
:105660002968009F431A9F42EDDBD7E7221C301CBC
:1056700001994332089FB847013002D101204042CE
:1056800023E0206806212B68E268014000250429F8
:1056900003D1D51AEB43DB171D40A26823699A4258
:1056A00001DDD31AED1800270097009FAF420BDAF7
:1056B000221C301C01991A320123089FB84701307F
:1056C000DCD0009F0137EFE70020FEBDF0B50D1CD8
:1056D0008BB0433506920590079304950B7E0C1C06
:1056E000109A6E2B00D1A7E011D8632B22D009D8D5
:1056F000002B00D1B0E0582B00D0C0E045310B703A
:105700007B4D4EE0642B1CD0692B1AD0B7E0732B75
:1057100000D1A5E009D86F2B29D0702B00D0AEE0C6
:105720000E68202333430B6036E0752B1FD0782B97
:1057300032D0A4E013680D1C191D423511601B689E
:105740009FE0216813680E0603D5191D11601E68BD
:1057500005E04806F9D5191D116000215E5E644B15
:10576000002E3BDA049D2D2276422A7036E0216815
:1057700013680E0603D5191D11601E6804E0480663
:10578000F9D5191D1E881160594B227E03930827F5
:105790006F2A1ED00A271CE0231C78214533554D63
:1057A000197011682368081D039510601E0601D545
:1057B0000E6802E05806FBD50E88D90702D52022D4
:1057C000134323601027002E03D1226820239A431D
:1057D0002260231C002243331A7001E003930A273E
:1057E0006368A360002B03DB2568042295432560D2
:1057F000002E02D1049D002B0ED0049D301C391CBC
:10580000FFF7E0F80398013D435C301C2B70391C16
:10581000FFF794F8061EF1D1082F09D12168C907B6
:1058200006D5626823699A4202DC013D30232B7061
:10583000049E731B23612AE0086813684969050602
:1058400004D5181D10601B68196005E04606F8D5E0
:10585000181D10601B68198000232361049D16E049
:105860001368191D11601D68281CFFF797FA6368FB
:105870002061984200D923612069606004E0251C02
:1058800042352B7001232361049E00233370079E51
:1058900005980096211C09AA069BFFF7A3FE01307C
:1058A00002D10120404221E02A1C05980699236973
:1058B000079DA8470130F4D02668B60705D4099B98
:1058C000E068984212DA181C10E00025E068099997
:1058D000431A9D42F3DA221C0598069919320123D6
:1058E000079EB0470130DCD00135EFE70BB0F0BDCB
:1058F000196400002A640000C9B28218904204D0E2
:1059000003788B4202D00130F8E70020704700FC9A
:105910008484848484848484848484FC00000008D7
:10592000102040404040404020100800000000800F
:105930004020202020202020204080000000FC84E7
:1059400084848484848484848484FC00546F756398
:10595000682076616C7565733A2025642025642083
:1059600025642025642C204E72207363616E733A87
:105970002025642C205363616E6E696E6720706110
:10598000643A2025640A0053686F77696E6720685F
:10599000617070696E6573730053686F77696E67C5
:1059A000207361646E6573730053686F77696E6707
:1059B00020616E6765720053686F77696E67206E4D
:1059C00065757472616C0053686F77696E672064E7
:1059D0006973677573740053686F77696E672073B6
:1059E000757270726973650053686F77696E6720AE
:1059F0006665617200636C65617200436C6561721B
:105A0000696E67204C434473006D6F6400436861A6
:105A10006E676520436F6D6D206D6F646520746FD8
:105A200020200063686500726177006D004469732F
:105A3000706C6179696E67206F6E206D6F75746828
:105A40003A00556E6B6E6F776E20636F6D6D616E91
:105A5000642E2057696C6C206E6F742073686F77AA
:105A600020616E797468696E6700446973706C6157
:105A700079696E67206F6E2065796562726F772035
:105A80000000002020202020202020202020200096
:105A900000000000F888888888888888F80000005E
:105AA000496E76616C6964206368616E6E656C2016
:105AB000666F72207061642025640A00FFFFFFFF9B
:105AC00000000000000000004D0F0000F50F000076
:105AD000950F0000A90F0000D10F0000910F0000EA
