:1000000000180020C100000015140000E1130000DA
:10001000E1130000E1130000E1130000E113000010
:10002000E1130000E1130000E113000015140000CB
:1000300015140000E113000015140000D113000096
:10004000151400001514000015140000151400000C
:1000500015140000151400001514000015140000FC
:1000600015140000151400001514000015140000EC
:10007000ED180000451D000031220000151400009D
:1000800015140000151400001514000015140000CC
:1000900015140000151400001514000015140000BC
:1000A00025090000151400001514000015140000A7
:1000B000151400001514000015140000151400009C
:1000C00038B501F0ABF9454A454B1A60454A464BF5
:1000D0001A60464A464B1A60464B0822197811426C
:1000E00002D019780A431A70434B2A221A7000234F
:1000F000424A43499A188A4204D24249C9580433B1
:100100001160F5E7404B41491A1F181D00238A4230
:1001100002D21360031CF6E73D493E4A5958101CB1
:1001200099500433C02BF7D100239A083A49920022
:10013000521803211940C9001568FF248C40A543BB
:100140002C1C80258D40291C214301331160202B5C
:10015000EBD1324B8A221860314B1A70314B24227A
:100160005A70A0221A709A799107FCD59A79D5060F
:10017000FCD498790C212B4A01400829F9D103219C
:100180001171402151719A799106FCD59A795506E1
:10019000FCD52549254A1160224A20211170997900
:1001A0000C220A400C2AFAD1214A224B1A60224A18
:1001B000224B1A60224B00221A60224B07221A603F
:1001C000214A224B1A6062B600F086FA02F08EFBDA
:1001D00001F02AF901F04CF8FEE7C046300004F0C7
:1001E00034800440823F0000388004400100000F4A
:1001F0003C80044002D0074000E0074060FDFF1F44
:1002000070FEFF1FDC39000074FEFF1FD4070020C2
:100210000000000000F9FF1F00E400E008ED00E02E
:100220000050064000400640000001104480044099
:10023000C0000505048004407FBB000014E000E01E
:1002400018E000E010E000E00000202020ED00E0D9
:10025000FFFFFFFFFFFFFFFFFFFFFFFFFFFFFFFFAE
:10026000FFFFFFFFFFFFFFFFFFFFFFFFFFFFFFFF9E
:10027000FFFFFFFFFFFFFFFFFFFFFFFFFFFFFFFF8E
:10028000FFFFFFFFFFFFFFFFFFFFFFFFFFFFFFFF7E
:10029000FFFFFFFFFFFFFFFFFFFFFFFFFFFFFFFF6E
:1002A000FFFFFFFFFFFFFFFFFFFFFFFFFFFFFFFF5E
:1002B000FFFFFFFFFFFFFFFFFFFFFFFFFFFFFFFF4E
:1002C000FFFFFFFFFFFFFFFFFFFFFFFFFFFFFFFF3E
:1002D000FFFFFFFFFFFFFFFFFFFFFFFFFFFFFFFF2E
:1002E000FFFFFFFFFFFFFFFFFFFFFFFFFFFFFFFF1E
:1002F000FFFFFFFFFFFFFFFFFFFFFFFFFFFFFFFF0E
:10030000FFFFFFFFFFFFFFFFFFFFFFFFFFFFFFFFFD
:10031000FFFFFFFFFFFFFFFFFFFFFFFFFFFFFFFFED
:10032000FFFFFFFFFFFFFFFFFFFFFFFFFFFFFFFFDD
:10033000FFFFFFFFFFFFFFFFFFFFFFFFFFFFFFFFCD
:10034000FFFFFFFFFFFFFFFFFFFFFFFFFFFFFFFFBD
:10035000FFFFFFFFFFFFFFFFFFFFFFFFFFFFFFFFAD
:10036000FFFFFFFFFFFFFFFFFFFFFFFFFFFFFFFF9D
:10037000FFFFFFFFFFFFFFFFFFFFFFFFFFFFFFFF8D
:10038000FFFFFFFFFFFFFFFFFFFFFFFFFFFFFFFF7D
:10039000FFFFFFFFFFFFFFFFFFFFFFFFFFFFFFFF6D
:1003A000FFFFFFFFFFFFFFFFFFFFFFFFFFFFFFFF5D
:1003B000FFFFFFFFFFFFFFFFFFFFFFFFFFFFFFFF4D
:1003C000FFFFFFFFFFFFFFFFFFFFFFFFFFFFFFFF3D
:1003D000FFFFFFFFFFFFFFFFFFFFFFFFFFFFFFFF2D
:1003E000FFFFFFFFFFFFFFFFFFFFFFFFFFFFFFFF1D
:1003F000FFFFFFFFFFFFFFFFFFFFFFFFFFFFFFFF0D
:10040000FFFFFFFFFFFFFFFFFFFFFFFFFEFFFFFFFD
:1004100010B5064C2378002B07D1054B002B02D0DA
:10042000044800E000BF0123237010BD70FEFF1FD1
:1004300000000000DC39000008B5084B002B03D099
:100440000748084900E000BF07480368002B03D0B5
:10045000064B002B00D0984708BDC04600000000A6
:10046000DC39000074FEFF1F70FEFF1F000000005B
:1004700008B5034800F016F9012000F04BF808BD5C
:10048000B80B000073B50E2000F02CF80F4EC343DC
:10049000041CDB171C40336803215800201802F0AD
:1004A000A5F930600A4E051C33680A480A495843CA
:1004B000201802F09BF92A1A3060031C00920749A9
:1004C0002A1C074800F0E2FE73BDC0469CFEFF1FD9
:1004D0008CFEFF1F0F27000010270000323600009F
:1004E000A4FFFF1F03078020C0031843074BA0226F
:1004F0001860013AFDD11A1C054B1B681907FBD483
:100500001023013BFDD1106880B2704704500440B5
:10051000005004401F4AF8B5FC32D169126900232B
:100520000B6013601C4B20211A680A431A601B4B96
:1005300080211A688A431A60194A1A60002827D055
:10054000142000F0AFF80E20FFF7CCFFC343DB17F9
:10055000144F154E1840386030600A250E20FFF702
:10056000C1FFC343041CDB171C403B680321580038
:10057000201802F03BF9336838600C480C495843A6
:10058000201802F033F9013DEDB23060002DE5D1C5
:10059000F8BDC04658360000388004400050044082
:1005A00080A983009CFEFF1F8CFEFF1F0F27000009
:1005B0001027000010B51A2818D80C2358430C4AED
:1005C000835810181C7D027A224205D0002901D0E0
:1005D0001A710BE01A7209E043681A68002902D008
:1005E00003210A4301E002218A431A6010BDC0467C
:1005F0005836000010B51A282CD80C235843164A38
:10060000141863688258247A012905D1117D0C439E
:100610001475A22252001CE0107DA0431075002921
:1006200002D08A1E012A12D8802252001A600229A2
:1006300003D11A6803210A430BE003290AD11A687F
:1006400002210A431A601A6801218A4301E0042248
:10065000FF321A6010BDC0465836000072B60C4B0F
:100660000C491A680C4B1B68096862B6480104D52E
:1006700032219142894149425B18FA20800043436C
:100680000648821A06484243920D98187047C046A1
:1006900018E000E004ED00E0ACFEFF1F7FBB0000AF
:1006A0005555010038B5041CFFF7D8FF051C002C78
:1006B0000FD0FFF7D3FF074B401B984206D9013CF0
:1006C000002C06D0FA239B00ED18F2E700F014FE90
:1006D000EFE738BDE70300001C4B8022D20510B5C0
:1006E0001A60802212061A60194B002018601949FE
:1006F000194B1A4A196028231360194A194C1360C0
:10070000194A1360194A1360194A1360194A136091
:1007100009222260184C2060184C2160184C23607C
:10072000184C2360184C2260184C20601848016057
:1007300018490B6018490B60184B1A6000F000FE56
:10074000FA20FFF7AFFF00F0D5FB10BD00E100E09D
:1007500004800340FFBF0000088003400C8003407A
:1007600014800340008003401C8003402480034029
:100770002C800340348003400490034008900340E1
:100780000C900340149003400090034004A00340E9
:1007900008A003400CA0034014A0034000A00340A5
:1007A000F0B50B4F02223B780A4E1A43D2000A4D95
:1007B000B418606028788824002800D0C824090470
:1007C0000C43B45001225040534028703B70F0BDA0
:1007D00018FFFF1F00F8FF1F90FFFF1F431E10B5FB
:1007E000032B0FD872B6084A99008858002807D002
:1007F00044685B008C50054A01889C5A611A9952E2
:1008000062B600E0002010BD08FFFF1FB8070020FF
:10081000431E0020032B09D872B6054A9B009B5843
:10082000002B02D001305B68FAE762B67047C04621
:100830005CFFFF1F38B572B60123164A9A18013AB9
:10084000127811071CD5144A5C01A5589900002D97
:1008500005D1131908305860104BA3500AE0012449
:100860002143C9008C58002C0AD153180830586015
:100870000B4B8B500B4B1A78013A1A7062B608E09A
:100880000133052BD9D162B6064B00221A7000F055
:10089000A5FB38BDC037000000F8FF1F88004000EE
:1008A000C800400086FFFF1F421E10B5032A30D843
:1008B000022380001843174BC0001B1872B6164C59
:1008C000A05C032809D801F02FFF14021605083395
:1008D000022011E0083304200EE010489200145862
:1008E0000F4B002C01D1115001E0985841609950F4
:1008F0000EE0032000E00520A0540A1C08325A60D4
:100900008822180700D5C822098809040A431A60FA
:1009100062B610BD00F8FF1FC4FEFF1F5CFFFF1F83
:100920006CFFFF1FF7B5B5490C780E1CE4B26207E7
:100930001DD5B34B1B78002B16D0B24A1378DBB20F
:10094000002B05D0013BDBB21370002B00D100BEA1
:10095000AD4A1378DBB2002B06D0013BDBB213703B
:10096000002B01D100F060FCA44D04232B7008255E
:10097000221C2A4000D154E2A44BA54C1B78DBB2C8
:100980001E099A08002E00D0DDE1D50065192F68F8
:100990006A68B806000F01380C2800D9D0E101F0D0
:1009A000CDFE93019301CF01CF01CF01CF01CF0144
:1009B000CF01AC01CF01CF01CF010D0095491368E4
:1009C000954F526895482960954D964900263B60A1
:1009D0007A609BB201222E602661A66102708B4272
:1009E00018D8D021C9008B4200D3E5E08121914085
:1009F0008B4200D1C2E006D8802B00D1A9E0822B27
:100A000000D1ABE0F5E0884A934200D1C5E0A022D6
:100A1000D20017E085498B4200D152E10DD88821E0
:100A200009018B4200D18EE090221201934200D046
:100A3000DFE0BA78724B1A7009E07D4A934200D128
:100A4000CFE07C4A0026934200D115E1D1E0A31902
:100A5000196A090603D5586A083800F0BFFA083643
:100A6000802EF4D100252E1C734AA858002805D0EA
:100A70004368019300F0B2FA0198F7E76E496F4BB3
:100A80006F4A4851E850A858002805D043680193A0
:100A900000F0A4FA0198F7E76A4B6B4AE85073003C
:100AA000D0526749694B4851F05C0238032807D897
:100AB00001F03AFE02040204002200E001229A55ED
:100AC00001360435042ECFD1614A0023137001256D
:100AD000161C604BEA18604B9200EB18013B1B7828
:100AE0001370190720D500F05BFA6B01002805D0C0
:100AF000E21808305060594AE25003E0E050337881
:100B00000133337000F04CFA0122AB001343DB00D9
:100B1000002805D0E218083050603E4AE25003E059
:100B2000E050337801333370AB0002221A43D20015
:100B30000021A1500322134393400135E150052DBC
:100B4000C7D10E1C98E02E4B454C1B78161C237009
:100B500093E0434C2670667002268EE0BB88042B1F
:100B600047D83F4C3F4D9B00267066705B191B7841
:100B70000226334200D180E022707EE0BA887F23D3
:100B80001340042B35DC7E88002E32D135499B0082
:100B90005B181A7802218A4329E0BA887F23134020
:100BA000042B26DC7E88002E23D12E4A9B009B1826
:100BB0001A7802210A431AE07A88B9882A4B5C68BD
:100BC000002C16D01888904209D15888884206D146
:100BD000120A032A01D126784FE01E894DE00C331A
:100BE000EDE7224B1A68224B1A60BA78214B1A7033
:100BF00042E01C4B0F221A7063E0C0468020074081
:100C00008FFFFF1F19FFFF1F91FFFF1F902007405D
:100C100000F8FF1FC80040007CFFFF1F90FFFF1F70
:100C2000B0FEFF1F8106000002030000212000002B
:100C3000212200002123000008FFFF1FB4FEFF1F38
:100C40005CFFFF1F6CFFFF1FB8070020C4FEFF1FE3
:100C500086FFFF1F30C80110C03700008800400029
:100C600087FFFF1FC0200740C4370000ACFEFF1FF6
:100C7000C8070020A0FFFF1F341CFB889E4200D93C
:100C80001E1C371E402F00D94027201C391CFFF79F
:100C900087FDE419F61B03D1351C402F04D010E06A
:100CA0004025B54200D9351C201C291CFFF778FDD2
:100CB0006419761B01D1402D03D1754D754B2C6005
:100CC0001E800122744B3AE0744B1988744B994290
:100CD00010D10023D05C7349C8540133072BF9D1DC
:100CE0000B68862B02D1704B0F221A700020011C5A
:100CF000FFF756FD6D4B2B6022E0654F3D68002DE0
:100D000013D064490E88341E402C00D94024281C7E
:100D1000211CFFF745FD361B5E4AB6B21680002E39
:100D200001D1402C00D12E193E605C4BA0221988C5
:100D3000D200914204D100225A709A785C4B1A700A
:100D40000122554B61E0D200A4186068013E0838CA
:100D5000F6B22B4036D000F041F95649B000425867
:100D6000554B002A1BD055684550111C985D083121
:100D7000616003280BD801F0D7FC020406080321A8
:100D800004E0022102E0052100E0042199558823B6
:100D9000270700D5C8231288120413433CE0985D4E
:100DA000032808D801F0C0FC39390204002200E011
:100DB00001229A5531E02C40624262410324A41A78
:100DC0009C552AE062880280002A20D03B4D438057
:100DD0004360B3005F593A49002F01D1585101E0F7
:100DE000CD586860C850374B7600F15A5218F2520D
:100DF00000F0D6F8002804D00830606021070AD53A
:100E000007E0314B20601A7801321A7005E02C425D
:100E100001D0264B00E02D4B23602D4A0823137090
:100E200081E5012004421ED01B4902230B70294B8F
:100E3000264C1A70284B294D1C609C60284C1A6166
:100E4000DC609A615D60274B0D241C70264CFF23EB
:100E50002370174C33702270244A1370244B9F2246
:100E60001A70087013E063B2002B04DA1D4B0D22D8
:100E70001A708023337002231C4204D01A4A11785E
:100E8000C9B21170337010231C4200D03370F7BD0B
:100E9000B0FEFF1F84FFFF1F942007407CFFFF1F51
:100EA00021200000C007002019FFFF1FC8004000DC
:100EB000982007405CFFFF1FC4FEFF1F08FFFF1FB5
:100EC000B4FEFF1FB807002086FFFF1F8800400008
:100ED0008020074018FFFF1F00F8FF1FC8FEFF1FFC
:100EE0001CFFFF1FC0200740882007408C200740C0
:100EF0008420074010B501F021FA00221A4B00218E
:100F0000D150981808324160882AF7D1174A8020BA
:100F10001468C00220431060180A154AC0B210704D
:100F2000180C144AC0B21070134A1B0E1370134AE7
:100F3000FF231370124A13481370134A13700122CF
:100F400002701248017012490A70124A11689943DE
:100F50000B1C70210B4313600F4B802252041A604C
:100F60000E4B10221A7010BD00F8FF1F3480044091
:100F70009C200740B0200740B42007408020074055
:100F80008820074094200740102007400021074098
:100F90008420074018E400E000E100E00821074059
:100FA00038B572B60B4C2568281C01F081FC0B2863
:100FB00002D962B600200CE080231B06C3409D438B
:100FC000256062B648235843034B1818002303607A
:100FD000436038BD60FDFF1F00FAFF1F10B5041C01
:100FE0000E484821201A01F0B3FB0B2815D80C4BF2
:100FF0001B78002B07D00B4B1B78002B03D0201C39
:10100000FFF718FC09E072B68022074B1206C240B7
:10101000101C1A681043186062B610BD00FAFF1F5A
:1010200086FFFF1F8FFFFF1F60FDFF1F38B5114CAC
:101030002368002B0CD020684288531C8218157A34
:101040000288934212D3FFF7C9FF002323600EE00A
:10105000094B1B78002B02D10120404208E00320FD
:10106000FFF7BCFB20600028E5D1F5E74380281C92
:1010700038BDC0469CFFFF1F8FFFFF1F10B50D4CF2
:101080002368002B03D02368002B0ED103E00A4B0A
:101090001B78002B02D10120404209E00320FFF71A
:1010A0009DFB20600028EED1F5E75A889B18187A3E
:1010B00010BDC0469CFFFF1F8FFFFF1F054B988888
:1010C000054B1B68002B03D01A885B88D31AC01805
:1010D0007047C046B80700209CFFFF1FF7B5304D92
:1010E0000123071C0C1C2B70002C56D02D4E306891
:1010F000002827D12C4A01922C4B1B78DBB2002B05
:1011000003D12B700120404249E00420FFF780FB0F
:10111000072808D801232B70FFF742FF214B1860E6
:1011200000280FD128700198214B01380190002828
:1011300002D01A78002A02D001221A70E2E700F0E9
:10114000DBF8D9E71A4B002231681A704B8840202F
:10115000C01A0094844200D90090181C009A0830EC
:101160009B1808184B800190A41A00230098834212
:1011700004D0F85C019AD0540133F7E7FF184B888C
:101180003F2B06D940230B800420FFF78DFB002363
:101190003360084B05221A70A6E72C70201CFEBD98
:1011A00092FFFF1F94FFFF1F097500008FFFFF1FB5
:1011B00098FFFF1F91FFFF1F07B56B46D8710733DC
:1011C000181C0121FFF78AFF0EBDFFFFF8B5124B77
:1011D0001B78002B1ED0114F114B3C6801261E704E
:1011E000104D002C09D000262E7063880420238027
:1011F000211CFFF759FB3E6009E0FFF7D1FE011EFD
:1012000004D004202C70FFF74FFB00E02E70044A3E
:1012100000231370F8BDC0468FFFFF1F94FFFF1F10
:1012200092FFFF1F91FFFF1F38B50E4B1D78EDB2E7
:10123000002D15D10C4C2168002906D04B880420C4
:101240000B80FFF731FB25600AE0FFF7A9FE011EC6
:1012500003D00420FFF728FB02E0044B01221A70A0
:1012600038BDC04692FFFF1F94FFFF1F91FFFF1F75
:1012700008B5FFF7FDF8FFF705F900F03DF8FAE7CC
:1012800008B503685B689847002008BD0EB403B535
:1012900003AA08CA191C019201F062FC02B008BC42
:1012A00003B0184708B5FFF709FF08BD08B5FFF7F9
:1012B000BDFE08BD08B5FFF7E1FE08BD08B5FFF7A4
:1012C00085FF08BD08B5081CFFF776FF08BD08B507
:1012D000081C111CFFF702FF08BD7047044B0022D9
:1012E0001A711A73FA21034A890099601A607047CB
:1012F000A4FFFF1FA837000010B5104C2378002B67
:101300001BD101232370FFF7D9FE002801D0FFF77E
:10131000E4FF00F077FA002801D001F0CEF800F0E9
:101320009DFC002801D001F05CF900F00DFF0028C1
:1013300001D001F0EAF90023237010BDB4FFFF1FB4
:101340001B4B1C4A19781C4B082901D1002102E0D3
:101350000A2903D138211160132206E00C2901D19A
:10136000342100E03C21116012221A60134B1A78DC
:10137000134B002A01D0002200E001221A60114B19
:101380001A78114B012A01D880220CE0042A01D8D6
:10139000842208E0082A01D8852204E0102A01D816
:1013A000862200E087221A60084B01221A707047DB
:1013B00064FDFF1F08B003400CB00340B6FFFF1FE1
:1013C00020B0034065FDFF1F24B00340B5FFFF1FA1
:1013D000024B1A6801321A607047C046ACFEFF1F0C
:1013E00010B50B4C23685A0301D5FFF79BFA23680D
:1013F0005A0501D500F07AFA23681A0501D500F0E4
:10140000A1FC2368DA04ECD500F012FFE9E7C0463E
:101410003480044008B5FFF7E3FFFFFF014B0022D3
:101420001A607047008104407047FFFF024A13684A
:1014300018181060181C704768FDFF1F00207047C7
:10144000012040427047012040427047EFF3138073
:10145000002821D1EFF31082002A1FD1EFF305837A
:10146000002B0FD0101C0F2B0ED91A1C103A92080B
:101470000B49032092000340521883401068D84063
:10148000C0B201E080204000EFF31182002A05D0B5
:10149000824203D2101C01E0012040427047C04646
:1014A00000E400E0F8B5061C0D1C171C0024301CDD
:1014B000391C01F091F9092901D8303100E03731A8
:1014C000C9B22955301C391C01F042F9061E01D061
:1014D0000134ECE72B1958702B1C5A1BA24206DA78
:1014E0001A78295D19702A550133013CF5E7281C4B
:1014F000F8BDFFFF1C4B80221968D2000A431A6016
:101500001A4B00221A801A4B1A491A801A4B1A7069
:101510001A4B1A701A4B1A701A4B19601A4BD121B8
:1015200089001960194BC104C90EC0B219705870F6
:101530009A702C22DA70164A1278002A07D099780D
:10154000A0220A439A709A7920218A439A71114BFA
:10155000FF22196891430A1C40210A431A600E4B6E
:10156000802252011A607047348004400202002039
:10157000BEFFFF1F130300000C0200200402002026
:10158000BCFFFF1F40A0044044A0044000A0064050
:10159000050200200CE400E000E100E010B5124B71
:1015A000132299789143032202400A43410701D54F
:1015B00010210A439A700F220B490240042A03D1DA
:1015C0008A79402422438A715A7910218A43084239
:1015D00000D00A435A719A7910218A43840600D5B3
:1015E0000A439A7110BDC04600A0064008B5124BD0
:1015F0001B685A051ED5114B1B78DBB2002B02D09D
:10160000FFF77AFEF7E70E4A8021490111600D4A83
:101610000D49D3700422FF320A600C490A600C4A5B
:1016200013800C4A13800C4B1B68002B02D00B4A12
:1016300012781A7108BDC04634800440BCFFFF1FF9
:1016400080E100E000A0064040A0044044A0044027
:1016500002020020BEFFFF1FB8FFFF1F8000002016
:1016600038B5041C0B4B1D78EDB2002DFAD1201CAF
:101670000121FEF7BFFF291C201CFEF79BFF0C2257
:101680005443054B054AE1581C191160044B227A5A
:101690001A7038BDBCFFFF1F58360000080200203A
:1016A0000102002038B50E4B1A680023510514D5ED
:1016B0000C4C1A2810D80C2343430B4A0B4D995855
:1016C000D3181B7A216001212B70FEF793FF23684A
:1016D0002A781A72012300E02360181C38BDC04626
:1016E00034800440B8FFFF1F5836000080000020FF
:1016F00000207047F8B5254B071C1B685A0544D5D8
:10170000234B1B68002B02D0224A12781A71224BFD
:101710001B78002B04D0214B20219A790A439A711F
:101720001F4E00233478BF220134A2425B415B424A
:101730001C401C4D2B78A3421CD1FFF787FE40288C
:1017400013DC164A13795BB2002BF2DA2B780021F6
:101750000133BF209842494149420B401249C95CBC
:10176000DBB2C9B2D1712B70E3E7FF28E1DDFFF7EF
:10177000C3FDDEE70C4BFFB21F550C4B01221A7064
:10178000064BE4B2AC223470DA70F8BD3480044009
:1017900008020020010200200502002000A00640EF
:1017A0000C02002004020020C0FFFF1FBCFFFF1F2F
:1017B00038B5041C4518AC4204D02078FFF79AFFD6
:1017C0000134F8E738BDFFFF08B5044B1B78002B48
:1017D00002D0FFF791FDF8E708BDC046BCFFFF1F30
:1017E000064B074A1B781078DBB2C0B2834201D3A4
:1017F000BF3000E00138C01A7047C0460C0200201C
:1018000004020020054B1888054B80B21B889BB250
:10181000984201D28130FF30C01A70470202002086
:10182000BEFFFF1F134B14491A880B8892B29BB25C
:1018300010B59A421BD080240133FF3400209C4213
:101840004041404203400D489CB2C05C0C800C49B2
:10185000C0B2096800290CD09A4201D28132FF320D
:10186000D31A1A2B05DC074B1B780B7201E0012001
:10187000404210BD02020020BEFFFF1F8100002079
:10188000B8FFFF1F800000200A4B1A880A4B1B88F4
:101890009BB29A420BD0802101330022FF31994242
:1018A000524152421340054AD05CC0B201E00120CF
:1018B0004042704702020020BEFFFF1F810000204F
:1018C000064B1A88064B92B21A80064B1B68002BF7
:1018D00002D0054A12781A727047C046BEFFFF1F39
:1018E00002020020B8FFFF1F8000002030B52F4B00
:1018F0001A79910613D52E49DC790A8880250132A0
:101900000020FF3595424041404202402948E4B260
:101910000088824203D02848845492B20A80D97841
:10192000224CC9B24AB2002A1ADA227952B2002AEB
:1019300016DA224A224815780278D2B2954202D1AC
:101940006C22E2700CE001320024BF259542644114
:10195000644222401B4CA45CD2B2E4B2DC7102703F
:10196000987C0422104206D0174804780134E4B26F
:1019700004700E4882744022114216D01979114227
:1019800013D0124A00211170114A12688A4202D003
:10199000104909781172104A1278002A03D09A79F6
:1019A00020218A439A712C22DA7030BD00A00640B3
:1019B00002020020BEFFFF1F810000200C02002059
:1019C00004020020C0FFFF1FCC070020BCFFFF1F48
:1019D000080200200102002005020020214B802285
:1019E000196812010A4310B51A601F4A00231380B8
:1019F0001E4A13801E4A13701E4A13701E4A13702B
:101A00001E4A13701E4B19781A1C1E4B002901D058
:101A10001D4904E01D491E4C0C60D121890019604C
:101A20001C4BC104C90E1970C0B2002158709970C6
:101A30002C21D9701278002A07D09978A0220A4365
:101A40009A709A7920218A439A71134B134A196824
:101A50000A408021C9010A431A60114B8022920179
:101A60001A6010BD34800440540400200E0200208F
:101A7000640400205C040020100200205D040020AB
:101A80001102002010B00440470300000CB00440D5
:101A90001303000000B006400CE400E0FF00FFFF6D
:101AA00000E100E010B5124B132299789143032214
:101AB00002400A43410701D510210A439A700F22C0
:101AC0000B490240042A03D18A79402422438A71B7
:101AD0005A7910218A43084200D00A435A719A79F0
:101AE00010218A43840600D50A439A7110BDC0466E
:101AF00000B0064008B5124B1B681A051ED5114BE5
:101B00001B78DBB2002B02D0FFF7F6FBF7E70E4A9B
:101B10008021890111600D4A0D49D3700422FF32E2
:101B20000A600C490A600C4A13800C4A13800C4B63
:101B30001B68002B02D00B4A12781A7108BDC046F0
:101B4000348004401002002080E100E000B0064034
:101B50000CB0044010B00440540400200E020020D9
:101B600058040020D202002038B5041C0B4B1D780D
:101B7000EDB2002DFAD1201C0121FEF73BFD291CFE
:101B8000201CFEF717FD0C225443054B054AE15873
:101B90001C191160044B227A1A7038BD1002002003
:101BA00058360000600400205304002038B50E4B66
:101BB0001A680023110514D50C4C1A2810D80C23D0
:101BC00043430B4A0B4D9958D3181B7A21600121CE
:101BD0002B70FEF70FFD23682A781A72012300E0AC
:101BE0002360181C38BDC0463480044058040020CF
:101BF00058360000D20200200020704738B5041C7F
:101C00004518AC4204D0207800F003F80134F8E71E
:101C100038BD07B50121019001A8FFF7EFFF07BD0F
:101C200008B5044B1B78002B02D0FFF765FBF8E7E3
:101C300008BDC04610020020064B074A1B781078EA
:101C4000DBB2C0B2834201D3BF3000E00138C01A1A
:101C50007047C046640400205C040020054B1888CF
:101C6000054B80B21B889BB2984201D28130FF3075
:101C7000C01A7047540400200E020020134B144970
:101C80001A880B8892B29BB210B59A421BD080245E
:101C90000133FF3400209C424041404203400D4844
:101CA0009CB2C05C0C800C49C0B2096800290CD001
:101CB0009A4201D28132FF32D31A1A2B05DC074B2C
:101CC0001B780B7201E00120404210BD540400203B
:101CD0000E020020D302002058040020D20200206F
:101CE0000A4B1A880A4B1B889BB29A420BD0802160
:101CF00001330022FF319942524152421340054ABA
:101D0000D05CC0B201E00120404270475404002082
:101D10000E020020D3020020064B1A88064B92B216
:101D20001A80064B1B68002B02D0054A12781A72E3
:101D30007047C0460E0200205404002058040020C2
:101D4000D202002030B53A4B1A79910613D53949A1
:101D5000DC790A88802501320020FF359542404118
:101D6000404202403448E4B20088824203D0334803
:101D7000845492B20A80D8782D49C0B242B2002A67
:101D800020DA0A7952B2002A1CDA2D4A2D4C157835
:101D90002278D2B2954208D12B4A1278002A01D07B
:101DA0002C2200E06C22CA700CE001320021BF2519
:101DB0009542494149420A402449895CD2B2C9B29C
:101DC000D9712270997C0422114206D020490C78E6
:101DD0000134E4B20C7016498A744022104226D0B5
:101DE00018791349104222D0174A1278D2B2002A29
:101DF00001D02C2306E0124804781248007884426F
:101E000002D0AC23CB7012E012490A70124A126859
:101E1000002A02D0114909781172114A1278002A59
:101E200003D09A7920218A439A712C22DA7030BD2E
:101E300000B00640540400200E020020D30200200F
:101E4000640400205C0400205D04002012020020D5
:101E5000CD07002010020020600400205304002061
:101E600011020020164B8022196852010A431A60A1
:101E7000144A00231380144A14491380144A13800F
:101E8000144A1380144A1370144A1160144AD12161
:101E900089001160134AC104C90EC0B2117050709C
:101EA00093702C23D370104B104A19680A4080217C
:101EB000C9030A431A600E4B8022D2011A60704790
:101EC00034800440720700206E04002013030000D9
:101ED0007C070020740700206C04002008C0044028
:101EE0000CC0044000C006400CE400E0FFFF00FF0F
:101EF00000E100E010B5124B1322997891430322C0
:101F000002400A43410701D510210A439A700F226B
:101F10000B490240042A03D18A79402422438A7162
:101F20005A7910218A43084200D00A435A719A799B
:101F300010218A43840600D50A439A7110BDC04619
:101F400000C0064008B5124B1B68DA041ED5114BC1
:101F50001B78DBB2002B02D0FFF7CEF9F7E70E4A71
:101F60008021C90111600D4A0D49D3700422FF324E
:101F70000A600C490A600C4A13800C4A13800C4B0F
:101F80001B68002B02D00B4A12781A7108BDC0469C
:101F9000348004406C04002080E100E000C0064072
:101FA00008C004400CC00440720700206E040020EA
:101FB00068040020F005002038B5041C0B4B1D7888
:101FC000EDB2002DFAD1201C0121FEF713FB291CD4
:101FD000201CFEF7EFFA0C225443054B054AE1584A
:101FE0001C191160044B227A1A7038BD6C04002051
:101FF00058360000780700207107002038B50E4BD6
:102000001A680023D10414D50C4C1A2810D80C23BC
:1020100043430B4A0B4D9958D3181B7A2160012179
:102020002B70FEF7E7FA23682A781A72012300E082
:102030002360181C38BDC04634800440680400206A
:1020400058360000F005002000207047F8B5214BFD
:10205000071C1B68DA043CD51F4B1B68002B02D001
:102060001E4A12781A711E4B80261C88FF360134D6
:102070000023A6425B415B421C401A4D2B88A342C1
:102080001BD1FFF7E3F9402812DC174A13795BB242
:10209000002BF2DA2B88002101339E42494149424C
:1020A0000B401249C95C9BB2C9B2D1712B80E4E7E5
:1020B000FF28E2DDFFF720F9DFE70C4BFFB21F55E9
:1020C0000B4B01221A70064BA4B21C80064BAC22AB
:1020D000DA70F8BD348004407807002071070020D2
:1020E0007C0700207407002000C006407004002018
:1020F0006C04002038B5041C4518AC4204D020788C
:10210000FFF7A4FF0134F8E738BDFFFF08B5044B23
:102110001B78002B02D0FFF7EFF8F8E708BDC046A8
:102120006C040020064B074A1B8810889BB280B2C3
:10213000834202D38030FF3000E00138C01A70477C
:102140007C07002074070020054B1888054B80B2DF
:102150001B889BB2984201D28130FF30C01A704771
:10216000720700206E040020134B14491A880B8854
:1021700092B29BB210B59A421BD080240133FF3437
:1021800000209C424041404203400D489CB2C05C4C
:102190000C800C49C0B2096800290CD09A4201D2C7
:1021A0008132FF32D31A1A2B05DC074B1B780B72D6
:1021B00001E00120404210BD720700206E040020A3
:1021C000F105002068040020F00500200A4B1A8861
:1021D0000A4B1B889BB29A420BD08021013300220C
:1021E000FF319942524152421340054AD05CC0B27D
:1021F00001E0012040427047720700206E04002079
:10220000F1050020064B1A88064B92B21A80064B45
:102210001B68002B02D0054A12781A727047C0461C
:102220006E0400207207002068040020F0050020E2
:1022300030B5354A1379990626D53449D4790B88B7
:10224000802501330020FF359D424041404203403C
:102250002F48E4B20088834203D02E48C45498B279
:1022600008802D49086800280ED02C49098889B2B9
:102270008B4201D35B1A02E05B1A8133FF33272BB9
:1022800002DD274B1B780371D1781F4CC9B24BB2CA
:10229000002B1BDA23795BB2002B17DA214B1F4886
:1022A0001D8803889BB29D4202D16C23E3700DE030
:1022B000802501330024FF359D4264416442234060
:1022C000194CE45C9BB2E4B2D4710380907C04238B
:1022D000184206D0154804780134E4B204700A4864
:1022E0008374402319420ED0117919420BD0104B40
:1022F000002119700F4B1B688B4202D00E490978E0
:1023000019722C23D37030BD00C006407207002024
:102310006E040020F10500206804002074070020EE
:10232000F00500207C07002070040020CE0700206C
:102330006C04002078070020710700201FB572B6DA
:10234000154B70221A70154A41211170144A0F2141
:10235000117080221A701A7852B2002AFBDA114BDF
:10236000186862B6104B984201D80A23584301AC52
:10237000211C0A22FFF796F80023E15C0B4A002992
:1023800005D058001018013341800A2BF5D10133D4
:102390005B0013701FBDC0460000024007000240F2
:1023A00006000240080002407F969800F4FDFF1FDF
:1023B00008B50368C9B21B68984708BD08B503682B
:1023C000C9B21B68984708BD08B50368C9B21B6845
:1023D000984708BD08B50368C9B21B68984708BD8F
:1023E00008B5044B4808C01800F0B2F9FFF782F8AE
:1023F00008BDC046C0C62D0010B5064B4808C01821
:10240000141C00F0A5F9FFF775F8201CFFF7C6F8BB
:1024100010BDC046C0C62D0008B5FFF7E7F808BDDF
:1024200008B5081CFFF71CF908BD08B5081CFFF724
:1024300039F9431E9841C0B208BD08B5081CFFF722
:1024400057F9431E9841C0B208BD08B5FFF7DAF945
:1024500008BD08B5FFF718FA08BD08B5FFF7E2F99F
:1024600008BD08B5FFF7B0F908BD08B5FFF728FAB1
:1024700008BD08B5FFF7B4F908BD08B5081CFFF79B
:1024800039F9012008BD08B5081CFFF733F9012010
:1024900008BD10B5081C141C111CFFF789F9201C7D
:1024A00010BD38B5081C0D1C00F01EFB041C211CBF
:1024B000281CFFF77DF9201C38BD7047044B002213
:1024C0001A711A73FA21034A890099601A607047D9
:1024D000800700202038000008B50368C9B21B68D7
:1024E000984708BD08B50368C9B21B68984708BD7E
:1024F00008B50368C9B21B68984708BD08B50368EA
:10250000C9B21B68984708BD08B5044B4808C018F5
:1025100000F01EF9FFF762FA08BDC04660E316003E
:1025200010B5064B4808C018141C00F011F9FFF74D
:1025300055FA201CFFF7B6FA10BDC046C0C62D00E4
:1025400008B5FFF7D7FA08BD08B5081CFFF70CFB64
:1025500008BD08B5081CFFF729FB431E9841C0B20F
:1025600008BD08B5081CFFF747FB431E9841C0B2E1
:1025700008BD08B5FFF772FB08BD08B5FFF7B0FB53
:1025800008BD08B5FFF77AFB08BD08B5FFF748FBA3
:1025900008BD08B5FFF7C0FB08BD08B5FFF74CFB49
:1025A00008BD08B5081CFFF734FB012008BD08B5BD
:1025B000081CFFF72EFB012008BD10B5081C141CD9
:1025C000111CFFF71BFB201C10BD38B5081C0D1C8F
:1025D00000F08AFA041C211C281CFFF70FFB201CAA
:1025E00038BD7047044B00221A711A73FA21034A4E
:1025F000890099601A6070479007002078380000C1
:1026000008B50368C9B21B68984708BD08B50368D8
:10261000C9B21B68984708BD08B50368C9B21B68F2
:10262000984708BD08B50368C9B21B68984708BD3C
:1026300008B5044B4808C01800F08AF8FFF712FCF0
:1026400008BDC04660E3160010B5064B4808C01828
:10265000141C00F07DF8FFF705FC201CFFF74AFC76
:1026600010BDC04660E3160008B5FFF76BFC08BD5F
:1026700008B5081CFFF7A0FC08BD08B5081CFFF74B
:10268000BDFC431E9841C0B208BD08B5081CFFF749
:10269000DBFC431E9841C0B208BD08B5FFF754FDEE
:1026A00008BD08B5FFF792FD08BD08B5FFF75CFD52
:1026B00008BD08B5FFF72AFD08BD08B5FFF7A2FD64
:1026C00008BD08B5FFF72EFD08BD08B5081CFFF7CB
:1026D000BDFC012008BD08B5081CFFF7B7FC0120B0
:1026E00008BD10B5081C141C111CFFF703FD201CAD
:1026F00010BD38B5081C0D1C00F0F6F9041C211C97
:10270000281CFFF7F7FC201C38BD7047044B002243
:102710001A711A73FA21034A890099601A60704786
:10272000A0070020D038000002B4714649084900D3
:10273000095C49008E4402BC7047C04603B4714630
:10274000490840004900095A49008E4403BC7047BB
:10275000002934D00123002210B488422CD3012454
:102760002407A14204D2814202D209011B01F8E7E9
:10277000E400A14204D2814202D249005B00F8E7A2
:10278000884201D3401A1A434C08A04202D3001BCE
:102790005C0822438C08A04202D3001B9C08224301
:1027A000CC08A04202D3001BDC082243002803D03F
:1027B0001B0901D00909E3E7101C10BC7047002871
:1027C00001D00020C04307B4024802A14018029083
:1027D00003BDC046D90000000029F0D003B5FFF7C3
:1027E000B9FF0EBC4243891A1847C046002941D0A0
:1027F00010B4041C4C40A44601230022002900D53B
:102800004942002800D5404288422CD301242407A5
:10281000A14204D2814202D209011B01F8E7E4007F
:10282000A14204D2814202D249005B00F8E788420B
:1028300001D3401A1A434C08A04202D3001B5C0883
:1028400022438C08A04202D3001B9C082243CC08E0
:10285000A04202D3001BDC082243002803D01B093E
:1028600001D00909E3E7101C6446002C00D5404262
:1028700010BC7047002806D003DB0020C04340088E
:1028800001E08020000607B4024802A1401802902F
:1028900003BDC046190000000029EBD003B5FFF7C7
:1028A000A7FF0EBC4243891A1847C0467047C0466E
:1028B0001C2101231B04984201D3000C10391B0A70
:1028C000984201D3000A08391B09984201D3000934
:1028D000043902A2105C40187047C046040302028B
:1028E00001010101000000000000000070B50E4B66
:1028F0000E4D0024ED1AAD101E1CAC4204D0A300F6
:10290000F35898470134F8E701F058F8084B094D9F
:102910000024ED1AAD101E1CAC4204D0A300F358E5
:1029200098470134F8E770BDC8390000C839000085
:10293000C8390000DC39000010B50023934203D0F1
:10294000CC5CC4540133F9E710BD70B5814201D3AA
:1029500000230CE08C18A042FAD28518131C013B0E
:102960000BD351426618F65C6918CE54F7E79342D0
:1029700003D0CC5CC4540133F9E770BD031C82184A
:10298000934202D019700133FAE7704730B500293D
:1029900040D004390B68002B00DAC9181E4A1368AE
:1029A000141C002B02D14B60116033E099420FD20E
:1029B00008680A189A4205D113685268C01808605E
:1029C0004A6000E04B60216024E08A4203D8131C77
:1029D0005A68002AF9D11D685C198C420BD109682C
:1029E000691858181960904214D11468526809196E
:1029F00019605A600EE08C4202D90C23036009E092
:102A000008680C18944203D11468526800190860D1
:102A10004A60596030BDC046B407002070B503233A
:102A2000CD1C9D430835061C0C2D01D20C2501E060
:102A3000002D3FDB8D423DD3204B1C681A1C211C0E
:102A4000002913D00868431B0DD40B2B02D90B604F
:102A5000CC181EE08C4202D1636813601AE048680B
:102A600060600C1C16E00C1C4968E9E7144C2068F7
:102A7000002803D1301C00F025F82060301C291CF0
:102A800000F020F8431C15D0C41C03239C4384424F
:102A90000AD12560201C0B300722231D9043C31A46
:102AA0000BD05A42E25008E0211A301C00F00AF81C
:102AB0000130EED10C233360002070BDB40700203C
:102AC000B007002038B5074C0023051C081C236004
:102AD000FEF7ACFC431C03D12368002B00D02B6015
:102AE00038BDC046D00700200023C25C0133002A55
:102AF000FBD1581E7047FFFFF0B5184C0E1CA544C3
:102B0000039380239B00041C171C0593002804D00A
:102B10008369002B01D100F099F8039B06AD009367
:102B2000201C3B1C291C05AA00F072F9071E0ED0C0
:102B3000201C311C3A1C059B00F020F80590AF4288
:102B400003D0201C391CFFF721FF059801E001206C
:102B5000404287239B009D44F0BDC046E4FDFFFF3B
:102B600038B5131C044A051C0C1C1068291C221CB7
:102B7000FFF7C2FF38BDC0466CFEFF1F38B5084CDA
:102B8000051C00202060081C111C1A1CFEF778FB95
:102B9000431C03D12368002B00D02B6038BDC046F6
:102BA000D0070020F8B5041C071C4834002C12D0B4
:102BB000A5686668013E0CD4AB89012B07D90E22AB
:102BC000AB5E013303D0381C291C00F0EFF96835E7
:102BD000F0E72468EAE7F8BD002310B5041C0360A1
:102BE0004360836081814366C28103614361836185
:102BF000191C08225C30FFF7C1FE054B246263629A
:102C0000044BA362044BE362044B236310BDC04634
:102C1000792D0000A12D0000D92D0000052E000007
:102C200070B54B1E68255D430E1C291C7431FFF7DF
:102C3000F5FE041E08D00021016046602A1C0C30FD
:102C4000A0606832FFF79AFE201C70BD836913B53F
:102C5000041C002B27D18364C3640365124B134A01
:102C60001B688262984201D101238361201C00F01D
:102C70001FF86060201C00F01BF8A060201C00F012
:102C800017F80421E06000226068FFF7A5FFA06844
:102C900009210122FFF7A0FFE06812210222FFF7BD
:102CA0009BFF0123A36113BD24390000A52B000065
:102CB000F8B51D4B071C1E68B269002A02D1301CF2
:102CC000FFF7C4FF4836B4687368013B05D40C2293
:102CD000A55E002D10D06834F7E73368002B06D1CD
:102CE000381C0421FFF79CFF3060002801D03668B3
:102CF000E9E70C233B6016E001235B42E381201CE3
:102D00000123A38165662560A56065602561656115
:102D1000A5615C30291C0822FFF730FE6563A563BE
:102D2000A564E564201CF8BD24390000F8B5061C34
:102D30000C1C151C002904D1111CFFF76FFE041C8C
:102D400018E0002A03D1FFF721FE2C1C12E000F04E
:102D50006DF9A8420ED2301C291CFFF75FFE071E3A
:102D600007D0211C2A1CFFF7E7FD301C211CFFF7B0
:102D70000DFE3C1C201CF8BD38B50C1C0E25495F0F
:102D800000F05EF9002803DB626D1318636503E051
:102D9000A289024B1340A38138BDC046FFEFFFFF5D
:102DA000F8B51E1C8B89051C0C1C171CDA0505D5F3
:102DB0000E23C95E0022022300F024F9A289054BEC
:102DC000281C1340A3810E22A15E331C3A1CFFF77E
:102DD000D5FEF8BDFFEFFFFF38B50C1C0E25495F8F
:102DE00000F010F9A389421C03D1054A1340A381C6
:102DF00004E0802252011343A381606538BDC046C0
:102E0000FFEFFFFF08B50E23C95E00F033F808BDE1
:102E100070B5151C9AB01468002906D0002C04D097
:102E2000C122D2006E46B28105E0A222694692001C
:102E300000248A81211C00910491002C03DA8B2349
:102E40000360002013E0012252426E46F28169467F
:102E50001A1C1E9B0294059400F066F90023984208
:102E600004DB009928600B70049800E0181C1AB06D
:102E700070BDFFFF38B5074C0023051C081C2360FC
:102E8000FEF7DEFA431C03D12368002B00D02B6031
:102E900038BDC046D0070020F7B58B89051C0C1C37
:102EA00019075ED46268002A02DC276C002F1ADD45
:102EB000E76A002F17D000222E682A608022520174
:102EC0001A4001D0626D15E0281C216A0123B84721
:102ED000021C411C0ED12B68002B0BD01D2B01D0E6
:102EE000162B02D12E6000205EE0A38940210B4307
:102EF000A38159E0A3895F0706D56168636B521A05
:102F0000002B01D0276CD21B281C216A0023E76A02
:102F1000B847A289411C06D12B68002B03D01D2B7A
:102F200001D0162B19D10023636023692360D704D5
:102F300005D5411C02D12A68002A00D16065616B69
:102F40002E600029CFD0231C4433994202D0281C84
:102F5000FFF71CFD0020606326E040231A43A28196
:102F600022E02669002EBED027680022BF1B0197F1
:102F70002660990700D16269A260019F002FB2DD2F
:102F8000281C216A321C019BA76AB847002806DC6E
:102F9000A389402213430120A381404204E0019F02
:102FA00036183F1A0197E8E7FEBDFFFF0A6938B5FA
:102FB000051C0C1C002A01D100201CE0002804D0B4
:102FC0008369002B01D1FFF741FE0B4B9C4201D1DD
:102FD0006C6808E0094B9C4201D1AC6803E0084BE7
:102FE0009C4200D1EC680C22A35E002BE4D0281C8C
:102FF000211CFFF751FF38BD283900004839000077
:103000006839000038B5084C051C00202060081CF9
:10301000111C1A1CFEF717FA431C03D12368002B5E
:1030200000D02B6038BDC046D007002004390B68A3
:10303000181F002B02DAC8581B18181F7047FFFF13
:1030400038B5084C051C00202060081C111C1A1CF7
:10305000FEF7F4F9431C03D12368002B00D02B604A
:1030600038BDC046D0070020F0B58D6885B0071C7C
:103070000C1C03920193AB4245D390228B89D20062
:1030800013423DD062690326564309692068F20F56
:10309000401A96190290021C0198013212187610FB
:1030A000964200D2161C381C5A050FD5311CFFF76A
:1030B000B5FC051E13D0029A2169FFF73DFCA289D9
:1030C000184B134080221343A38111E0321CFFF7F9
:1030D0002DFE051E0CD1381C2169FFF757FC0C236F
:1030E0003B60A389402213430120A381404217E0A3
:1030F000029B2561ED1825606661019DF61AA660A8
:103100000198A84200D2019D2A1C20680399FFF76C
:103110001CFCA2680020531BA36023685D19256076
:1031200005B0F0BD7FFBFFFFF0B59FB003900593A6
:103130008B890E1C171C19060FD53269002A0CD179
:103140004021FFF76BFC30603061002803D1039908
:103150000C230B60C9E04023736106AD00236B6153
:1031600020236B763023AB763C1C2378002B03D1D5
:10317000E21B029211D003E0252BF9D00134F4E7D1
:103180000398311C3A1C029BFFF76EFF013000D1FF
:10319000A6E06969029A8B186B612378002B00D135
:1031A0009EE0012252426A606A4600235B3201348B
:1031B0002B60EB60AB601370AB654E4F2178381C11
:1031C000052200F02BFA002807D0C71B2B6801202E
:1031D000B840184328600134EFE72B68D90603D5BF
:1031E0006A4620215B3211701A0703D56A462B21EB
:1031F0005B32117022782A2A01D0099B0EE0059AD1
:10320000111D12680591002A01DB099204E0524267
:10321000EA60022213432B60013409E02278303A3D
:10322000092A04D80A214B4301349B18F6E7099375
:1032300023782E2B18D163782A2B09D1059B0234D1
:103240001A1D1B680592002B0DDA01235B420AE070
:10325000013400232278303A092A04D80A214B434A
:1032600001349B18F6E70793234F2178381C03227B
:1032700000F0D4F9002806D0C71B2B684020B840C6
:1032800018432860013421781C480622671C2976DF
:1032900000F0C4F9002812D0194B002B06D1059B71
:1032A0000722073393430833059314E005AB0093DB
:1032B0000398291C321C134B00E000BF07E005AB4C
:1032C00000930398291C321C0E4B00F091F80490D7
:1032D0000499013104D06A69049953186B6143E77A
:1032E000B3895A0601D40B9801E0012040421FB077
:1032F000F0BDC046883900008E39000092390000C8
:103300000000000069300000F7B5151C01930A6940
:103310008B68061C0C1C934200DA131C221C2B60C9
:1033200043321278002A01D001332B6020688006D6
:1033300002D52B6802332B60216806270F401FD06F
:10334000231C43331B785A1E9341226892061FD5D3
:10335000E11840313020C870211C5A1C45310978D1
:10336000A21840320233D17012E0221C301C0199A5
:1033700019320123089FB847013011D0009F01374F
:103380000097E0682968009F431A9F42EDDBD7E76A
:10339000221C301C01994332089FB847013002D1EA
:1033A0000120404223E0206806212B68E2680140AA
:1033B0000025042903D1D51AEB43DB171D40A26871
:1033C00023699A4201DDD31AED1800270097009F68
:1033D000AF420BDA221C301C01991A320123089FDC
:1033E000B8470130DCD0009F0137EFE70020FEBD79
:1033F000F0B50D1C8BB043350692059007930495EC
:103400000B7E0C1C109A6E2B00D1A7E011D8632BF9
:1034100022D009D8002B00D1B0E0582B00D0C0E05A
:1034200045310B707B4D4EE0642B1CD0692B1AD0BC
:10343000B7E0732B00D1A5E009D86F2B29D0702BF2
:1034400000D0AEE00E68202333430B6036E0752BCE
:103450001FD0782B32D0A4E013680D1C191D423503
:1034600011601B689FE0216813680E0603D5191DC3
:1034700011601E6805E04806F9D5191D116000218C
:103480005E5E644B002E3BDA049D2D2276422A704C
:1034900036E0216813680E0603D5191D11601E68F9
:1034A00004E04806F9D5191D1E881160594B227E8B
:1034B000039308276F2A1ED00A271CE0231C7821BB
:1034C0004533554D197011682368081D0395106028
:1034D0001E0601D50E6802E05806FBD50E88D907F6
:1034E00002D52022134323601027002E03D1226827
:1034F00020239A432260231C002243331A7001E0E8
:1035000003930A276368A360002B03DB256804226A
:1035100095432560002E02D1049D002B0ED0049D02
:10352000301C391CFFF758F90398013D435C301CEF
:103530002B70391CFFF70CF9061EF1D1082F09D1A9
:103540002168C90706D5626823699A4202DC013DF9
:1035500030232B70049E731B23612AE008681368D4
:103560004969050604D5181D10601B68196005E03F
:103570004606F8D5181D10601B68198000232361CA
:10358000049D16E01368191D11601D68281CFFF7C3
:10359000ABFA63682061984200D9236120696060BA
:1035A00004E0251C42352B7001232361049E002377
:1035B0003370079E05980096211C09AA069BFFF709
:1035C000A3FE013002D10120404221E02A1C0598CF
:1035D00006992369079DA8470130F4D02668B607ED
:1035E00005D4099BE068984212DA181C10E0002507
:1035F000E0680999431A9D42F3DA221C059806995E
:1036000019320123079EB0470130DCD00135EFE7C6
:103610000BB0F0BD99390000AA390000C9B2821878
:10362000904204D003788B4202D00130F8E70020AA
:10363000704753686F72742025642C204465657050
:103640002025642C206E6F726D616C697A65642030
:1036500025640D0A00FFFFFF420000F840A004406F
:1036600001000000420000F844A0044002000000F5
:10367000C00000F800C0044001000000000000F895
:103680000490044002000000000000F8089004408C
:1036900004000000C00000F81CC0044080000000CE
:1036A000C00000F810C0044010000000C00000F886
:1036B00008C0044004000000C00000F80CC0044032
:1036C00008000000800000F80CB004400800000072
:1036D000800000F810B0044010000000800000F8E6
:1036E00018B0044040000000800000F81CB0044006
:1036F00080000000800000F814B0044020000000AA
:10370000C00000F804C0044002000000800000F87F
:1037100000B0044001000000400000F800A0044098
:1037200001000000400000F804A004400200000076
:10373000400000F80CA0044008000000400000F821
:1037400008A0044004000000C00000F814C00440B9
:1037500020000000C00000F818C004404000000035
:10376000800000F804B0044002000000800000F86F
:1037700008B0044004000000020100F850D00440EA
:1037800010000000020100F854D0044020000000A6
:10379000030100F878D0044040000000FFFFFFFF65
:1037A0000000000000000000C5120000CF12000061
:1037B000A5120000AD120000B5120000BD120000FD
:1037C00000151915000100006CFDFF1F120000001C
:1037D0000002000096FDFF1F4300000000030000F0
:1037E000F0FDFF1F00000000010309047EFDFF1F24
:1037F0000000000002030904DAFDFF1F00000000C2
:1038000003030904F4FDFF1F000000000000000096
:1038100000000000000000000000000000000000A8
:103820007B240000932400004B2400005B24000054
:103830005324000063240000E1230000F92300006A
:1038400019240000212400002B2400003B24000048
:103850006B24000073240000B1230000BD2300008E
:10386000C9230000D5230000A32400008724000002
:103870000000000000000000A3250000BB250000A0
:1038800073250000832500007B2500008B250000A8
:1038900009250000212500004125000049250000E0
:1038A0005325000063250000932500009B250000A0
:1038B000D9240000E5240000F1240000FD240000CC
:1038C000CB250000AF250000000000000000000034
:1038D000CB260000E32600009B260000AB2600005C
:1038E000A3260000B3260000312600004926000070
:1038F00069260000712600007B2600008B26000050
:10390000BB260000C3260000012600000D26000093
:103910001926000025260000F3260000D726000007
:103920004300FFFF0CFEFF1F00000000000000002E
:103930000000000000000000000000000000000087
:103940000000000000000000000000000000000077
:103950000000000000000000000000000000000067
:103960000000000000000000000000000000000057
:103970000000000000000000000000000000000047
:103980000000000000000000232D302B2000686C98
:103990004C00656667454647003031323334353672
:1039A00037383941424344454600303132333435AB
:1039B0003637383961626364656600FFF8B5C04622
:1039C000F8BC08BC9E46704739040000DD120000B8
:0C39D000BD240000E52500000D270000CC
:1039DC00FFFFFFFF0A040000D407002012010002C1
:1039EC0002000040C0168304000101020301180309
:1039FC005400650065006E0073007900640075006A
:103A0C0069006E006F0009024300020100C0320918
:103A1C00040000010202010005240010010524012C
:103A2C000101042402060524060001070582031087
:103A3C00004009040100020A0000000705030240CF
:103A4C0000000705840240000000160355005300D7
:103A5C0042002000530065007200690061006C0098
:103A6C00040309040C030000000000000000000027
:103A7C00000000000000000000000000000000003A
:103A8C0028390000483900006839000000000000A7
:103A9C0000000000000000000000000020390000C1
:103AAC00000000000000000000000000000000000A
:103ABC0000000000000000000000000000000000FA
:103ACC0000000000000000000000000000000000EA
:103ADC000000000000000000000000000CFEFF1FB2
:00000001FF
