:1000000000180020C100000069270000352700000B
:100010003527000035270000352700003527000070
:10002000352700003527000035270000692700002C
:1000300069270000352700006927000025270000F8
:100040006927000069270000692700006927000070
:100050006927000069270000692700006927000060
:1000600001140000692700006927000069270000CB
:10007000B141000009460000F54A00006927000070
:100080006927000069270000692700006927000030
:100090006927000069270000692700006927000020
:1000A0006D2B000069270000692700006927000008
:1000B0006927000069270000692700006927000000
:1000C00038B502F055FB454A454B1A60454A464B48
:1000D0001A60464A464B1A60464B0822197811426C
:1000E00002D019780A431A70434B2A221A7000234F
:1000F000424A43499A188A4204D24249C9580433B1
:100100001160F5E7404B41491A1F181D00238A4230
:1001100002D21360031CF6E73D493E4A5958101CB1
:1001200099500433C02BF7D100239A083A49920022
:10013000521803211940C9001568FF248C40A543BB
:100140002C1C80258D40291C214301331160202B5C
:10015000EBD1324B8A221860314B1A70314B24227A
:100160005A70A0221A709A799107FCD59A79D5060F
:10017000FCD498790C212B4A01400829F9D103219C
:100180001171402151719A799106FCD59A795506E1
:10019000FCD52549254A1160224A20211170997900
:1001A0000C220A400C2AFAD1214A224B1A60224A18
:1001B000224B1A60224B00221A60224B07221A603F
:1001C000214A224B1A6062B602F0AAFB04F058FEE4
:1001D00002F0D4FA03F02CFBFEE7C046300004F036
:1001E00034800440823F0000388004400100000F4A
:1001F0003C80044002D0074000E0074060FDFF1F44
:1002000074FEFF1F2868000078FEFF1F44090020CD
:100210000000000000F9FF1F00E400E008ED00E02E
:100220000050064000400640000001104480044099
:10023000C0000505048004407FBB000014E000E01E
:1002400018E000E010E000E00000202020ED00E0D9
:10025000FFFFFFFFFFFFFFFFFFFFFFFFFFFFFFFFAE
:10026000FFFFFFFFFFFFFFFFFFFFFFFFFFFFFFFF9E
:10027000FFFFFFFFFFFFFFFFFFFFFFFFFFFFFFFF8E
:10028000FFFFFFFFFFFFFFFFFFFFFFFFFFFFFFFF7E
:10029000FFFFFFFFFFFFFFFFFFFFFFFFFFFFFFFF6E
:1002A000FFFFFFFFFFFFFFFFFFFFFFFFFFFFFFFF5E
:1002B000FFFFFFFFFFFFFFFFFFFFFFFFFFFFFFFF4E
:1002C000FFFFFFFFFFFFFFFFFFFFFFFFFFFFFFFF3E
:1002D000FFFFFFFFFFFFFFFFFFFFFFFFFFFFFFFF2E
:1002E000FFFFFFFFFFFFFFFFFFFFFFFFFFFFFFFF1E
:1002F000FFFFFFFFFFFFFFFFFFFFFFFFFFFFFFFF0E
:10030000FFFFFFFFFFFFFFFFFFFFFFFFFFFFFFFFFD
:10031000FFFFFFFFFFFFFFFFFFFFFFFFFFFFFFFFED
:10032000FFFFFFFFFFFFFFFFFFFFFFFFFFFFFFFFDD
:10033000FFFFFFFFFFFFFFFFFFFFFFFFFFFFFFFFCD
:10034000FFFFFFFFFFFFFFFFFFFFFFFFFFFFFFFFBD
:10035000FFFFFFFFFFFFFFFFFFFFFFFFFFFFFFFFAD
:10036000FFFFFFFFFFFFFFFFFFFFFFFFFFFFFFFF9D
:10037000FFFFFFFFFFFFFFFFFFFFFFFFFFFFFFFF8D
:10038000FFFFFFFFFFFFFFFFFFFFFFFFFFFFFFFF7D
:10039000FFFFFFFFFFFFFFFFFFFFFFFFFFFFFFFF6D
:1003A000FFFFFFFFFFFFFFFFFFFFFFFFFFFFFFFF5D
:1003B000FFFFFFFFFFFFFFFFFFFFFFFFFFFFFFFF4D
:1003C000FFFFFFFFFFFFFFFFFFFFFFFFFFFFFFFF3D
:1003D000FFFFFFFFFFFFFFFFFFFFFFFFFFFFFFFF2D
:1003E000FFFFFFFFFFFFFFFFFFFFFFFFFFFFFFFF1D
:1003F000FFFFFFFFFFFFFFFFFFFFFFFFFFFFFFFF0D
:10040000FFFFFFFFFFFFFFFFFFFFFFFFFEFFFFFFFD
:1004100010B5064C2378002B07D1054B002B02D0DA
:10042000044800E000BF0123237010BD74FEFF1FCD
:10043000000000002868000008B5084B002B03D01E
:100440000748084900E000BF07480368002B03D0B5
:10045000064B002B00D0984708BDC04600000000A6
:100460002868000078FEFF1F74FEFF1F00000000D8
:1004700038B5051C081C0C1C04F040FE2B68021C3F
:100480005B68281C211C984738BD08B5FFF7F0FFB2
:1004900008BDD2B208B5002A03D103681B6898478B
:1004A00013E00A2A01D0012A03D1002203F01EFA28
:1004B0000BE0102A02D103F052FA06E0022A02D120
:1004C00003F064FA01E003F076FA08BD38B5041CC5
:1004D000FFF7CEFF051C201C03F0E4F9281838BDF7
:1004E00038B52F4C2F49201C00F052FE2E4DE12232
:1004F000201C291C520200F03CFE201C012100F0AF
:1005000021FE00280AD02949606CFFF7BEFF201C9D
:100510000A2100F0B7FD201C00F02AFE0122201C59
:10052000002100F096FE281C042103F081FA1D48EA
:1005300002F0DCF91E4C70212034201C01F022FA5C
:10054000201C0B2101F0EAF91A4C71212034201CE7
:1005500001F018FA201C0B2101F0E0F9164C722171
:100560002034201C01F00EFA201C0F2101F0D6F9D6
:10057000124D0024281C01F05EF8A1B20022281CB4
:1005800001F031F9281C01F0A9F80134052002F02E
:10059000ADF90E2CF1D10A4800F0AAFC38BDC046D6
:1005A00064FFFF1FB80B000044010020AC5C00009A
:1005B000D8FEFF1F90FEFF1F0CFFFF1F48FFFF1F0D
:1005C000C4FEFF1F7FB50B4D061C2C1C2034201CC5
:1005D00001F0F6F908230093102300210193012371
:1005E000281C02930A1C331C01F001FE201C01F0A0
:1005F0000BFA7FBD0CFFFF1F1FB50822084C0092AD
:100600001022002101920122031C0292201C0A1CCC
:1006100001F040FE201C203001F0F6F91FBDC0465D
:100620000CFFFF1F7FB50C4D061C2C1C2034201C1A
:1006300001F0C6F933B20222053636B20192012228
:10064000281C009602920021032201F030FD201C9C
:1006500001F0DAF97FBDC0460CFFFF1F7FB51B4ECE
:100660000124351C2035281C01F0AAF90A23009327
:100670000223002104220193301C0623029401F07E
:1006800016FD281C01F0C0F9114E351C2035281C20
:1006900001F096F9082104220523301C009401F092
:1006A0007DFB281C01F0B0F90A4E351C2035281CB2
:1006B00001F086F9301C082104220523009401F082
:1006C0006DFB281C01F0A0F97FBDC0460CFFFF1F89
:1006D000D8FEFF1F90FEFF1F10B5031C00201A78E4
:1006E000111C3039CCB2092C02D80001401806E0A8
:1006F000111C4139052904D80001373A801801330B
:10070000EDE710BD10B50C4801F070F90B4801F091
:100710006DF90B4801F05CF90A4800F05BFB0A4CEC
:10072000C623201C0E21062201F046F8201C074992
:10073000074A04F081FB10BDD8FEFF1F90FEFF1F8B
:100740000CFFFF1FC4FEFF1F48FFFF1F191600000C
:1007500060FDFF1FF7B5154F051C3C1C2034201C05
:100760000E1C01F02DF908232DB236B2009301239F
:10077000291C00220193381C331C01F061FA201C53
:1007800001F042F90A4F3C1C2034201C01F018F9FA
:10079000082300930123381C311C019300222B1CD9
:1007A00001F04EFA201C01F02FF9F7BDD8FEFF1F13
:1007B00090FEFF1F08B50448FFF704FF0320042143
:1007C000FFF7C8FF08BDC0467D5C000008B50448BF
:1007D000FFF7F8FE02200521FFF7BCFF08BDC04669
:1007E0008D5C000008B50620FFF71CFF07200121E3
:1007F000FFF7B0FF08BDFFFF08B50448FFF7E2FEB2
:1008000001200321FFF7A6FF08BDC0469D5C000044
:1008100008B50448FFF7D6FE0420011CFFF79AFF35
:1008200008BDC046D55D000073B51448FFF7CAFE89
:10083000134D01262C1C2034201C01F0C1F8072187
:1008400003230022009301960B1C281C01F0F8F9E9
:10085000201C01F0D9F80B4D2C1C2034201C01F079
:10086000AFF80723281C00930196191C042201F0FD
:10087000E7F9201C01F0C8F873BDC046E55D000033
:10088000D8FEFF1F90FEFF1FF0B5C24DA7B02B682A
:10089000002B02D12B68012B0FD9BF4C201C00F07C
:1008A000F7FBBE4B1860BE4B1A68904200D218602E
:1008B0001968421AF92A00D937E2BA4E301C00F002
:1008C0007BFBB94C2A682368D21AFA239B009A4210
:1008D0000ED9301C00F09AFA8168026843680091D2
:1008E000C068B2490190B24802F0F4FF2D6825605B
:1008F00002F008FD002800D151E2AD4D0DA8291CE1
:10090000782203F097F80DA8AA4903F062F92C1C8D
:10091000002806D0A849281CFFF7D8FDFFF74AFF9A
:10092000FFE10DA8A54903F054F9002806D0A44919
:10093000281CFFF7CBFDFFF749FFF2E10DA8A14905
:1009400003F047F9002806D09F49281CFFF7BEFD99
:10095000FFF748FFE5E10DA89C4903F03AF90028AC
:1009600006D09B49281CFFF7B1FDFFF751FFD8E1E6
:100970000DA8984903F02DF9002806D09649281CA7
:10098000FFF7A4FDFFF750FFCBE10DA8934903F05B
:1009900020F9002806D09249281CFFF797FDFFF7A1
:1009A0005DFEBEE10DA88F4903F013F9002806D0C3
:1009B0008D49281CFFF78AFDFFF71EFFB1E10DA846
:1009C0008A4903F006F9021E1CD08949281CFFF74A
:1009D0007DFD884C2034201C00F0F2FF201C01F02B
:1009E00013F8854C2034201C00F0EAFF201C01F095
:1009F0000BF8824C2034201C00F0E2FF201C01F098
:100A000003F88EE1032319A80DA903F01FF97C490F
:100A100019A803F0DEF8051C19A803F051F819A86D
:100A20000DA9002D20D00322042303F00FF900218B
:100A300019A803F0E3F819A803F042F8201C714943
:100A4000FFF723FD0322042319A80DA903F0FEF8E4
:100A500019A9201C02F005FF19A803F031F8201C89
:100A60006949FFF733FD5CE10022032303F0EEF850
:100A700019A8664903F0ADF8051C19A803F020F881
:100A8000002D3CD011A80DA90322572303F0DEF856
:100A900000240622624315A8931D11A903F0D6F87D
:100AA0003222002319A915A803F0B6F819A8FFF7F8
:100AB00013FE3F4E051C291C301C02F050FF301C59
:100AC00002F0F0FEFF2328122A1418401A40504E5C
:100AD0000134000412021D400243611E89B22A4300
:100AE000301C00F080FE301C00F0F8FD052001F005
:100AF000FDFE15A802F0E4FF0E2CCAD102E12A1C6B
:100B000019A80DA9032303F0A1F819A8414903F07E
:100B100060F8051C19A802F0D3FF002D00D1F5E004
:100B200011A80DA90322042303F090F811A83A4953
:100B300003F04FF80826002800D01026B51C6D00E1
:100B40002B1C15A80DA9042203F080F8043D09A868
:100B500032490F2204F0CEF905950025AF1C2A1C5E
:100B600019A815A93B1C03F071F80A2207A9002354
:100B700019A803F051F807A8FFF7AEFD6D1009ABF7
:100B8000585519A802F09CFF059A974248DA3D1C77
:100B9000E4E7C0461C00002064FFFF1F60FFFF1F4A
:100BA00044FFFF1FC4FEFF1F40FFFF1FC05C00008B
:100BB00044010020E35C0000DB5C0000F55C000009
:100BC000ED5C0000055D0000FD5C0000135D0000B1
:100BD0000B5D0000235D00001B5D0000335D000025
:100BE0002B5D0000445D00003C5D0000495D00009D
:100BF0004F5D00000CFFFF1FD8FEFF1F90FEFF1F80
:100C00005D5D0000615D0000755D0000775D0000C6
:100C100048FFFF1F7B5D00007F5D00006E5C0000F1
:100C200011A8604902F0D5FF002820D05E480025B9
:100C3000203000F0C5FE5D485D49FFF726FC291C09
:100C4000201C02F083FE09AF5A49201CFFF71DFC4F
:100C5000E95D201C10220135FFF71BFCB542EEDBDD
:100C6000201C5449FFF732FC381CFFF7C5FC11A8C3
:100C7000514902F0AEFF002805D111A84F4902F0FA
:100C8000A8FF00283BD04E49201CFFF7FEFB11A90E
:100C9000201C02F0E6FD201C4649FFF7F6FB00256C
:100CA000291C201C02F052FE09AF4249201CFFF70C
:100CB000ECFBE95D201C10220135FFF7EAFBB54291
:100CC000EEDB201C3B49FFF701FC11A83A4902F07A
:100CD00080FF041E50D03B4D2C1C2034201C00F003
:100CE0006FFE082300930193002101230293281C27
:100CF0000A1C3B1C01F0CEFA201C00F085FE15A852
:100D000002F0DEFE11A802F0DBFE0AE02E49201CF4
:100D1000FFF7DCFB201C0DA902F0A3FD201C02F054
:100D2000C1FD0DA802F0CCFE39E0FA21186049009F
:100D3000201C00F0B3F9201C012100F003FA002868
:100D400012D0201C012100F0B5F92049606CFFF79A
:100D50009CFB29680022606C02F0C8FD201C00F09A
:100D6000DFF9201C00F004FA201C052100F08AF9AC
:100D7000201C00F0E1F9A0E5154E351C2035281C9B
:100D800000F01EFE08230093019301230293301C00
:100D9000211C221C3B1C01F07DFA281CADE727B06A
:100DA000F0BDC0467F5D00000CFFFF1F4401002026
:100DB000815D0000755D0000475D0000195D000069
:100DC000BE5D000090FEFF1F965D0000BE5C00004F
:100DD000D8FEFF1F002310B50374FF23041C4374C7
:100DE0000420011C04F030F820600420011C04F0F1
:100DF0002BF860600420011C04F026F80121A0609B
:100E0000042004F021F8E060201C10BD70B5027CC5
:100E1000031C0068002A0CD09D685C680023E95818
:100E2000E6588A1BD143C9170A40C2500433102B1D
:100E3000F5D170BD0B078021C9031943074BA022D0
:100E40001960013AFDD11A1C054B1B681907FBD428
:100E50001023013BFDD1106880B27047045004405C
:100E600000500440F7B5037C041C002B3BD0002548
:100E7000E268201C515DFFF7DDFFC3436268DB17AA
:100E80001840AB00D050A2680135D050042DEFD1EE
:100E90000A2300930025E268201C515DFFF7CAFF7A
:100EA000C3436268061CDB171E40AB00D7180193D2
:100EB0003B6803215800301803F03EFFA268019BF5
:100EC0003860D7183A68084808495043301803F08A
:100ED00033FF01353860042DDDD1009B013BDBB2CF
:100EE0000093002BD6D1F7BD0F270000102700007C
:100EF000C268022310B51370C26803235370C2681E
:100F00000E239370C2680F23D370C168041C0023A2
:100F1000C85CDAB2FF2804D11349144802F0DAFCA5
:100F200021E00133042BF3D1114A0023916A1420EC
:100F30000B60516BFC320B601169D2690B6013605E
:100F40000C4B20211A680A431A600B4B80211A6847
:100F50008A431A60094A1A6001F0C8FC201CFFF796
:100F600081FF0123237410BDF45D000044010020C3
:100F700090640000388004400050044080A9830041
:100F80000B078021C9031943024B1960A023013BC1
:100F9000FDD1704704500440054B1B681A0703D469
:100FA000044B186880B201E0012040427047C046FF
:100FB000005004400450044070B5037C041C002B16
:100FC00031D0437CFF2B05D10021FFF7D9FF00234F
:100FD000637428E0144B1B681A0724D5FFF7DCFF65
:100FE000C343667C051CDB171D406368B6009E1971
:100FF000326803215000281803F09EFE3060667CA2
:10100000A368B6009E193268084809495043281859
:1010100003F092FE3060617C03230131194061745A
:10102000201CFFF7ADFF70BD005004400F270000EB
:1010300010270000094B00201B7883420CD0084B7E
:101040001B789A0708D0074B1868074B1B68C01A13
:1010500018238342804140427047C046FF00002071
:10106000100100201C00002038090020044B1A68E1
:10107000181C89180368934201D38B42FAD9704730
:101080001C00002008B50122FFF7F0FF08BDFFFF9C
:10109000014B18687047C0461C00002000234361C4
:1010A00083680161C360024B1B6883607047C04660
:1010B0001C000020164B70B5041C0D1C406C15491B
:1010C0001E68FFF7E2F9291C0022606C02F00EFC9A
:1010D000606C1149FFF7D9F9311C0022606C02F0F5
:1010E00005FC0E4D606C291CFFF7CFF9A3680022A8
:1010F000F11A606C02F0FAFB291C606CFFF7C5F96D
:10110000A168E368606CC91A002202F0EFFB70BDB1
:101110001C000020105E0000175E0000195E000039
:1011200010B5446C0349201CFFF7A2F9201C02F003
:10113000B9FB10BD1B5E0000014B1B68836070474C
:101140001C00002038B5041C084D002909D12B686B
:1011500042689B1A632B04D86421C91A0122FFF745
:1011600085FF2D680120656038BDC0461C00002049
:10117000704710B541641B24FFF75CFF002806D1BF
:10118000013C002C03D0C82001F0B0FBF4E710BDF7
:1011900008B5002383644360994201D0FFF772FFD2
:1011A00008BD406C08B50368DB689847C0B208BD4D
:1011B000406C08B503689B689847C0B208BDFFFF44
:1011C00038B50B4B041C1B680D1C43600949406C6F
:1011D000FFF75BF9291C0022606C02F087FB606C52
:1011E0000549FFF752F9201C3221FFF74BFF38BDAC
:1011F0001C000020225E0000295E000070B5037E06
:10120000051C0E1C6320002B22D0281CFFF7D0FFEA
:10121000002801D165201BE0281CFFF7C9FF00282A
:10122000F8D0281CFFF7BDFF682810D008D8582830
:101230000BD06328F0D1281C311CFFF7C1FF06E05A
:10124000712804D07628E7D102E000232B766320B2
:1012500070BD38B5041C151C002901D1257638BD98
:1012600001230376201C0021FFF7C8FF6328F5D077
:10127000201C0121FFF706FFF4E7FFFF034B0022CC
:101280009A60DA601A615A617047C04664FFFF1FB6
:10129000044BD878044BC0B21A68904200D0186052
:1012A0007047C0460060064064FDFF1F10B50C4B40
:1012B000041C1B78002B04D10A4A181C1278002A3F
:1012C0000CD0094A1378202B03D901232371002065
:1012D00004E0581C1070054A0120D15410BDC046CE
:1012E00016000020D9FFFF1F17000020B8FFFF1FC6
:1012F0007047FFFF024B1878024B1B78C01A7047EB
:101300001500002014000020064A074913780978C8
:10131000994204D9591C1170044AD05C01E00120A3
:10132000404270471400002015000020DAFFFF1F24
:10133000054B064A1B7812789A4202D9044AD05CBF
:1013400001E00120404270471400002015000020F9
:10135000DAFFFF1FF8B50E4B071C1878141C002885
:1013600003D10C4B1B78002B10D00B4E212335786A
:101370005B1B9C4202D901223A711C1C0748221CAB
:1013800040192D1903F0B6FD3570201CF8BDC0467C
:1013900016000020D9FFFF1F17000020B8FFFF1F15
:1013A000002303710373034BFA2292000833826017
:1013B00003607047805E00000C4B00221A700C4BDB
:1013C00040201968014319600A4B0B499A70992211
:1013D00092000A6009490A601F225A7002229A711B
:1013E00020225A7180229A707047C046D9FFFF1F91
:1013F00034800440006006400CA0044008A0044073
:1014000038B53C4C1023E578EDB21D4203D14022A3
:101410002A4004D127E0E3706B06F8D468E0042387
:101420001D40354B17D000221A70344B344D1B68C9
:101430002A70934200D098472A78324B002A02D172
:10144000012129701A70D022A2701B780122237109
:101450002D4B1A704AE001221A702C4B1D70C023CC
:10146000A370237942E0A3796021DBB2194060299F
:101470000CD120218B431F498B71254B1B68002BFE
:1014800004D024490A70214A10789847A178102284
:10149000184B0A4016D0012215400FD11A4918489E
:1014A0000A780078904205D9501C087015498A5C6A
:1014B0001A7100E01D71D023A37017E0C0229A704A
:1014C0001B7913E014490A709A7920210A439A7112
:1014D0000E4A19791378C9B21F2B07D8064800782D
:1014E000002803D0581C10700C4AD1540223E3701A
:1014F00038BDC04600600640B0FFFF1FFCFFFF1F65
:1015000017000020B8FFFF1F180000201500002062
:10151000B4FFFF1F1400002000000020DAFFFF1FAF
:10152000044B054A4900197001231370034A1370D4
:101530007047C046B8FFFF1F1600002017000020AC
:10154000F8B5284C1223E370A3780E1C9A0601D537
:10155000B42313E0244F3D68FFF79AFE2023184080
:1015600009D03B685B1B0F2BF6D90023A3708023A7
:10157000A370042034E01D4B1870B023A370FFF754
:1015800087FE8306FBD50025194B1B78AB421FD97C
:10159000184B5B5D2371FFF77BFE820701D4830646
:1015A000F9D40223E3700F4FFFF772FEC20601D495
:1015B000830603D48023BB7004200AE0C20704D54D
:1015C0006B426B410320C01A05E00135EDB2DBE749
:1015D0000020002E01D08023A370074B00221A7038
:1015E000F8BDC046006006401C000020D9FFFF1F68
:1015F00017000020B8FFFF1F1600002008B50121CA
:10160000FFF79EFF08BDFFFF08B50248FFF7C8FEC1
:1016100008BDC0460400002010B5041CC06803F0DB
:101620005FFCE08803B2002B03DBC0B2002101F0B5
:1016300005F9201C10BD10B5041CC08803B2002B96
:1016400007DBC0B2012101F0F9F8A079002101F017
:10165000D5F80123637010BD70B5041CC0680E1C62
:1016600003F03EFC237CE57CED1A6B1E9D410335A7
:101670007543ADB2A580281C03F028FCE06000286B
:1016800005D000212A1C03F057FC668001E0A080F1
:10169000608070BD037C70B5C57C8C11ED1A6B4207
:1016A0005D410A1103238E101E401C401A400B405E
:1016B00046748374FF2600238E425B410370C36827
:1016C000EDB2C4740274002B07D0A21A53425341E6
:1016D000AB4202D04188FFF7BFFF70BDF8B5C368C9
:1016E000041C002B00D147E001F0DCF86369C01A4C
:1016F0002C23FF339842F7D972B60623E15E0C2003
:1017000048431E4BA2881918C058097A0430E36870
:101710001D782D0607266D0008D201700427013FB1
:10172000FDD101710D27013FFDD108E001700D27AA
:10173000013FFDD101710427013FFDD1C046013EAB
:10174000E9D16D0008D201700427013FFDD101717C
:101750000A27013FFDD108E001700D27013FFDD1AF
:1017600001710127013FFDD1C0460133013ACFD1BC
:1017700062B601F097F86061F8BDC0469064000061
:1017800038B54378041C0D1C002B07D0C08803B269
:10179000002B03DBC0B2002101F050F86378E58034
:1017A000002B08D0ECB2201C012101F047F8201CCE
:1017B000002101F023F838BD70B5041C00200E1C78
:1017C0006070191C2072E0606061201C151CFFF71E
:1017D00061FF311C201CFFF73FFF201C291CFFF775
:1017E000CFFF201C70BD4388F7B58B4234D9037AF4
:1017F000150C140A002B05D1E4B20094D4B2EDB25A
:10180000A4460BE0FF263540344016405C435E435F
:101810005D43240A360A2D0A0094B446077CC67C30
:101820000197019CC768B44203D1032359437F1831
:101830000AE089007F18120EBE19002B01D1D3B225
:1018400001E053431B0A3370037C009EFD54437C2C
:101850006246FE54837CFA54F7BD10B5047E022C18
:1018600008D0032C0BD0002C0FD10724641A111CB4
:1018700022B20AE00F24A41A0A1C21B205E00F24A8
:10188000611A0724A21A09B212B294B2072C10D816
:101890008CB20F2C0DD8012452008C408018211CD2
:1018A000002B03D0038C1943018402E0038CA34373
:1018B000038410BDF0B596B2072E27D88DB2072D40
:1018C00024D8077E0724022F07D0032F0AD0012F28
:1018D0000BD1A41B0A1C21B207E0611BA21B09B299
:1018E00012B202E0641B111C22B20724073121400E
:1018F000012452008C408018211C002B03D0038C43
:101900001943018402E0038CA3430384F0BD08B5AE
:101910000368C9B21B68984708BDFFFF70B50B4C40
:101920000D1C017C201CFFF7FBFD261C2B1C0F2D22
:1019300000D90F23202149420B43D9B2201CFFF7C5
:10194000E6FF301CFFF75AFE70BDC04604000020C1
:1019500038B50B4D0C1C017C281CFFF7E1FD032260
:101960000023A2425B415B421C4064008121214371
:10197000281CFFF7CCFF281CFFF740FE38BDC046EF
:101980000400002038B50D4D041C0174281CFFF71D
:1019900013FD281C217CFFF7C3FD281C2121FFF724
:1019A000B6FF281CFFF72AFE201C0021FFF7D0FFFE
:1019B000201C0F21FFF7B2FF38BDC04604000020F5
:1019C00000230022C2520233102BFAD17047FFFFCE
:1019D00010B508211022041C00F0C6F9024B201C8F
:1019E0000833236010BDC046A05E000010B508217A
:1019F0000A1C041C00F0B8F9024B201C08332360B9
:101A000010BDC046F05E000070B50D4D017C061C97
:101A1000281CFFF785FD281C0021FFF747FC002448
:101A2000315D281CFFF773FF315B281C091202345B
:101A3000FFF76DFF102CF3D1281CFFF7DFFD70BD01
:101A400004000020F0B587B01E1C0CAB071C151C51
:101A500000201B5E0DAA12880C1C591B0492CA1789
:101A600089185140321BD01712184240914208DDAC
:101A7000321C01211E1C131C221C01912C1C151C44
:101A800001E000220192B44205DD2A1C1D1C131C3A
:101A9000221C341C161C321B92B202925A1BD11704
:101AA000501848400590029802B2D10F8A1852107F
:101AB00092B200929D4202DA012103911FE0154A81
:101AC00003921CE001983B6800281BD01969381C60
:101AD0008C46221C291C049BE04700980599431A58
:101AE0009BB29AB2009212B2002A06DA02990398C7
:101AF0005B182D189BB22DB20093013424B2B4426E
:101B0000E0DD05E01A69381C9446211C2A1CE2E736
:101B100007B0F0BDFFFF0000704710B50468A4686F
:101B2000A04710BD37B506AC258804680095246B26
:101B3000A04737BD37B506AC258804680095646BAF
:101B4000A04737BD73B506AC0025665F07AC258896
:101B5000046800960195A46BA04773BD7047F0B56B
:101B600085B01F1C0AAB1B88161C03930368013F3A
:101B7000DB68041C0D1CBF199847039A23683FB209
:101B8000019200971F6A201C291C321C2B1CB8478D
:101B90002368201C5B6A984705B0F0BDF0B585B09E
:101BA0001F1C0AAB1B88041C039303680E1CDB6814
:101BB000151C9847039922687B1E019100959B197B
:101BC000176A201C311C2A1C1BB2B8472368201C32
:101BD0005B6A984705B0F0BDF0B587B003930CABD6
:101BE0000E1C171C0022995E0DAB1B8804910593F7
:101BF0000368041CDB689847351C039BF2182368B4
:101C000095420BDA0599201C00919A69291C94468B
:101C1000049B3A1C0135E0472DB2EEE75B6A201CBD
:101C2000984707B0F0BD37B50A24035F0C25445F21
:101C30000268019100940021946B0A1CA04737BDF3
:101C4000F0B585B002930AAB0E1C00215F5E0BABB2
:101C50001B88151C0393029B041C02689E420BD137
:101C6000BD4202DD2B1C3D1C1F1C03997B1C5B1B12
:101C700000911BB2176B0EE0BD4211D1029B9E4238
:101C800002DD331C029E0293029B039901330091F3
:101C90009B1B576B1BB2201C311C2A1CB8470FE042
:101CA000D3689847039A2368019200971F6A201C03
:101CB000029B311C2A1CB8472368201C5B6A98478A
:101CC00005B0F0BDF0B585B01F1C0AAB151C0E1C8D
:101CD0000022995E0BAB1B88039102930368041CDE
:101CE000DB689847029923680091DA69201C9446C2
:101CF000311C2A1C3B1CE04702992368039A00917F
:101D0000D969013A52198C46201C311C3B1C12B275
:101D1000E047029A236800929969201C8C462A1C8D
:101D2000311C039BE047029A2368013F0092BE19D1
:101D300031B29F69201C2A1C039BB8472368201CD2
:101D40005B6A984705B0F0BD7047032319400176E0
:101D5000C3880289012904D0032902D043818281EA
:101D600001E042818381704710B50B4C0281828172
:101D7000012200230834C180418151420371046073
:101D80000376C3810382C275827581824182427665
:101D90008376C36110BDC046405F0000F0B58BB0D4
:101DA000069310AB0F1C1B88069901938DB201237B
:101DB0005B1B9BB204936B005B429BB2099303686D
:101DC000041CDB68161C98472368B2B2196902929A
:101DD000AA188C4612B2391C201C019BE0472368CC
:101DE0000299201C4A1B196912B28C46019B391CAE
:101DF000E047BFB22368E919039709B21F69201CA5
:101E0000321C019BB847039A2368551B1F6929B2EE
:101E1000019B201C321CB847002308930899069A9E
:101E20000BB293427FDA04990BB2002B0CDB069BBA
:101E3000013B1AB2099B06920233049A9BB299B2F3
:101E40009B189BB209910493089B04999BB205933C
:101E50005B000333CB189BB20493039F069B059A48
:101E600002999BB201375D18D719079323683FB2D7
:101E70002DB21E69391C2A1C201C019BB047039EF1
:101E8000059A2368013E1969B61A36B28C462A1C97
:101E9000311C201C019BE047029A079B201CD51A8D
:101EA00023682DB219692A1C8C46019B391CE04716
:101EB0002368311C1F692A1C201C019BB847029D06
:101EC000079A039B05990135D7184D1923683FB22E
:101ED0002DB21E69391C2A1C201C019BB047039A95
:101EE000079B201CD61A236836B219692A1C8C4617
:101EF000019B311CE047029D059A2368013D196949
:101F0000AD1A2DB28C46201C391C2A1C019BE047BF
:101F100023682A1C1F69201C311C019BB847089AA2
:101F2000013208927AE72368201C5B6A98470BB05D
:101F3000F0BDF0B58BB0029310AB1B78041C089376
:101F400011AB1B88029807920393012283B2D21A25
:101F50005B0092B25B4204929BB20022069109930D
:101F600005920598029A03B2934200DB9DE0049823
:101F700003B2002B0CDB029B013B1AB2099B0292BD
:101F80000233049A9BB298B29B189BB209900493B7
:101F9000059B04989BB201935B000333C318089A16
:101FA0009BB2049352071CD5069B07989EB285B23C
:101FB000029A23680198711C97B2411818697A191E
:101FC00009B212B28446039B201CE04701982368A3
:101FD0006A1C8218BE191D6931B212B2201C039B03
:101FE000A847089A92071CD5069B07989EB285B20F
:101FF000029A23680198711C97B241181869EA1B6C
:1020000009B212B28446039B201CE0470198236862
:102010006A1E121ABE191D6931B212B2201C039B2E
:10202000A847089A12071CD5069B0298079A9FB2E8
:1020300086B22368019895B26A1C82181869B91B88
:1020400009B212B28446039B201CE047019A236820
:10205000791E891A75191F6909B22AB2201C039BBF
:10206000B847089BDB071CD50698079B029A87B2E6
:102070009EB20198236895B2721E121A1869791BD4
:1020800009B212B28446039B201CE047019A2368E0
:10209000791E891A751B1F6909B22AB2201C039B7D
:1020A000B847059B013305935BE70BB0F0BDF0B576
:1020B0008DB01E1C12AB171C0B910022995E13AB46
:1020C000049114AA128800215B5E04990392041CF7
:1020D0000A1CB14200DD321C12B2D10F8A18521014
:1020E000151C9A4200DD1D1C23682AB20692201C92
:1020F000DB6898470B9BA9B29BB26D00CA186D4272
:102100000591ADB211B2B6B2039A0893099623684D
:10211000AE19009236B20A950791DD69201C3A1C6F
:10212000331CA847049BBFB29DB27B1EEB189BB229
:102130000493049923680AB20399201C0091D96979
:10214000331C8C460799E047059A0A9B0399D719D7
:102150005D1923683FB200912DB29E69201C0B9936
:102160003A1C2B1CB047089E099A013E9619039A07
:10217000236800929A69B6B2944631B2201C3A1C88
:102180002B1CE04701230093039B201C019307991C
:102190003A1C069BFFF7CDFE0599039A761A36B2D4
:1021A000022300930192201C311C3A1C069BFFF76E
:1021B000C0FE049B0599039A5D1A2DB20423009377
:1021C0000192201C311C2A1C069BFFF7B2FE08233B
:1021D0000093039B201C019307992A1C069BFFF781
:1021E000A8FE2368201C5B6A98470DB0F0BDF0B5CF
:1021F0008BB0079310AB041C05910021585E11AB06
:102200000290069200201A5E12AB1B880892099376
:102210002368201CDB689847029B00250733DA17E8
:10222000520FD318DB1003932F1C2E1C069A08980C
:10223000BB189BB204933BB2834225DA0021019183
:10224000019A029891B20BB2834219DA4A0702D07E
:102250007600F6B203E00798DB104219D65C73B241
:10226000002B0ADA2368059A0498891802B21869C3
:1022700009B28446099B201CE04701990131DEE741
:10228000039901376D18D1E72368201C5B6A9847D2
:102290000BB0F0BDF0B58BB0079310AB041C0591EB
:1022A0000021585E11AB0290069200201A5E12AB1C
:1022B0001B88089209932368201CDB689847029BBF
:1022C00000250733DA17520FD318DB1003932F1CA6
:1022D0002E1C069A0898BB189BB204933BB283420B
:1022E00025DA00210191019A029891B20BB2834242
:1022F00019DA4A0702D07600F6B203E00798DB103D
:102300004219D65C73B2002B0ADA2368059A049846
:10231000891802B2186909B28446099B201CE0475B
:1023200001990131DEE7039901376D18D1E7236880
:10233000201C5B6A98470BB0F0BDFFFFF0B595B06D
:102340001E1C1AAB1B88041C09931BAB1F881CABFB
:102350001D781DAB1B780C910393C3690592002B6C
:1023600000D0C3E00A21435E0C9A934200DC4CE1AA
:102370000C21435E059A934200DC46E106236B4341
:102380000C99CB18002B00DC3FE1039A0599D30090
:10239000CB18002B00DC38E1837E002B03D1AF2E5D
:1023A00001D90136F6B22368201CDB689847052363
:1023B0005E4300220E9608930A920A99944A4BB201
:1023C0000E995218D25C9BB206936B4307920C9AFB
:1023D000002196B2F3189BB20D9308230B9304913E
:1023E000079AD20721D5049B20685AB2012D0DD13E
:1023F000039901290AD1069B9919059B09B2D218A4
:10240000036912B29C46201C099B23E0039B0D9993
:102410005A4309B20F9105992BB25218039912B27F
:1024200009B200910999019123E0099A974225D0B8
:10243000049B20685AB2012D0ED1039901290BD1BA
:10244000069B9919059B09B2D218036912B29C46E2
:10245000201C3B1CE04711E0039B0D995A4309B235
:102460000F9105992BB25218039912B209B200913B
:1024700001974169201C8C460F99E047049B079AFD
:102480000133DBB204930B9B5208013BDBB2079292
:102490000B93002BA4D10A9B0133DBB20A93089B58
:1024A000013BDBB20893002B87D1099B9F4200D1EF
:1024B000A7E02268012D0BD10399012908D1053627
:1024C0000097956931B2201C059A0823A84798E027
:1024D000052169432BB2039D7618E800009001970F
:1024E000556931B2201C059AA8478AE01A7A5968C2
:1024F000B61AF6B2F6008E1932881B68F17810937E
:102500000692B3787279B6790B9311910D920E966B
:10251000012D02D8039B012B08D90D990E9A4BB2BD
:102520009BB20A9353B29BB2089302E00023089334
:102530000A9323680026DB68201C984707960496B8
:10254000119AF3B293425CD2059B08999BB2039A0D
:102550000F93731853430F990027CB189BB2139313
:10256000079B0B9A974245D25A1CD2B21292590736
:1025700007D1069B0699109A0133525C9BB20492D4
:10258000069304994BB2002B2CDA2068012D14D14C
:10259000039A012A11D10D9B0C9A59B20E9B8918EE
:1025A0005AB20F9B79189A180369B2189C4609B25F
:1025B00012B2201C099BE04714E00A9A0C9B11B24E
:1025C000C9196943C918139B09B21AB22BB20293F5
:1025D000039B1BB20093099B01934369201C9C46FB
:1025E000029BE047049901374B00DBB20493FFB232
:1025F000129BB6E7079901368B18DBB20793B6B288
:102600009EE72368201C5B6A984715B0F0BDC04662
:10261000905F0000F0B5C26987B0041C0B1C002A53
:102620002AD10A2903D1C37DC281DB002BE00D2909
:1026300074D0417EA57DC07D00290DD00E26A15FFE
:1026400006266E438E190A27E15F8E4204DD218A39
:10265000E281C200521822820E22A15E1026A25FE1
:10266000668A03900096A68A02950196201CFFF7C1
:1026700065FEA27D06234DE00A2908D10023C3810F
:10268000927AC37D5343228A9B18238246E00D2908
:1026900044D0157AA94241D3517A99423ED35D1B69
:1026A000EDB25768ED007D19A87804900499E87898
:1026B00000292DD000282BD06E79677EB446E07DAE
:1026C000A67D002F17D00E21675E059767467FB263
:1026D000BC46049F391C61447143059F7F18BC466A
:1026E0000A21675EBC4506DD0021E181927A218ADC
:1026F0004243521822820E22A15E1027E25F678AAF
:1027000003900097A78A02960197201CFFF716FEF8
:102710002A79A37D5343E2899B18E381012007B006
:10272000F0BDFFFF024B1A6801321A607047C046C5
:102730001C00002010B50B4C23685A0301D500F093
:1027400015FA23685A0501D501F032FD23681A05F0
:1027500001D501F059FF2368DA04ECD502F0CAF97B
:10276000E9E7C0463480044008B5FFF7E3FFFFFF08
:10277000014B00221A607047008104407047FFFF40
:10278000024A136818181060181C704768FDFF1F74
:1027900000207047012040427047012040427047AE
:1027A000FEE7FFFFEFF31380002821D1EFF3108243
:1027B000002A1FD1EFF30583002B0FD0101C0F2B25
:1027C0000ED91A1C103A92080B49032092000340BC
:1027D000521883401068D840C0B201E08020400009
:1027E000EFF31182002A05D0824203D2101C01E0CF
:1027F000012040427047C04600E400E010B51A28AE
:1028000018D80C2358430C4A835810181C7D027AA0
:10281000224205D0002901D01A710BE01A7209E09A
:1028200043681A68002902D003210A4301E002210B
:102830008A431A6010BDC0469064000010B51A2883
:102840002CD80C235843164A141863688258247AEB
:10285000012905D1117D0C431475A22252001CE000
:10286000107DA0431075002902D08A1E012A12D8BB
:10287000802252001A60022903D11A6803210A43F8
:102880000BE003290AD11A6802210A431A601A6868
:1028900001218A4301E00422FF321A6010BDC046C4
:1028A0009064000072B60C4B0C491A680C4B1B6804
:1028B000096862B6480104D53221914289414942F2
:1028C0005B18FA20800043430648821A06484243B8
:1028D000920D98187047C04618E000E004ED00E043
:1028E0001C0000207FBB00005555010038B5041CBA
:1028F000FFF7D8FF051C002C0FD0FFF7D3FF074BC5
:10290000401B984206D9013C002C06D0FA239B00BC
:10291000ED18F2E701F0BCF9EFE738BDE70300007E
:102920001C4B8022D20510B51A60802212061A6054
:10293000194B002018601949194B1A4A19602823AD
:102940001360194A194C1360194A1360194A13602D
:10295000194A1360194A136009222260184C20603A
:10296000184C2160184C2360184C2360184C2260CE
:10297000184C20601848016018490B6018490B601A
:10298000184B1A6001F0A8F9FA20FFF7AFFF00F02A
:10299000D5FB10BD00E100E004800340FFBF000054
:1029A000088003400C8003401480034000800340F3
:1029B0001C800340248003402C800340348003406B
:1029C00004900340089003400C900340149003408F
:1029D0000090034004A0034008A003400CA0034063
:1029E00014A0034000A00340F0B50B4F02223B7837
:1029F0000A4E1A43D2000A4DB41860602878882421
:102A0000002800D0C82409040C43B45001225040CF
:102A1000534028703B70F0BD8800002000F8FF1F75
:102A200000010020431E10B5032B0FD872B6084AD0
:102A300099008858002807D044685B008C50054AEC
:102A400001889C5A611A995262B600E0002010BDBC
:102A50007800002028090020431E0020032B09D8FD
:102A600072B6054A9B009B58002B02D001305B6870
:102A7000FAE762B67047C046CC00002038B572B69F
:102A80000123164A9A18013A127811071CD5144AE4
:102A90005C01A5589900002D05D113190830586024
:102AA000104BA3500AE001242143C9008C58002C8C
:102AB0000AD15318083058600B4B8B500B4B1A78C7
:102AC000013A1A7062B608E00133052BD9D162B61B
:102AD000064B00221A7000F0A5FB38BD0867000005
:102AE00000F8FF1F88004000C8004000F6000020EA
:102AF000421E10B5032A30D8022380001843174B1A
:102B0000C0001B1872B6164CA05C032809D802F04E
:102B1000B1F8140216050833022011E0083304202E
:102B20000EE01048920014580F4B002C01D11150A8
:102B300001E09858416099500EE0032000E0052024
:102B4000A0540A1C08325A608822180700D5C822EF
:102B5000098809040A431A6062B610BD00F8FF1F15
:102B600034000020CC000020DC000020F7B5B5497F
:102B70000C780E1CE4B262071DD5B34B1B78002BFA
:102B800016D0B24A1378DBB2002B05D0013BDBB282
:102B90001370002B00D100BEAD4A1378DBB2002BBE
:102BA00006D0013BDBB21370002B01D100F060FCBA
:102BB000A44D04232B700825221C2A4000D154E286
:102BC000A44BA54C1B78DBB21E099A08002E00D03E
:102BD000DDE1D50065192F686A68B806000F013875
:102BE0000C2800D9D0E102F04FF893019301CF01F6
:102BF000CF01CF01CF01CF01CF01AC01CF01CF0178
:102C0000CF010D0095491368954F5268954829608A
:102C1000954D964900263B607A609BB201222E605A
:102C20002661A66102708B4218D8D021C9008B4260
:102C300000D3E5E0812191408B4200D1C2E006D86B
:102C4000802B00D1A9E0822B00D1ABE0F5E0884ACF
:102C5000934200D1C5E0A022D20017E085498B4203
:102C600000D152E10DD8882109018B4200D18EE0BC
:102C700090221201934200D0DFE0BA78724B1A70B2
:102C800009E07D4A934200D1CFE07C4A002693427E
:102C900000D115E1D1E0A319196A090603D5586AD4
:102CA000083800F0BFFA0836802EF4D100252E1C1B
:102CB000734AA858002805D04368019300F0B2FA7F
:102CC0000198F7E76E496F4B6F4A4851E850A85892
:102CD000002805D04368019300F0A4FA0198F7E7B3
:102CE0006A4B6B4AE8507300D0526749694B4851B0
:102CF000F05C0238032807D801F0BCFF020402048C
:102D0000002200E001229A5501360435042ECFD16D
:102D1000614A002313700125161C604BEA18604BB2
:102D20009200EB18013B1B781370190720D500F0B7
:102D30005BFA6B01002805D0E21808305060594A50
:102D4000E25003E0E05033780133337000F04CFA86
:102D50000122AB001343DB00002805D0E218083045
:102D600050603E4AE25003E0E05033780133337064
:102D7000AB0002221A43D2000021A15003221343C8
:102D800093400135E150052DC7D10E1C98E02E4B24
:102D9000454C1B78161C237093E0434C26706670DC
:102DA00002268EE0BB88042B47D83F4C3F4D9B004A
:102DB000267066705B191B780226334200D180E0D2
:102DC00022707EE0BA887F231340042B35DC7E8896
:102DD000002E32D135499B005B181A7802218A43B4
:102DE00029E0BA887F231340042B26DC7E88002E3E
:102DF00023D12E4A9B009B181A7802210A431AE01D
:102E00007A88B9882A4B5C68002C16D018889042C2
:102E100009D15888884206D1120A032A01D126789E
:102E20004FE01E894DE00C33EDE7224B1A68224B30
:102E30001A60BA78214B1A7042E01C4B0F221A70AC
:102E400063E0C04680200740FF000020890000208A
:102E5000010100209020074000F8FF1FC80040003B
:102E6000EC0000200001002020000020810600006E
:102E70000203000021200000212200002123000085
:102E80007800002024000020CC000020DC0000207E
:102E90002809002034000020F600002030C801106E
:102EA0000867000088004000F7000020C0200740AD
:102EB0000C6700001C0000203809002010010020D1
:102EC000341CFB889E4200D91E1C371E402F00D99F
:102ED0004027201C391CFFF787FDE419F61B03D19E
:102EE000351C402F04D010E04025B54200D9351CD8
:102EF000201C291CFFF778FD6419761B01D1402D99
:102F000003D1754D754B2C601E800122744B3AE045
:102F1000744B1988744B994210D10023D05C7349CB
:102F2000C8540133072BF9D10B68862B02D1704BA3
:102F30000F221A700020011CFFF756FD6D4B2B600D
:102F400022E0654F3D68002D13D064490E88341E81
:102F5000402C00D94024281C211CFFF745FD361BBE
:102F60005E4AB6B21680002E01D1402C00D12E1937
:102F70003E605C4BA0221988D200914204D100220D
:102F80005A709A785C4B1A700122554B61E0D2005E
:102F9000A4186068013E0838F6B22B4036D000F025
:102FA00041F95649B0004258554B002A1BD055688C
:102FB0004550111C985D0831616003280BD801F061
:102FC00059FE02040608032104E0022102E0052163
:102FD00000E0042199558823270700D5C8231288CB
:102FE000120413433CE0985D032808D801F042FE28
:102FF00039390204002200E001229A5531E02C40C8
:10300000624262410324A41A9C552AE0628802802D
:10301000002A20D03B4D43804360B3005F593A49BA
:10302000002F01D1585101E0CD586860C850374B8E
:103030007600F15A5218F25200F0D6F8002804D067
:103040000830606021070AD507E0314B20601A780C
:1030500001321A7005E02C4201D0264B00E02D4BC6
:1030600023602D4A0823137081E5012004421ED0FD
:103070001B4902230B70294B264C1A70284B294DF3
:103080001C609C60284C1A61DC609A615D60274B73
:103090000D241C70264CFF232370174C33702270B4
:1030A000244A1370244B9F221A70087013E063B2F5
:1030B000002B04DA1D4B0D221A708023337002237B
:1030C0001C4204D01A4A1178C9B21170337010230F
:1030D0001C4200D03370F7BD20000020F400002017
:1030E00094200740EC00002021200000300900203F
:1030F00089000020C800400098200740CC00002034
:10310000340000207800002024000020280900203E
:10311000F600002088004000802007408800002042
:1031200000F8FF1F380000208C000020C02007405E
:10313000882007408C2007408420074010B501F00C
:103140005FFD00221A4B0021D150981808324160CF
:10315000882AF7D1174A80201468C00220431060E3
:10316000180A154AC0B21070180C144AC0B2107078
:10317000134A1B0E1370134AFF231370124A13488D
:103180001370134A13700122027012480170124921
:103190000A70124A116899430B1C70210B4313608B
:1031A0000F4B802252041A600E4B10221A7010BD71
:1031B00000F8FF1F348004409C200740B0200740E7
:1031C000B420074080200740882007409420074013
:1031D00010200740002107408420074018E400E049
:1031E00000E100E00821074038B572B60B4C2568B5
:1031F000281C01F003FE0B2802D962B600200CE067
:1032000080231B06C3409D43256062B64823584374
:10321000034B181800230360436038BD6CFDFF1F8B
:1032200000FAFF1F10B5041C0E484821201A01F0B7
:1032300035FD0B2815D80C4B1B78002B07D00B4BFA
:103240001B78002B03D0201CFFF718FC09E072B696
:103250008022074B1206C240101C1A6810431860E7
:1032600062B610BD00FAFF1FF6000020FF0000202C
:103270006CFDFF1F38B5114C2368002B0CD0206863
:103280004288531C8218157A0288934212D3FFF7A2
:10329000C9FF002323600EE0094B1B78002B02D1ED
:1032A0000120404208E00320FFF7BCFB206000281B
:1032B000E5D1F5E74380281C38BDC0460C0100204D
:1032C000FF00002010B50D4C2368002B03D02368AD
:1032D000002B0ED103E00A4B1B78002B02D10120FA
:1032E000404209E00320FFF79DFB20600028EED15B
:1032F000F5E75A889B18187A10BDC0460C010020CB
:10330000FF000020054B9888054B1B68002B03D05D
:103310001A885B88D31AC0187047C0462809002055
:103320000C010020F7B5304D0123071C0C1C2B703D
:10333000002C56D02D4E3068002827D12C4A0192FF
:103340002C4B1B78DBB2002B03D12B7001204042A9
:1033500049E00420FFF780FB072808D801232B70E1
:10336000FFF742FF214B186000280FD12870019809
:10337000214B01380190002802D01A78002A02D08F
:1033800001221A70E2E700F083FCD9E71A4B002211
:1033900031681A704B884020C01A0094844200D9CA
:1033A0000090181C009A08309B1808184B80019058
:1033B000A41A00230098834204D0F85C019AD054E8
:1033C0000133F7E7FF184B883F2B06D940230B80CA
:1033D0000420FFF78DFB00233360084B05221A7091
:1033E000A6E72C70201CFEBD020100200401002075
:1033F00009750000FF0000200801002001010020E5
:1034000007B56B46D8710733181C0121FFF78AFFF7
:103410000EBDFFFFF8B5124B1B78002B1ED0114FCD
:10342000114B3C6801261E70104D002C09D000265F
:103430002E70638804202380211CFFF759FB3E6017
:1034400009E0FFF7D1FE011E04D004202C70FFF725
:103450004FFB00E02E70044A00231370F8BDC046F5
:10346000FF000020040100200201002001010020D3
:1034700038B50E4B1D78EDB2002D15D10C4C2168DE
:10348000002906D04B8804200B80FFF731FB256014
:103490000AE0FFF7A9FE011E03D00420FFF728FB76
:1034A00002E0044B01221A7038BDC0460201002020
:1034B000040100200101002008B50368C9B21B689F
:1034C000984708BD08B50368C9B21B68984708BD8E
:1034D00008B50368C9B21B68984708BD08B50368FA
:1034E000C9B21B68984708BD08B5044B4808C01806
:1034F00001F0D4FB00F060FC08BDC046C0C62D0042
:1035000010B5064B4808C018141C01F0C7FB00F0AA
:1035100053FC201C00F0A4FC10BDC046C0C62D000A
:1035200008B500F0C5FC08BD08B5081C00F0FAFCA1
:1035300008BD08B5081C00F017FD431E9841C0B235
:1035400008BD08B5081C00F035FD431E9841C0B207
:1035500008BD08B500F0B8FD08BD08B500F0F6FDDF
:1035600008BD08B500F0C0FD08BD08B500F08EFD2F
:1035700008BD08B500F006FE08BD08B500F092FDD4
:1035800008BD08B5081C00F017FD012008BD08B5EE
:10359000081C00F011FD012008BD10B5081C141C0A
:1035A000111C00F067FD201C10BD38B5081C0D1C57
:1035B00001F0A4FD041C211C281C00F05BFD201C54
:1035C00038BD7047044B00221A711A73FA21034A5E
:1035D000890099601A60704714010020E0650000BE
:1035E00008B50368C9B21B68984708BD08B50368E9
:1035F000C9B21B68984708BD08B50368C9B21B6803
:10360000984708BD08B50368C9B21B68984708BD4C
:1036100008B5044B4808C01801F040FB00F040FE1C
:1036200008BDC04660E3160010B5064B4808C01838
:10363000141C01F033FB00F033FE201C00F094FE5C
:1036400010BDC046C0C62D0008B500F0B5FE08BDCF
:1036500008B5081C00F0EAFE08BD08B5081C00F01B
:1036600007FF431E9841C0B208BD08B5081C00F012
:1036700025FF431E9841C0B208BD08B500F050FFB9
:1036800008BD08B500F08EFF08BD08B500F058FF72
:1036900008BD08B500F026FF08BD08B500F09EFF84
:1036A00008BD08B500F02AFF08BD08B5081C00F0E9
:1036B00012FF012008BD08B5081C00F00CFF012016
:1036C00008BD10B5081C141C111C00F0F9FE201CCC
:1036D00010BD38B5081C0D1C01F010FD041C211C88
:1036E000281C00F0EDFE201C38BD7047044B002262
:1036F0001A711A73FA21034A890099601A60704797
:10370000240100203866000008B50368C9B21B68B0
:10371000984708BD08B50368C9B21B68984708BD3B
:1037200008B50368C9B21B68984708BD08B50368A7
:10373000C9B21B68984708BD08B5044B4808C018B3
:1037400001F0ACFA00F0F0FF08BDC04660E31600DF
:1037500010B5064B4808C018141C01F09FFA00F081
:10376000E3FF201C01F028F810BDC04660E31600FE
:1037700008B501F049F808BD08B5081C01F07EF84D
:1037800008BD08B5081C01F09BF8431E9841C0B263
:1037900008BD08B5081C01F0B9F8431E9841C0B235
:1037A00008BD08B501F032F908BD08B501F070F99F
:1037B00008BD08B501F03AF908BD08B501F008F9EF
:1037C00008BD08B501F080F908BD08B501F00CF995
:1037D00008BD08B5081C01F09BF8012008BD08B51C
:1037E000081C01F095F8012008BD10B5081C141C38
:1037F000111C01F0E1F8201C10BD38B5081C0D1C8F
:1038000001F07CFC041C211C281C01F0D5F8201CB4
:1038100038BD7047044B00221A711A73FA21034A0B
:10382000890099601A60704734010020906600009A
:1038300008B5FCF755FEFDF727F800F029FAFAE77E
:10384000F8B5061C0C1C8F180025BC4207D0336845
:1038500021781B68301C984701342D18F5E7281C87
:10386000F8BDF0B500258DB08C68061C0F1C0195C5
:10387000002C14D02122381C03A92B1C00F0CCF9F9
:10388000221E202A00D920223368301C5B6803A93D
:10389000AD18A41A9847019B1B180193E8E70198FB
:1038A0000DB0F0BD37B50224051C221C01A8054946
:1038B00001F020FB2B68281C5B6801A9221C98479B
:1038C0003EBDC046E066000008B503685B689847E7
:1038D000002008BD0EB403B503AA08CA191C019242
:1038E00001F05CFC02B008BC03B01847F0B585B02D
:1038F0006B460E338EB2144C0D0C013666436C438E
:10390000A5B2370CAE19F619250C2C19360CA519D1
:103910006D080A266E43891B30311C1C1970013B4F
:10392000002D01D0291CE5E7211C002A03D01C1C16
:103930002D224B1E1A70036804A9E24352185B68DB
:10394000211C984705B0F0BD33330000002208B5B4
:10395000914201DA49422D22FFF7C8FF08BD37B571
:103960006A460B1C07320F241C40251C111C3735DE
:10397000092C00D8073D15701B09013A002BF2D124
:10398000036802AC621A5B6898473EBD10B588B008
:103990006A460B1C1F3201241C403034111C147069
:1039A0005B08013A002BF6D1036808AC621A5B6829
:1039B000984708B010BDF0B587B0061C0D1C171C49
:1039C00005AC281C391C01F069F9031C7B43ED1A76
:1039D000EDB2211C092D01D8303500E03735EDB2AC
:1039E0002570013C002801D0051CEAE7336806A8D1
:1039F000421A033A5B68301C984707B0F0BDFFFFDE
:103A00000A4B70B51D68041C1E1C2368201CDB6853
:103A10009847002808DA00F03BF93368A2685B1B7E
:103A20009342F2D30120404270BDC0461C000020EA
:103A30008160704770B5041C0D1C0021161C00F03D
:103A400083F8A368B3420ED2281CFFF7D9FF0028E1
:103A500002DA01232B7306E0002804D0C1B2201C37
:103A600000F0ABF8F0E7201C70BD08B5FFF74AFC8A
:103A700008BD08B5FFF7FEFB08BD08B5FFF722FC3F
:103A800008BD08B5FFF7C6FC08BD08B5081CFFF760
:103A9000B7FC08BD08B5081C111CFFF743FC08BDA6
:103AA0007047FFFF044B00221A711A73FA21034A70
:103AB000890099601A60704744010020F066000098
:103AC00010B5041C006801F00BFA201C10BD38B5BD
:103AD000041C0D1C0068013101F0E0FA002801D03F
:103AE00021C4012038BD436810B5041C8B4208D2A4
:103AF000FFF7EDFF002805D0A368002B01D1226855
:103B00001370012010BDF8B5041C0F1C151E05D143
:103B10000368002B00D01A7000230DE0111CFFF782
:103B2000E2FF061C2068002E08D1002802D001F018
:103B3000D7F9266000236360A36003E0A560391C09
:103B400001F0D4FA201CF8BD38B50023041C0D1C6C
:103B50000360436083600373994207D0081C01F03F
:103B6000CDFA291C021C201CFFF7CDFF201C38BDFC
:103B700038B5051C0C1E08D0081C01F0BFFA211C2A
:103B8000021C281CFFF7BFFF00E0A960281C38BDFD
:103B900070B5041C0E1C8568002A0CD05519291C10
:103BA000FFF7A1FF002806D02268A368311CD018B7
:103BB00001F09CFAA560201C70BD13B5002201AB7A
:103BC000041C19705A70191C0122FFF7E1FF201C18
:103BD00016BD08B58368002B05D1002901D00878EF
:103BE00008E0012009E00068002901D1007801E027
:103BF00001F072FA43425841C0B208BD836899424D
:103C000003D203685818002B02D102480023037026
:103C10007047C0465401002038B50D1C002A14D04E
:103C2000002912D081688B4202D300232B700CE054
:103C3000541EC91A8C4200D90C1C0168221CC918D8
:103C4000281C01F062FA00232B5538BDF8B5041C7E
:103C50000E1C9A4202D9111C1A1C0B1C0021A160D7
:103C6000216061602173B1688A420FD81D1E8D42A8
:103C700000D90D1C3168201C4B1900211F781970C8
:103C800033689918FFF774FF33685F55201CF8BD3F
:103C900010B5104C2378002B1BD101232370FFF7A4
:103CA00031FB002801D0FFF7FBFE00F00DFA0028E1
:103CB00001D0FFF786FC00F033FC002801D0FFF7AD
:103CC00014FD00F0A3FE002801D0FFF7A2FD0023A1
:103CD000237010BD550100201B4B1C4A19781C4B4A
:103CE000082901D1002102E00A2903D138211160FD
:103CF000132206E00C2901D1342100E03C2111609F
:103D000012221A60134B1A78134B002A01D000229A
:103D100000E001221A60114B1A78114B012A01D8D8
:103D200080220CE0042A01D8842208E0082A01D865
:103D3000852204E0102A01D8862200E087221A603A
:103D4000084B01221A70704770FDFF1F08B0034036
:103D50000CB003405701002020B0034071FDFF1F4D
:103D600024B0034056010020F8B5061C0D1C171C9A
:103D70000024301C391C00F0D5FF092901D830314E
:103D800000E03731C9B22955301C391C00F086FFDC
:103D9000061E01D00134ECE72B1958702B1C5A1B5E
:103DA000A24206DA1A78295D19702A550133013CBE
:103DB000F5E7281CF8BDFFFF1C4B80221968D200D4
:103DC0000A431A601A4B00221A801A4B1A491A80A9
:103DD0001A4B1A701A4B1A701A4B1A701A4B196038
:103DE0001A4BD12189001960194BC104C90EC0B208
:103DF000197058709A702C22DA70164A1278002ABC
:103E000007D09978A0220A439A709A7920218A4390
:103E10009A71114BFF22196891430A1C40210A43F1
:103E20001A600E4B802252011A60704734800440A1
:103E3000A20300205E01002013030000AC03002059
:103E4000A40300205C01002040A0044044A00440E2
:103E500000A00640A50300200CE400E000E100E023
:103E600010B5124B132299789143032202400A4362
:103E7000410701D510210A439A700F220B490240D5
:103E8000042A03D18A79402422438A715A79102165
:103E90008A43084200D00A435A719A7910218A4312
:103EA000840600D50A439A7110BDC04600A00640A2
:103EB00008B5124B1B685A051ED5114B1B78DBB297
:103EC000002B02D0FFF7E4FEF7E70E4A80214901FC
:103ED00011600D4A0D49D3700422FF320A600C496B
:103EE0000A600C4A13800C4A13800C4B1B68002B91
:103EF00002D00B4A12781A7108BDC04634800440C3
:103F00005C01002080E100E000A0064040A00440E9
:103F100044A00440A20300205E01002058010020BC
:103F20002002002038B5041C0B4B1D78EDB2002D8B
:103F3000FAD1201C0121FEF781FC291C201CFEF770
:103F40005DFC0C225443054B054AE1581C191160D5
:103F5000044B227A1A7038BD5C0100209064000086
:103F6000A8030020A103002038B50E4B1A680023D7
:103F7000510514D50C4C1A2810D80C2343430B4A76
:103F80000B4D9958D3181B7A216001212B70FEF735
:103F900055FC23682A781A72012300E02360181C5C
:103FA00038BDC046348004405801002090640000B1
:103FB0002002002000207047F8B5254B071C1B6825
:103FC0005A0544D5234B1B68002B02D0224A127895
:103FD0001A71224B1B78002B04D0214B20219A7997
:103FE0000A439A711F4E00233478BF220134A24243
:103FF0005B415B421C401C4D2B78A3421CD1FEF759
:10400000D1FB402813DC164A13795BB2002BF2DA9D
:104010002B7800210133BF209842494149420B408F
:104020001249C95CDBB2C9B2D1712B70E3E7FF283A
:10403000E1DDFFF72DFEDEE70C4BFFB21F550C4B09
:1040400001221A70064BE4B2AC223470DA70F8BD6B
:1040500034800440A8030020A1030020A503002011
:1040600000A00640AC030020A40300206001002053
:104070005C01002038B5041C4518AC4204D02078FF
:10408000FFF79AFF0134F8E738BDFFFF08B5044B8E
:104090001B78002B02D0FFF7FBFDF8E708BDC046F8
:1040A0005C010020064B074A1B781078DBB2C0B2D7
:1040B000834201D3BF3000E00138C01A7047C046C8
:1040C000AC030020A4030020054B1888054B80B2E8
:1040D0001B889BB2984201D28130FF30C01A7047D2
:1040E000A20300205E010020134B14491A880B889C
:1040F00092B29BB210B59A421BD080240133FF3498
:1041000000209C424041404203400D489CB2C05CAC
:104110000C800C49C0B2096800290CD09A4201D227
:104120008132FF32D31A1A2B05DC074B1B780B7236
:1041300001E00120404210BDA20300205E010020EA
:104140002102002058010020200200200A4B1A887A
:104150000A4B1B889BB29A420BD08021013300226C
:10416000FF319942524152421340054AD05CC0B2DD
:1041700001E0012040427047A20300205E010020C0
:1041800021020020064B1A88064B92B21A80064B79
:104190001B68002B02D0054A12781A727047C0467D
:1041A0005E010020A2030020580100202002002010
:1041B00030B52F4B1A79910613D52E49DC790A8830
:1041C000802501320020FF359542404140420240A7
:1041D0002948E4B20088824203D02848845492B22D
:1041E0000A80D978224CC9B24AB2002A1ADA227956
:1041F00052B2002A16DA224A224815780278D2B240
:10420000954202D16C22E2700CE001320024BF25FD
:1042100095426441644222401B4CA45CD2B2E4B299
:10422000DC710270987C0422104206D01748047892
:104230000134E4B204700E4882744022114216D058
:104240001979114213D0124A00211170114A1268D3
:104250008A4202D0104909781172104A1278002A55
:1042600003D09A7920218A439A712C22DA7030BDCA
:1042700000A00640A20300205E01002021020020D1
:10428000AC030020A4030020600100203C090020B2
:104290005C010020A8030020A1030020A50300204A
:1042A000214B8022196812010A4310B51A601F4A77
:1042B000002313801E4A13801E4A13701E4A137077
:1042C0001E4A13701E4A13701E4B19781A1C1E4B7F
:1042D000002901D01D4904E01D491E4C0C60D1216C
:1042E000890019601C4BC104C90E1970C0B20021AD
:1042F000587099702C21D9701278002A07D09978BB
:10430000A0220A439A709A7920218A439A71134B0A
:10431000134A19680A408021C9010A431A60114BE7
:10432000802292011A6010BD34800440F405002000
:10433000AE03002004060020FC050020B00300208E
:10434000FD050020B103002010B004404703000029
:104350000CB004401303000000B006400CE400E081
:10436000FF00FFFF00E100E010B5124B1322997827
:104370009143032202400A43410701D510210A4319
:104380009A700F220B490240042A03D18A794024F3
:1043900022438A715A7910218A43084200D00A4385
:1043A0005A719A7910218A43840600D50A439A717A
:1043B00010BDC04600B0064008B5124B1B681A0578
:1043C0001ED5114B1B78DBB2002B02D0FFF760FC2F
:1043D000F7E70E4A8021890111600D4A0D49D3701B
:1043E0000422FF320A600C490A600C4A13800C4A0E
:1043F00013800C4B1B68002B02D00B4A12781A71E9
:1044000008BDC04634800440B003002080E100E0D5
:1044100000B006400CB0044010B00440F405002089
:10442000AE030020F80500207204002038B5041CFB
:104430000B4B1D78EDB2002DFAD1201C0121FEF7A7
:10444000FDF9291C201CFEF7D9F90C225443054B19
:10445000054AE1581C191160044B227A1A7038BDC4
:10446000B00300209064000000060020F305002047
:1044700038B50E4B1A680023110514D50C4C1A28B8
:1044800010D80C2343430B4A0B4D9958D3181B7A71
:10449000216001212B70FEF7D1F923682A781A7266
:1044A000012300E02360181C38BDC046348004405E
:1044B000F80500209064000072040020002070477E
:1044C00038B5041C4518AC4204D0207800F003F83D
:1044D0000134F8E738BD07B50121019001A8FFF7C5
:1044E000EFFF07BD08B5044B1B78002B02D0FFF788
:1044F000CFFBF8E708BDC046B0030020064B074AD3
:104500001B781078DBB2C0B2834201D3BF3000E029
:104510000138C01A7047C04604060020FC05002080
:10452000054B1888054B80B21B889BB2984201D27C
:104530008130FF30C01A7047F4050020AE03002020
:10454000134B14491A880B8892B29BB210B59A4249
:104550001BD080240133FF3400209C424041404264
:1045600003400D489CB2C05C0C800C49C0B2096885
:1045700000290CD09A4201D28132FF32D31A1A2B71
:1045800005DC074B1B780B7201E00120404210BD97
:10459000F4050020AE03002073040020F80500207D
:1045A000720400200A4B1A880A4B1B889BB29A425D
:1045B0000BD0802101330022FF31994252415242F7
:1045C0001340054AD05CC0B201E001204042704770
:1045D000F4050020AE03002073040020064B1A8867
:1045E000064B92B21A80064B1B68002B02D0054A7C
:1045F00012781A727047C046AE030020F4050020FE
:10460000F80500207204002030B53A4B1A79910663
:1046100013D53949DC790A88802501320020FF351D
:1046200095424041404202403448E4B20088824210
:1046300003D03348845492B20A80D8782D49C0B24E
:1046400042B2002A20DA0A7952B2002A1CDA2D4A34
:104650002D4C15782278D2B2954208D12B4A127887
:10466000002A01D02C2200E06C22CA700CE001323A
:104670000021BF259542494149420A402449895CAD
:10468000D2B2C9B2D9712270997C0422114206D0EB
:1046900020490C780134E4B20C7016498A74402227
:1046A000104226D018791349104222D0174A1278A6
:1046B000D2B2002A01D02C2306E012480478124816
:1046C0000078844202D0AC23CB7012E012490A7009
:1046D000124A1268002A02D0114909781172114A4F
:1046E0001278002A03D09A7920218A439A712C22C9
:1046F000DA7030BD00B00640F4050020AE030020A3
:104700007304002004060020FC050020FD050020A5
:10471000B20300203D090020B00300200006002065
:10472000F3050020B1030020164B802219685201C6
:104730000A431A60144A00231380144A1449138050
:10474000144A1380144A1380144A1370144A1160D7
:10475000144AD12189001160134AC104C90EC0B2A4
:104760001170507093702C23D370104B104A19683D
:104770000A408021C9030A431A600E4B8022D201ED
:104780001A60704734800440120900200E06002091
:10479000130300001C090020140900200C0600204F
:1047A00008C004400CC0044000C006400CE400E017
:1047B000FFFF00FF00E100E010B5124B13229978D3
:1047C0009143032202400A43410701D510210A43C5
:1047D0009A700F220B490240042A03D18A7940249F
:1047E00022438A715A7910218A43084200D00A4331
:1047F0005A719A7910218A43840600D50A439A7126
:1048000010BDC04600C0064008B5124B1B68DA0454
:104810001ED5114B1B78DBB2002B02D0FFF738FA04
:10482000F7E70E4A8021C90111600D4A0D49D37086
:104830000422FF320A600C490A600C4A13800C4AB9
:1048400013800C4B1B68002B02D00B4A12781A7194
:1048500008BDC046348004400C06002080E100E022
:1048600000C0064008C004400CC0044012090020EB
:104870000E060020080600209007002038B5041C12
:104880000B4B1D78EDB2002DFAD1201C0121FDF754
:10489000D5FF291C201CFDF7B1FF0C225443054B0A
:1048A000054AE1581C191160044B227A1A7038BD70
:1048B0000C06002090640000180900201109002057
:1048C00038B50E4B1A680023D10414D50C4C1A28A5
:1048D00010D80C2343430B4A0B4D9958D3181B7A1D
:1048E000216001212B70FDF7A9FF23682A781A7235
:1048F000012300E02360181C38BDC046348004400A
:1049000008060020906400009007002000207047F7
:10491000F8B5214B071C1B68DA043CD51F4B1B68FC
:10492000002B02D01E4A12781A711E4B80261C885A
:10493000FF3601340023A6425B415B421C401A4D06
:104940002B88A3421BD1FDF72DFF402812DC174A0C
:1049500013795BB2002BF2DA2B88002101339E42DF
:10496000494149420B401249C95C9BB2C9B2D1715D
:104970002B80E4E7FF28E2DDFFF78AF9DFE70C4B45
:10498000FFB21F550B4B01221A70064BA4B21C80BC
:10499000064BAC22DA70F8BD3480044018090020C0
:1049A000110900201C0900201409002000C0064045
:1049B000100600200C06002038B5041C4518AC4237
:1049C00004D02078FFF7A4FF0134F8E738BDFFFFDB
:1049D00008B5044B1B78002B02D0FFF759F9F8E714
:1049E00008BDC0460C060020064B074A1B881088ED
:1049F0009BB280B2834202D38030FF3000E00138A6
:104A0000C01A70471C09002014090020054B1888A3
:104A1000054B80B21B889BB2984201D28130FF3097
:104A2000C01A7047120900200E060020134B1449CB
:104A30001A880B8892B29BB210B59A421BD0802480
:104A40000133FF3400209C424041404203400D4866
:104A50009CB2C05C0C800C49C0B2096800290CD023
:104A60009A4201D28132FF32D31A1A2B05DC074B4E
:104A70001B780B7201E00120404210BD120900209A
:104A80000E06002091070020080600209007002055
:104A90000A4B1A880A4B1B889BB29A420BD0802182
:104AA00001330022FF319942524152421340054ADC
:104AB000D05CC0B201E001204042704712090020E2
:104AC0000E06002091070020064B1A88064B92B272
:104AD0001A80064B1B68002B02D0054A12781A7206
:104AE0007047C0460E06002012090020080600206C
:104AF0009007002030B5354A1379990626D53449F8
:104B0000D4790B88802501330020FF359D42404138
:104B1000404203402F48E4B20088834203D02E482D
:104B2000C45498B208802D49086800280ED02C493A
:104B3000098889B28B4201D35B1A02E05B1A813388
:104B4000FF33272B02DD274B1B780371D1781F4CD5
:104B5000C9B24BB2002B1BDA23795BB2002B17DAF8
:104B6000214B1F481D8803889BB29D4202D16C23B4
:104B7000E3700DE0802501330024FF359D42644140
:104B800064422340194CE45C9BB2E4B2D4710380CC
:104B9000907C0423184206D0154804780134E4B20E
:104BA00004700A488374402319420ED011791942C7
:104BB0000BD0104B002119700F4B1B688B4202D099
:104BC0000E49097819722C23D37030BD00C00640FD
:104BD000120900200E060020910700200806002080
:104BE00014090020900700201C0900201006002056
:104BF0003E0900200C0600201809002011090020A1
:104C00001FB572B6154B70221A70154A41211170EA
:104C1000144A0F21117080221A701A7852B2002A99
:104C2000FBDA114B186862B6104B984201D80A2380
:104C3000584301AC211C0A22FFF796F80023E15CDF
:104C40000B4A002905D058001018013341800A2B67
:104C5000F5D101335B0013701FBDC0460000024058
:104C60000700024006000240080002407F969800BC
:104C7000FAFDFF1F02B4714649084900095C49006A
:104C80008E4402BC7047C04603B4714649084000D8
:104C90004900095A49008E4403BC7047002934D0AA
:104CA0000123002210B488422CD301242407A142FE
:104CB00004D2814202D209011B01F8E7E400A142BB
:104CC00004D2814202D249005B00F8E7884201D356
:104CD000401A1A434C08A04202D3001B5C0822432E
:104CE0008C08A04202D3001B9C082243CC08A0429F
:104CF00002D3001BDC082243002803D01B0901D08B
:104D00000909E3E7101C10BC7047002801D00020FF
:104D1000C04307B4024802A14018029003BDC04638
:104D2000D90000000029F0D003B5FFF7B9FF0EBC91
:104D30004243891A1847C046002941D010B4041CC8
:104D40004C40A44601230022002900D549420028F6
:104D500000D5404288422CD301242407A14204D22A
:104D6000814202D209011B01F8E7E400A14204D20A
:104D7000814202D249005B00F8E7884201D3401A21
:104D80001A434C08A04202D3001B5C0822438C0843
:104D9000A04202D3001B9C082243CC08A04202D3AD
:104DA000001BDC082243002803D01B0901D009099D
:104DB000E3E7101C6446002C00D5404210BC70474D
:104DC000002806D003DB0020C043400801E080201B
:104DD000000607B4024802A14018029003BDC04675
:104DE000190000000029EBD003B5FFF7A7FF0EBCA8
:104DF0004243891A1847C0467047C0461C21012308
:104E00001B04984201D3000C10391B0A984201D3AD
:104E1000000A08391B09984201D30009043902A28B
:104E2000105C40187047C0460403020201010101F2
:104E3000000000000000000008B5031C081C191C3D
:104E400000F00EF808BDFFFF08B50A1C0349031C5B
:104E50000868191C00F078F808BDC04670FEFF1FF6
:104E600038B5051C05480C1C131C002804D0022072
:104E7000291C221C00E000BF38BDC0460000000015
:104E800070B50E4B0E4D0024ED1AAD101E1CAC4239
:104E900004D0A300F35898470134F8E701F0AEFCC2
:104EA000084B094D0024ED1AAD101E1CAC4204D075
:104EB000A300F35898470134F8E770BD0868000074
:104EC00008680000086800002868000008B5034B67
:104ED000011C186800F08EF808BDC04670FEFF1F68
:104EE00008B5034B011C186800F03CF808BDC0462B
:104EF00070FEFF1F10B50023934203D0CC5CC45456
:104F00000133F9E710BD70B5814201D300230CE0F5
:104F10008C18A042FAD28518131C013B0BD35142C6
:104F20006618F65C6918CE54F7E7934203D0CC5C60
:104F3000C4540133F9E770BD031C8218934202D0B8
:104F400019700133FAE7704738B5151C4D43291C19
:104F500000F050F8041E03D000212A1CFFF7ECFFDC
:104F6000201C38BD30B5002940D004390B68002B17
:104F700000DAC9181E4A1368141C002B02D14B60BA
:104F8000116033E099420FD208680A189A4205D19D
:104F900013685268C01808604A6000E04B602160E6
:104FA00024E08A4203D8131C5A68002AF9D11D68EC
:104FB0005C198C420BD10968691858181960904225
:104FC00014D114685268091919605A600EE08C42B5
:104FD00002D90C23036009E008680C18944203D13D
:104FE00014685268001908604A60596030BDC046B4
:104FF0002409002070B50323CD1C9D430835061CF1
:105000000C2D01D20C2501E0002D3FDB8D423DD35C
:10501000204B1C681A1C211C002913D00868431B54
:105020000DD40B2B02D90B60CC181EE08C4202D1A0
:10503000636813601AE0486860600C1C16E00C1C82
:105040004968E9E7144C2068002803D1301C00F0BF
:1050500031F82060301C291C00F02CF8431C15D0BE
:10506000C41C03239C4384420AD12560201C0B30BE
:105070000722231D9043C31A0BD05A42E25008E086
:10508000211A301C00F016F80130EED10C233360E9
:10509000002070BD240900202009002008B50A1C4A
:1050A0000349031C0868191C00F05EF908BDC046DE
:1050B00070FEFF1F38B5074C0023051C081C236039
:1050C000FDF75EFB431C03D12368002B00D02B604F
:1050D00038BDC0464009002002780B78013001310C
:1050E000002A01D09A42F7D0D01A7047031C0A78E0
:1050F00001311A700133002AF9D170470023C25CD4
:105100000133002AFBD1581E704730B5031C002A1A
:1051100007D00C7801335D1E013A2C700131002C50
:10512000F5D19A18934203D0002119700133F9E7A1
:1051300030BDFFFFF0B5184C0E1CA544039380232F
:105140009B00041C171C0593002804D08369002BC6
:1051500001D100F099F8039B06AD0093201C3B1C85
:10516000291C05AA00F072F9071E0ED0201C311C64
:105170003A1C059B00F020F80590AF4203D0201C9C
:10518000391CFFF7EFFE059801E00120404287231C
:105190009B009D44F0BDC046E4FDFFFF38B5131CE5
:1051A000044A051C0C1C1068291C221CFFF7C2FFB6
:1051B00038BDC04670FEFF1F38B5084C051C0020E6
:1051C0002060081C111C1A1CFEF77EFB431C03D137
:1051D0002368002B00D02B6038BDC046400900205A
:1051E000F8B5041C071C4834002C12D0A56866686A
:1051F000013E0CD4AB89012B07D90E22AB5E0133E3
:1052000003D0381C291C00F0EFF96835F0E724685A
:10521000EAE7F8BD002310B5041C03604360836017
:1052200081814366C281036143618361191C082245
:105230005C30FFF781FE054B24626362044BA3627E
:10524000044BE362044B236310BDC046B55300001A
:10525000DD530000155400004154000070B54B1E92
:1052600068255D430E1C291C7431FFF7C3FE041E24
:1052700008D00021016046602A1C0C30A060683212
:10528000FFF75AFE201C70BD836913B5041C002B68
:1052900027D18364C3640365124B134A1B6882627F
:1052A000984201D101238361201C00F01FF8606047
:1052B000201C00F01BF8A060201C00F017F804214F
:1052C000E06000226068FFF7A5FFA06809210122C5
:1052D000FFF7A0FFE06812210222FFF79BFF0123E6
:1052E000A36113BD64670000E1510000F8B51D4BD8
:1052F000071C1E68B269002A02D1301CFFF7C4FFE8
:105300004836B4687368013B05D40C22A55E002DB5
:1053100010D06834F7E73368002B06D1381C04211D
:10532000FFF79CFF3060002801D03668E9E70C23C6
:105330003B6016E001235B42E381201C0123A38133
:1053400065662560A560656025616561A5615C3065
:10535000291C0822FFF7F0FD6563A563A564E564D9
:10536000201CF8BD64670000F8B5061C0C1C151C59
:10537000002904D1111CFFF73DFE041C18E0002A8F
:1053800003D1FFF7EFFD2C1C12E000F06DF9A842ED
:105390000ED2301C291CFFF72DFE071E07D0211C42
:1053A0002A1CFFF7A7FD301C211CFFF7DBFD3C1C6E
:1053B000201CF8BD38B50C1C0E25495F00F05EF9C5
:1053C000002803DB626D1318636503E0A289024BBA
:1053D0001340A38138BDC046FFEFFFFFF8B51E1C88
:1053E0008B89051C0C1C171CDA0505D50E23C95E1C
:1053F0000022022300F024F9A289054B281C134047
:10540000A3810E22A15E331C3A1CFFF7D5FEF8BD26
:10541000FFEFFFFF38B50C1C0E25495F00F010F9B7
:10542000A389421C03D1054A1340A38104E08022D2
:1054300052011343A381606538BDC046FFEFFFFFF3
:1054400008B50E23C95E00F033F808BD70B5151C11
:105450009AB01468002906D0002C04D0C122D200D2
:105460006E46B28105E0A2226946920000248A813C
:10547000211C00910491002C03DA8B23036000208F
:1054800013E0012252426E46F28169461A1C1E9BAD
:105490000294059400F066F90023984204DB009919
:1054A00028600B70049800E0181C1AB070BDFFFF54
:1054B00038B5074C0023051C081C2360FDF76AF96A
:1054C000431C03D12368002B00D02B6038BDC0469D
:1054D00040090020F7B58B89051C0C1C19075ED408
:1054E0006268002A02DC276C002F1ADDE76A002FB1
:1054F00017D000222E682A60802252011A4001D063
:10550000626D15E0281C216A0123B847021C411C6A
:105510000ED12B68002B0BD01D2B01D0162B02D1E6
:105520002E6000205EE0A38940210B43A38159E057
:10553000A3895F0706D56168636B521A002B01D0FF
:10554000276CD21B281C216A0023E76AB847A2896E
:10555000411C06D12B68002B03D01D2B01D0162B2C
:1055600019D10023636023692360D70405D5411C4A
:1055700002D12A68002A00D16065616B2E60002983
:10558000CFD0231C4433994202D0281CFFF7EAFCF9
:105590000020606326E040231A43A28122E02669AE
:1055A000002EBED027680022BF1B019726609907F6
:1055B00000D16269A260019F002FB2DD281C216A20
:1055C000321C019BA76AB847002806DCA389402249
:1055D00013430120A381404204E0019F36183F1A83
:1055E0000197E8E7FEBDFFFF0A6938B5051C0C1CF2
:1055F000002A01D100201CE0002804D08369002B80
:1056000001D1FFF741FE0B4B9C4201D16C6808E0D1
:10561000094B9C4201D1AC6803E0084B9C4200D18D
:10562000EC680C22A35E002BE4D0281C211CFFF7A1
:1056300051FF38BD6867000088670000A867000058
:1056400038B5084C051C00202060081C111C1A1CD1
:10565000FDF7A3F8431C03D12368002B00D02B6077
:1056600038BDC0464009002004390B68181F002BC4
:1056700002DAC8581B18181F7047FFFF38B5084CCE
:10568000051C00202060081C111C1A1CFDF780F866
:10569000431C03D12368002B00D02B6038BDC046CB
:1056A00040090020F0B58D6885B0071C0C1C0392E2
:1056B0000193AB4245D390228B89D20013423DD057
:1056C00062690326564309692068F20F401A961949
:1056D0000290021C0198013212187610964200D2F4
:1056E000161C381C5A050FD5311CFFF783FC051E0C
:1056F00013D0029A2169FFF7FDFBA289184B1340D2
:1057000080221343A38111E0321CFFF72DFE051EFA
:105710000CD1381C2169FFF725FC0C233B60A389C1
:10572000402213430120A381404217E0029B2561E0
:10573000ED1825606661019DF61AA6600198A842E1
:1057400000D2019D2A1C20680399FFF7DCFBA268A8
:105750000020531BA36023685D19256005B0F0BDD0
:105760007FFBFFFFF0B59FB0039005938B890E1C64
:10577000171C19060FD53269002A0CD14021FFF7FA
:1057800039FC30603061002803D103990C230B6091
:10579000C9E04023736106AD00236B6120236B7663
:1057A0003023AB763C1C2378002B03D1E21B029202
:1057B00011D003E0252BF9D00134F4E70398311C14
:1057C0003A1C029BFFF76EFF013000D1A6E0696929
:1057D000029A8B186B612378002B00D19EE0012286
:1057E00052426A606A4600235B3201342B60EB60F0
:1057F000AB601370AB654E4F2178381C052200F06A
:105800002BFA002807D0C71B2B680120B84018438B
:1058100028600134EFE72B68D90603D56A462021BA
:105820005B3211701A0703D56A462B215B32117067
:1058300022782A2A01D0099B0EE0059A111D1268D0
:105840000591002A01DB099204E05242EA6002223B
:1058500013432B60013409E02278303A092A04D836
:105860000A214B4301349B18F6E7099323782E2B2A
:1058700018D163782A2B09D1059B02341A1D1B68A5
:105880000592002B0DDA01235B420AE0013400236C
:105890002278303A092A04D80A214B4301349B1854
:1058A000F6E70793234F2178381C032200F0D4F940
:1058B000002806D0C71B2B684020B840184328603A
:1058C000013421781C480622671C297600F0C4F9AF
:1058D000002812D0194B002B06D1059B0722073355
:1058E00093430833059314E005AB00930398291CF8
:1058F000321C134B00E000BF07E005AB0093039898
:10590000291C321C0E4B00F091F8049004990131CF
:1059100004D06A69049953186B6143E7B3895A0646
:1059200001D40B9801E0012040421FB0F0BDC046F9
:10593000C8670000CE670000D267000000000000CA
:10594000A5560000F7B5151C01930A698B68061C63
:105950000C1C934200DA131C221C2B604332127879
:10596000002A01D001332B602068800602D52B6805
:1059700002332B60216806270F401FD0231C4333BE
:105980001B785A1E9341226892061FD5E1184031B8
:105990003020C870211C5A1C45310978A2184032A9
:1059A0000233D17012E0221C301C019919320123FC
:1059B000089FB847013011D0009F01370097E06879
:1059C0002968009F431A9F42EDDBD7E7221C301C59
:1059D00001994332089FB847013002D1012040426B
:1059E00023E0206806212B68E26801400025042995
:1059F00003D1D51AEB43DB171D40A26823699A42F5
:105A000001DDD31AED1800270097009FAF420BDA93
:105A1000221C301C01991A320123089FB84701301B
:105A2000DCD0009F0137EFE70020FEBDF0B50D1C74
:105A30008BB0433506920590079304950B7E0C1CA2
:105A4000109A6E2B00D1A7E011D8632B22D009D871
:105A5000002B00D1B0E0582B00D0C0E045310B70D6
:105A60007B4D4EE0642B1CD0692B1AD0B7E0732B12
:105A700000D1A5E009D86F2B29D0702B00D0AEE063
:105A80000E68202333430B6036E0752B1FD0782B34
:105A900032D0A4E013680D1C191D423511601B683B
:105AA0009FE0216813680E0603D5191D11601E685A
:105AB00005E04806F9D5191D116000215E5E644BB2
:105AC000002E3BDA049D2D2276422A7036E02168B2
:105AD00013680E0603D5191D11601E6804E0480600
